{
	"data": {
		"bytecode": {
			"linkReferences": {},
			"object": "608060405234801561001057600080fd5b50615e9a80620000216000396000f3fe608060405234801561001057600080fd5b50600436106103385760003560e01c806301ffc9a71461033d5780630453f81214610365578063169cd29f14610386578063248a9ca31461039b5780632dfd8ffe146103ae5780632f2ff15d146103c1578063357401f5146103d457806336568abe146103e757806339e3af9b146103fa5780633d18678e1461041d5780634129b2c91461043057806343969ec214610443578063473be6041461046357806351d1850b1461046b57806354b1bb071461047e578063572a1be0146104915780635755147d146104a457806359b63e58146104cc57806359ea2f25146104df5780635a626339146104f25780635d19d4dd146105055780636ffb5c0a1461051857806372093f501461052b57806375e600e41461053e57806377e895f3146105515780637944dca2146105645780637cd4ba49146105775780637f8c78f41461059757806381b5e9f6146105aa5780638aeda25a146105bd5780638d385f89146105d25780638e5cc02f146105e55780638ed99d8c146105f85780639190e0c71461060b57806391d148541461061e5780639507c061146106315780639c3ea3a6146106515780639e2cedbe146106665780639ec71358146106795780639ec8b02614610699578063a217fddf146106ac578063a24beff7146106b4578063a89a47cf146106c7578063ac662986146106cf578063acd818e2146106d7578063ad2bf79714610710578063b339fb351461073b578063b64b8ff214610778578063b77008111461078b578063ba02a68014610793578063bbce3fc2146107a6578063bed34bba146107ae578063c3756e03146107c1578063c5a8d32e146107d4578063cafc5d24146107f4578063cb0f9ccd14610807578063d47875d01461081a578063d547741f14610843578063d5c78a2814610856578063d72c9fea14610869578063d798299d1461087c578063d80493b51461088f578063db8d55f1146108ca578063e06232ca146108d2578063e63ab1e9146108e5578063e6edff51146108fa578063edb40ef61461093e578063f059228914610951578063f7f3818814610959578063f95cb71e1461096c578063fbc707ef146109a9578063fe88bdf1146109c9575b600080fd5b61035061034b366004615065565b6109d1565b60405190151581526020015b60405180910390f35b61037861037336600461508f565b610a08565b60405190815260200161035c565b6103996103943660046150a8565b610a52565b005b6103786103a936600461508f565b610d8b565b6103506103bc36600461508f565b610da0565b6103996103cf3660046150eb565b610db5565b6103996103e236600461508f565b610dd1565b6103996103f53660046150eb565b610e05565b61035061040836600461508f565b60009081526009602052604090205460ff1690565b61039961042b36600461508f565b610e83565b61037861043e36600461508f565b610ea1565b610456610451366004615117565b610eb3565b60405161035c9190615132565b610399610f1f565b610378610479366004615176565b611087565b61039961048c366004615273565b6110a4565b61035061049f366004615345565b611371565b6104b76104b2366004615176565b611421565b60405161035c99989796959493929190615438565b6104566104da366004615497565b61157b565b6103786104ed36600461551c565b6115f0565b6103786105003660046150eb565b61164e565b6103996105133660046150a8565b61176d565b61035061052636600461508f565b611b8f565b61037861053936600461508f565b611bbf565b61039961054c366004615176565b611bee565b61035061055f366004615558565b611dfe565b6103786105723660046155fc565b612038565b61058a61058536600461508f565b612060565b60405161035c9190615630565b6103786105a53660046150a8565b61218c565b6103996105b83660046156fa565b612381565b610378600080516020615de583398151915281565b6104566105e0366004615117565b6124ab565b6103996105f336600461573e565b6125fe565b61037861060636600461581a565b6127cf565b61037861061936600461551c565b612858565b61035061062c3660046150eb565b6128a7565b61037861063f36600461508f565b60009081526018602052604090205490565b610378600080516020615e0583398151915281565b610378610674366004615117565b6128d0565b61037861068736600461508f565b60009081526004602052604090205490565b6104566106a736600461551c565b61293c565b610378600081565b6103996106c236600461508f565b612960565b6103996129bc565b6103996129c8565b6103506106e5366004615497565b6001600160a01b03919091166000908152601d60209081526040808320938352929052205460ff1690565b61037861071e366004615176565b6000918252601f6020908152604080842092845291905290205490565b61037861074936600461581a565b6000928352600b602090815260408085209385529281528284206001600160a01b039290921684525290205490565b61035061078636600461584f565b61326e565b6103996132b7565b6104566107a136600461551c565b613562565b600154610378565b6103506107bc366004615895565b61361b565b6103996107cf3660046158ee565b613674565b6107e76107e2366004615176565b61392c565b60405161035c9190615947565b610456610802366004615117565b6139a0565b6103506108153660046150eb565b613a0a565b610378610828366004615117565b6001600160a01b031660009081526016602052604090205490565b6103996108513660046150eb565b613a76565b61035061086436600461508f565b613a92565b61035061087736600461595a565b613aa7565b61045661088a36600461584f565b613b02565b61037861089d36600461581a565b6000928352602080805260408085209385529281528284206001600160a01b039290921684525290205490565b600d54610378565b6103996108e036600461551c565b613c1e565b610378600080516020615e2583398151915281565b61035061090836600461599d565b6001600160a01b0383166000908152601e60209081526040808320858452825280832084845290915290205460ff169392505050565b61035061094c3660046150eb565b613c9a565b600e54610378565b610378610967366004615117565b613e15565b61037861097a36600461581a565b60009283526019602090815260408085209385529281528284206001600160a01b039290921684525290205490565b6109bc6109b736600461508f565b614853565b60405161035c91906159f4565b6103996148eb565b60006001600160e01b03198216637965db0b60e01b1480610a0257506301ffc9a760e01b6001600160e01b03198316145b92915050565b600080805b600084815260046020526040902054811015610a4b57610a2d8482611087565b610a379083615a3d565b915080610a4381615a50565b915050610a0d565b5092915050565b610a5b83613a92565b15610a9a5760405162461bcd60e51b815260206004820152600a60248201526918995d0818db1bdcd95960b21b60448201526064015b60405180910390fd5b600081118015610adb57506000838152601760205260409020805483908110610ac557610ac5615a69565b9060005260206000209060090201600401548111155b610b185760405162461bcd60e51b815260206004820152600e60248201526d1a5b9d985b1a5908185b5bdd5b9d60921b6044820152606401610a91565b6000838152601760205260409020805483908110610b3857610b38615a69565b600091825260209091206007600990920201015460ff1615610c265760008381526017602052604090208054610be991339185908110610b7a57610b7a615a69565b9060005260206000209060090201600801805480602002602001604051908101604052809291908181526020018280548015610bdf57602002820191906000526020600020905b81546001600160a01b03168152600190910190602001808311610bc1575b5050505050613aa7565b610c265760405162461bcd60e51b815260206004820152600e60248201526d1b9bdb88185d5d1a1bdc9a5e995960921b6044820152606401610a91565b6005546040516323b872dd60e01b81526001600160a01b03909116906323b872dd90610c5a90339030908690600401615a7f565b600060405180830381600087803b158015610c7457600080fd5b505af1158015610c88573d6000803e3d6000fd5b5050506000848152601760205260409020805483925084908110610cae57610cae615a69565b906000526020600020906009020160040154610cca9190615aa3565b6000848152601760205260409020805484908110610cea57610cea615a69565b600091825260208083206004600990930201919091019290925584815260198252604080822085835283528082203383529092529081208054839290610d31908490615a3d565b9091555050336000818152601b6020908152604080832080546001818101835591855283852001889055848452601c83528184208885528352908320805491820181558352912001839055610d8690826149b9565b505050565b60009081526020819052604090206001015490565b60009081526008602052604090205460ff1690565b610dbe82610d8b565b610dc781614a69565b610d868383614a73565b600080516020615e05833981519152610de981614a69565b506000908152600960205260409020805460ff19166001179055565b6001600160a01b0381163314610e755760405162461bcd60e51b815260206004820152602f60248201527f416363657373436f6e74726f6c3a2063616e206f6e6c792072656e6f756e636560448201526e103937b632b9903337b91039b2b63360891b6064820152608401610a91565b610e7f8282614af7565b5050565b600080516020615de5833981519152610e9b81614a69565b50600d55565b6000908152600c602052604090205490565b6001600160a01b038116600090815260106020908152604091829020805483518184028101840190945280845260609392830182828015610f1357602002820191906000526020600020905b815481526020019060010190808311610eff575b50505050509050919050565b6005805473243f13935a8a855715c1e06d5dc6f0650354a1f56001600160a01b0319918216811790925560068054738bc9b949d39d0136ea98cf3af5d770391e76d99990831681178255601480548416909417909355601580549092169092179055600d5560006001819055600e55610fa6600080516020615de583398151915233614b5c565b610fca604051806040016040528060018152602001600360fc1b8152506000612381565b610fe2600080516020615de583398151915233610e05565b61100e600080516020615de5833981519152736d3dccf2c028766d26a5382fce9d898e75e6d629614b5c565b61103a600080516020615e05833981519152731deecf77dd59a35c9f68cf507d79ddbd8524fa65614b5c565b611066600080516020615e25833981519152733fd296730ce65e00218f44175cf8aca4ddd7e993614b5c565b6110856000730bd3d64a172b0057f83ab82774b18fc04ffa002c614b5c565b565b6000918252600a6020908152604080842092845291905290205490565b6001546110b2906001615a3d565b83106110f45760405162461bcd60e51b815260206004820152601160248201527018995d08191bd95cdb89dd08195e1a5cdd607a1b6044820152606401610a91565b6110fd83613a92565b156111385760405162461bcd60e51b815260206004820152600b60248201526a18995d08195e1c1a5c995960aa1b6044820152606401610a91565b6005546040516323b872dd60e01b81526001600160a01b03909116906323b872dd9061116c90339030908a90600401615a7f565b600060405180830381600087803b15801561118657600080fd5b505af115801561119a573d6000803e3d6000fd5b50506006546040516323b872dd60e01b81526001600160a01b0390911692506323b872dd91506111d290339030908a90600401615a7f565b600060405180830381600087803b1580156111ec57600080fd5b505af1158015611200573d6000803e3d6000fd5b5050505060008082511115611213575060015b600084815260176020908152604080832081516101208101835260188452828520548152338185019081529281018b8152606082018b8152608083018c815260a084018c815260c085018c81528a151560e0870190815261010087018d8152885460018082018b55998d529b8b902088516009909d02019b8c559851978b0180546001600160a01b0319166001600160a01b0390991698909817909755935160028a015591516003890155516004880155516005870155516006860155905160078501805460ff1916911515919091179055905180519193926112fe92600885019290910190614fcd565b5050336000818152601b60209081526040808320805460018181018355918552838520018a9055938352601c8252808320898452825280832060188352908320805482549586018355918452918320909301929092558681528154925061136483615a50565b9190505550505050505050565b6000805b8251811015611417578351835184908390811061139457611394615a69565b60200260200101516000600281106113ae576113ae615a69565b60200201511480156113f6575083600160200201518382815181106113d5576113d5615a69565b60200260200101516001600281106113ef576113ef615a69565b6020020151145b15611405576001915050610a02565b8061140f81615a50565b915050611375565b5060009392505050565b60008060008060008060008060606000601760008d81526020019081526020016000208b8154811061145557611455615a69565b6000918252602091829020604080516101208101825260099093029091018054835260018101546001600160a01b0316838501526002810154838301526003810154606084015260048101546080840152600581015460a0840152600681015460c0840152600781015460ff16151560e0840152600881018054835181870281018701909452808452939491936101008601939283018282801561152257602002820191906000526020600020905b81546001600160a01b03168152600190910190602001808311611504575b5050505050815250509050806000015181602001518260400151836060015184608001518560a001518660c001518760e00151886101000151995099509950995099509950995099509950509295985092959850929598565b6001600160a01b0382166000908152601c602090815260408083208484528252918290208054835181840281018401909452808452606093928301828280156115e357602002820191906000526020600020905b8154815260200190600101908083116115cf575b5050505050905092915050565b600080805b8351811015610a4b5783828151811061161057611610615a69565b602002602001015184828151811061162a5761162a615a69565b6020026020010151101561163c578091505b8061164681615a50565b9150506115f5565b600061165a8383613c9a565b61166657506000610a02565b60008381526009602052604090205460ff1615156001036116ec576000805b6000858152600460205260409020548110156116e4576000858152600b6020908152604080832084845282528083206001600160a01b03881684529091529020546116d09083615a3d565b9150806116dc81615a50565b915050611685565b509050610a02565b6000838152600b60209081526040808320600c8352818420548085529083528184206001600160a01b03871680865281855283862054898752600a8652848720938752928552838620548987526011865293862054955290925290916117529083615ab6565b61175c9190615ae3565b6117669190615a3d565b9392505050565b60008381526007602052604090205460ff16156117b85760405162461bcd60e51b815260206004820152600960248201526818995d18db1bdcd95960ba1b6044820152606401610a91565b60008381526008602052604090205460ff16156118015760405162461bcd60e51b815260206004820152600760248201526618995d1919585960ca1b6044820152606401610a91565b8060000361183c5760405162461bcd60e51b81526020600482015260086024820152670616d6f756e743c360c41b6044820152606401610a91565b60008381526004602052604090205482106118895760405162461bcd60e51b815260206004820152600d60248201526c34b73b30b634b237b83a34b7b760991b6044820152606401610a91565b6005546040516323b872dd60e01b81526001600160a01b03909116906323b872dd906118bd90339030908690600401615a7f565b600060405180830381600087803b1580156118d757600080fd5b505af11580156118eb573d6000803e3d6000fd5b505050600084815260208080526040808320868452825280832033845290915290205461191a91508290615a3d565b60008481526020808052604080832086845282528083203380855290835281842094909455868352600b825280832086845282528083209383529290522054611964908290615a3d565b6000848152600b602090815260408083208684528252808320338452825280832093909355858252600a8152828220858352905220546119a5908290615a3d565b6000848152600a6020908152604080832086845290915290208190556119cc908290615a3d565b6000848152601f6020908152604080832086845282528083209390935533825260108152908290208054835181840281018401909452808452611a4893879390929190830182828015611a3e57602002820191906000526020600020905b815481526020019060010190808311611a2a575b505050505061326e565b1515600003611a7457336000908152601060209081526040822080546001810182559083529120018390555b6000838152600a602090815260408083208584529091528120549080805b600087815260046020526040902054811015611ae857858114611ad6576000878152600a60209081526040808320848452909152902054611ad39084615a3d565b92505b80611ae081615a50565b915050611a92565b5081600003611b0357611afc846014615ab6565b9050611b38565b6064611b0f8484615ae3565b1115611b2057611afc846064615ab6565b82611b2b8386615ab6565b611b359190615ae3565b90505b611b4233826149b9565b8386336001600160a01b03167ff026656bd9477c576b0b7c57baf780817437747e0b9a7d37fd4241e673edbf8288604051611b7f91815260200190565b60405180910390a4505050505050565b600080611b9d600284615af7565b905080600003611bb05750600192915050565b50600092915050565b50919050565b6000611bca82610da0565b611bd657506000919050565b5060009081526011602052604090205490565b919050565b600080516020615e05833981519152611c0681614a69565b60008381526007602052604090205460ff16611c4e5760405162461bcd60e51b81526020600482015260076024820152663132ba37b832b760c91b6044820152606401610a91565b600083815260046020526040902054821115611c9c5760405162461bcd60e51b815260206004820152600d60248201526c34b73b30b634b23bb4b73732b960991b6044820152606401610a91565b6000838152600860209081526040808320805460ff19166001179055600c9091528120839055805b600085815260046020526040902054811015611d78576000848214611d6557600d546000878152600a60209081526040808320868452909152902054606491611d0c91615ab6565b611d169190615ae3565b9050611d228184615a3d565b6000878152600a60209081526040808320868452909152902054909350611d4a908290615aa3565b6000878152600a602090815260408083208684529091529020555b5080611d7081615a50565b915050611cc4565b5080600e54611d879190615a3d565b600e55611d9384614b66565b600085815260116020908152604080832093909355600a8152828220868352815282822054878352601290915291902055611dcd84614b66565b60008581526013602052604080822092909255905184918691600080516020615e458339815191529190a350505050565b60008381526008602052604081205460ff16158015611e2c575060008481526009602052604090205460ff16155b80611eae57506000848152601a602090815260408083208584528252918290208054835181840281018401909452808452611ea893879390929190830182828015610bdf576020028201919060005260206000209081546001600160a01b03168152600190910190602001808311610bc1575050505050613aa7565b15156001145b15611ebb57506000611766565b60008481526009602052604090205460ff161515600103611eeb57611ee482610786858761157b565b9050611766565b611ef484610ea1565b6000858152601760205260409020805484908110611f1457611f14615a69565b906000526020600020906009020160060154148015611f795750600084815260176020526040902080546001600160a01b038516919084908110611f5a57611f5a615a69565b60009182526020909120600160099092020101546001600160a01b0316145b15611f8657506001611766565b611f8f84610ea1565b6000858152601760205260409020805484908110611faf57611faf615a69565b906000526020600020906009020160060154141580156120165750600084815260176020526040902080546001600160a01b038516919084908110611ff657611ff6615a69565b60009182526020909120600160099092020101546001600160a01b031614155b801561202b575061202b82610786858761157b565b1561141757506001611766565b600060038260405161204a9190615b0b565b9081526020016040518091039020549050919050565b606060176000838152602001908152602001600020805480602002602001604051908101604052809291908181526020016000905b828210156121815760008481526020908190206040805161012081018252600986029092018054835260018101546001600160a01b0316838501526002810154838301526003810154606084015260048101546080840152600581015460a0840152600681015460c0840152600781015460ff16151560e0840152600881018054835181870281018701909452808452939491936101008601939283018282801561216957602002820191906000526020600020905b81546001600160a01b0316815260019091019060200180831161214b575b50505050508152505081526020019060010190612095565b505050509050919050565b60008060015b6000868152601760205260409020548110156123785760008681526017602052604090208054839081106121c8576121c8615a69565b9060005260206000209060090201600301546017600088815260200190815260200160002083815481106121fe576121fe615a69565b90600052602060002090600902016002015461271061221d9190615ab6565b6122279190615ae3565b600087815260176020526040902080548390811061224757612247615a69565b90600052602060002090600902016003015460176000898152602001908152602001600020838154811061227d5761227d615a69565b90600052602060002090600902016002015461271061229c9190615ab6565b6122a69190615ae3565b1180156122e5575060008681526017602052604090208054869190839081106122d1576122d1615a69565b906000526020600020906009020160060154145b80156123225750600086815260176020526040902080548290811061230c5761230c615a69565b9060005260206000209060090201600401548411155b801561235d5750600086815260176020526040812080548390811061234957612349615a69565b906000526020600020906009020160040154115b15612366578091505b8061237081615a50565b915050612192565b50949350505050565b600080516020615de583398151915261239981614a69565b6003836040516123a99190615b0b565b9081526020016040518091039020546000146123ff5760405162461bcd60e51b81526020600482015260156024820152741bdb994818995d08185b1c9958591e48195e1a5cdd605a1b6044820152606401610a91565b600154600090815260026020526040902061241a8482615ba1565b5060015460038460405161242e9190615b0b565b908152604080516020928190038301812093909355600154600090815260049092529020839055612460908490615b0b565b6040519081900381206001549091600080516020615dc583398151915290600090a360606124956000600180546000856110a4565b600180546124a291615a3d565b60015550505050565b6001600160a01b038116600090815260106020526040812054606091906001600160401b038111156124df576124df615198565b604051908082528060200260200182016040528015612508578160200160208202803683370190505b50905060005b6001600160a01b038416600090815260106020526040902054811015610a4b576001600160a01b0384166000908152601060205260409020805461256e91908390811061255d5761255d615a69565b906000526020600020015485613c9a565b156125cb576001600160a01b038416600090815260106020526040902080548290811061259d5761259d615a69565b90600052602060002001548282815181106125ba576125ba615a69565b6020026020010181815250506125ec565b60008282815181106125df576125df615a69565b6020026020010181815250505b806125f681615a50565b91505061250e565b600080516020615de583398151915261261681614a69565b60005b828110156127c857600385828151811061263557612635615a69565b602002602001015160405161264a9190615b0b565b90815260200160405180910390205460001461269c5760405162461bcd60e51b815260206004820152601160248201527018995d08185b1c9958591e48195e1a5cdd607a1b6044820152606401610a91565b8481815181106126ae576126ae615a69565b602002602001015160026000600154815260200190815260200160002090816126d79190615ba1565b5060015460038683815181106126ef576126ef615a69565b60200260200101516040516127049190615b0b565b90815260200160405180910390208190555083818151811061272857612728615a69565b60200260200101516004600060015481526020019081526020016000208190555084818151811061275b5761275b615a69565b60200260200101516040516127709190615b0b565b6040519081900381206001549091600080516020615dc583398151915290600090a360606127a56000600180546000856110a4565b600180546127b291615a3d565b60015550806127c081615a50565b915050612619565b5050505050565b6000838152600a60209081526040808320858452909152812054819081036127fb576000915050611766565b6000858152600a60209081526040808320878452825280832054888452600b835281842088855283528184206001600160a01b038816855290925290912054612845906064615ab6565b61284f9190615ae3565b95945050505050565b600080805b8351811015610a4b5783818151811061287857612878615a69565b6020026020010151600003612895578061289181615a50565b9150505b8061289f81615a50565b91505061285d565b6000918252602082815260408084206001600160a01b0393909316845291905290205460ff1690565b600080806128dd846124ab565b905060005b81518110156129335760008282815181106128ff576128ff615a69565b60200260200101519050612913818761164e565b61291d9085615a3d565b935050808061292b90615a50565b9150506128e2565b50909392505050565b6060612957826000600185516129529190615aa3565b614c15565b610a0282613562565b600080516020615de583398151915261297881614a69565b600082815260076020526040808220805460ff191660011790555183917f2e0e9b40234193c73f072420041b96bc4ea156c24a1afc4c8549f43879bdf98891a25050565b6129c46132b7565b6110855b6000805b336000908152601b602052604090205481101561325a57336000908152601b60205260408120805483908110612a0457612a04615a69565b90600052602060002001549050612a1a81610da0565b156130045760005b336000908152601c6020908152604080832085845290915290205481101561300257336000908152601c602090815260408083208584529091528120805483908110612a7057612a70615a69565b6000918252602080832090910154858352601a825260408084208285528352928390208054845181850281018501909552808552919450612af1933393909290830182828015610bdf576020028201919060005260206000209081546001600160a01b03168152600190910190602001808311610bc1575050505050613aa7565b612fef576000838152601760205260409020805482908110612b1557612b15615a69565b60009182526020909120600990910201600101546001600160a01b031633148015612b7857506000838152601760205260409020805482908110612b5b57612b5b615a69565b906000526020600020906009020160060154612b7684610ea1565b145b15612ca0576000838152601a60209081526040808320848452825280832080546001810182559084528284200180546001600160a01b0319163317905585835260179091528120805483908110612bd157612bd1615a69565b906000526020600020906009020160020154601760008681526020019081526020016000208381548110612c0757612c07615a69565b906000526020600020906009020160040154601760008781526020019081526020016000208481548110612c3d57612c3d615a69565b906000526020600020906009020160030154612c599190615aa3565b612c639190615a3d565b9050612c6f8187615a3d565b336000908152601e6020908152604080832088845282528083208684529091529020805460ff191660011790559550505b6000838152601760205260409020805482908110612cc057612cc0615a69565b60009182526020909120600990910201600101546001600160a01b031633148015612d2457506000838152601760205260409020805482908110612d0657612d06615a69565b906000526020600020906009020160060154612d2184610ea1565b14155b15612e49576000838152601a60209081526040808320848452825280832080546001810182559084528284200180546001600160a01b0319163317905585835260179091528120805483908110612d7d57612d7d615a69565b906000526020600020906009020160030154601760008681526020019081526020016000208381548110612db357612db3615a69565b906000526020600020906009020160040154601760008781526020019081526020016000208481548110612de957612de9615a69565b906000526020600020906009020160020154612e059190615ab6565b612e0f9190615ae3565b9050612e1b8187615a3d565b336000908152601e6020908152604080832088845282528083208684529091529020805460ff191690559550505b6000838152601960209081526040808320848452825280832033845290915290205415801590612eb257506000838152601760205260409020805482908110612e9457612e94615a69565b906000526020600020906009020160060154612eaf84610ea1565b14155b15612fef576000838152601a60209081526040808320848452825280832080546001810182559084528284200180546001600160a01b0319163317905585835260179091528120805483908110612f0b57612f0b615a69565b60009182526020808320600260099093020191909101548683526019825260408084208685528352808420338552909252912054612f499190615ab6565b6000858152601960209081526040808320868452825280832033845282528083205488845260179092529091208054929350909184908110612f8d57612f8d615a69565b90600052602060002090600902016003015482612faa9190615ae3565b612fb49190615a3d565b612fbe9087615a3d565b336000908152601e6020908152604080832088845282528083208684529091529020805460ff191660011790559550505b5080612ffa81615a50565b915050612a22565b505b60008181526009602052604090205460ff16156132475760005b336000908152601c6020908152604080832085845290915290205481101561324557336000908152601c60209081526040808320858452909152812080548390811061306c5761306c615a69565b6000918252602080832090910154858352601a8252604080842082855283529283902080548451818502810185019095528085529194506130ed933393909290830182828015610bdf576020028201919060005260206000209081546001600160a01b03168152600190910190602001808311610bc1575050505050613aa7565b61323257600083815260176020526040902080548290811061311157613111615a69565b60009182526020909120600160099092020101546001600160a01b031633036131a8576000838152601a60209081526040808320848452825280832080546001810182559084528284200180546001600160a01b031916331790558583526017909152902080548290811061318857613188615a69565b906000526020600020906009020160020154856131a59190615a3d565b94505b6000838152601960209081526040808320848452825280832033845290915290205415613232576000838152601a60209081526040808320848452825280832080546001810182559084528284200180546001600160a01b0319163390811790915586845260198352818420858552835281842090845290915290205461322f9086615a3d565b94505b508061323d81615a50565b91505061301e565b505b508061325281615a50565b9150506129cc565b50801561326b5761326b3382614d95565b50565b6000805b8251811015611417578383828151811061328e5761328e615a69565b6020026020010151036132a5576001915050610a02565b806132af81615a50565b915050613272565b6000805b336000908152601060205260409020548110156135575760006132dd336124ab565b82815181106132ee576132ee615a69565b6020026020010151905080600014613544576000818152600f6020908152604080832080546001810182559084528284200180546001600160a01b03191633179055838352600990915281205460ff16156133c45760005b6000838152600460205260409020548110156133be576000838152600b6020908152604080832084845282528083203384529091529020546133889083615a3d565b6000848152600b6020908152604080832085845282528083203384529091528120559150806133b681615a50565b915050613346565b50613536565b6000828152600b60209081526040808320600c83528184205484528252808320338452909152812054801561341957336000908152601d602090815260408083208784529091529020805460ff191660011790555b6000848152600b60209081526040808320600c8352818420805485529083528184203385528352818420849055878452600a8352818420905484529091529020546134648282615aa3565b6000868152600a60209081526040808320600c8352818420548452825280832093909355878252601190522054819061349d9084615ab6565b6134a79190615ae3565b92506134b38284615a3d565b6000868152601160205260409020549094506134d0908490615aa3565b600086815260116020908152604080832093909355601281528282205460139091529190205461350490633b9aca00615ab6565b61350e9190615ae3565b336000908152601660205260408120805490919061352d908490615a3d565b90915550505050505b6135408185615a3d565b9350505b508061354f81615a50565b9150506132bb565b5061326b3382614d95565b6060600082516001600160401b0381111561357f5761357f615198565b6040519080825280602002602001820160405280156135a8578160200160208202803683370190505b5083519091506000905b8015612933578482815181106135ca576135ca615a69565b6020026020010151836001836135e09190615aa3565b815181106135f0576135f0615a69565b60209081029190910101528161360581615a50565b925050808061361390615c60565b9150506135b2565b60008160405160200161362e9190615b0b565b60405160208183030381529060405280519060200120836040516020016136559190615b0b565b6040516020818303038152906040528051906020012014905092915050565b600080516020615e0583398151915261368c81614a69565b81518351146136d85760405162461bcd60e51b81526020600482015260186024820152776e6f7473616d65616d6f756e746265747377696e6e65727360401b6044820152606401610a91565b60005b83518110156139265760008482815181106136f8576136f8615a69565b6020908102919091018101516000818152600790925260409091205490915060ff16151560011480156137535750600081815260046020526040902054845185908490811061374957613749615a69565b6020026020010151105b15613913576000818152600860205260409020805460ff19166001179055835184908390811061378557613785615a69565b6020908102919091018101516000838152600c9092526040822055805b60008381526004602052604090205481101561386f5760008685815181106137cc576137cc615a69565b6020026020010151821461385c57600d546000858152600a6020908152604080832086845290915290205460649161380391615ab6565b61380d9190615ae3565b90506138198184615a3d565b6000858152600a60209081526040808320868452909152902054909350613841908290615aa3565b6000858152600a602090815260408083208684529091529020555b508061386781615a50565b9150506137a2565b5080600e5461387e9190615a3d565b600e5561388a82614b66565b600083815260116020908152604080832093909355600a8152828220600c82528383205483528152828220548583526012909152919020556138cb82614b66565b60008381526013602052604090205584518590849081106138ee576138ee615a69565b602002602001015182600080516020615e4583398151915260405160405180910390a3505b508061391e81615a50565b9150506136db565b50505050565b6000828152601a602090815260408083208484528252918290208054835181840281018401909452808452606093928301828280156115e357602002820191906000526020600020905b81546001600160a01b03168152600190910190602001808311613976575050505050905092915050565b6001600160a01b0381166000908152601b6020908152604091829020805483518184028101840190945280845260609392830182828015610f135760200282019190600052602060002090815481526020019060010190808311610eff5750505050509050919050565b6000828152600f602090815260408083208054825181850281018501909352808352611766938693929190830182828015610bdf576020028201919060005260206000209081546001600160a01b03168152600190910190602001808311610bc1575050505050613aa7565b613a7f82610d8b565b613a8881614a69565b610d868383614af7565b60009081526007602052604090205460ff1690565b6000805b825181101561141757836001600160a01b0316838281518110613ad057613ad0615a69565b60200260200101516001600160a01b031603613af0576001915050610a02565b80613afa81615a50565b915050613aab565b6060600060018351613b149190615aa3565b6001600160401b03811115613b2b57613b2b615198565b604051908082528060200260200182016040528015613b54578160200160208202803683370190505b50905060005b84811015613bab57838181518110613b7457613b74615a69565b6020026020010151828281518110613b8e57613b8e615a69565b602090810291909101015280613ba381615a50565b915050613b5a565b50835b60018451613bbc9190615aa3565b811015613c165783613bcf826001615a3d565b81518110613bdf57613bdf615a69565b6020026020010151828281518110613bf957613bf9615a69565b602090810291909101015280613c0e81615a50565b915050613bae565b509392505050565b600080516020615de5833981519152613c3681614a69565b60005b8251811015610d8657600160076000858481518110613c5a57613c5a615a69565b6020026020010151815260200190815260200160002060006101000a81548160ff0219169083151502179055508080613c9290615a50565b915050613c39565b60008281526008602052604081205460ff16158015613cc8575060008381526009602052604090205460ff16155b15613cd557506000610a02565b60008381526009602052604090205460ff161515600103613d5f5760005b600084815260046020526040902054811015613d55576000848152600b6020908152604080832084845282528083206001600160a01b038716845290915290205415613d43576001915050610a02565b80613d4d81615a50565b915050613cf3565b5060009050610a02565b6000838152600b60209081526040808320600c835281842054845282528083206001600160a01b0386168452909152902054158015906117665750613e0d82600f6000868152602001908152602001600020805480602002602001604051908101604052809291908181526020018280548015610bdf576020028201919060005260206000209081546001600160a01b03168152600190910190602001808311610bc1575050505050613aa7565b159392505050565b60008080613e22846139a0565b5190506000806000836001600160401b03811115613e4257613e42615198565b604051908082528060200260200182016040528015613e7b57816020015b613e68615032565b815260200190600190039081613e605790505b50905060005b84811015613ece57604051806040016040528084815260200184815250828281518110613eb057613eb0615a69565b60200260200101819052508080613ec690615a50565b915050613e81565b5060005b6001600160a01b0388166000908152601b6020526040902054811015614847576001600160a01b0388166000908152601b60205260408120805483908110613f1c57613f1c615a69565b90600052602060002001549050613f3281610da0565b156145685760005b6001600160a01b038a166000908152601c60209081526040808320858452909152902054811015614566576001600160a01b038a166000908152601c602090815260408083208584529091528120805483908110613f9a57613f9a615a69565b6000918252602080832090910154858352601a82526040808420828552835292839020805484518185028101850190955280855291945061401b938f93909290830182828015610bdf576020028201919060005260206000209081546001600160a01b03168152600190910190602001808311610bc1575050505050613aa7565b158015614043575061404160405180604001604052808581526020018381525086611371565b155b1561455357600083815260176020526040902080548290811061406857614068615a69565b60009182526020909120600160099092020101546001600160a01b038c811691161480156140ce575060008381526017602052604090208054829081106140b1576140b1615a69565b9060005260206000209060090201600601546140cc84610ea1565b145b156141db576040518060400160405280848152602001828152508588815181106140fa576140fa615a69565b6020026020010181905250868061411090615a50565b975050600060176000858152602001908152602001600020828154811061413957614139615a69565b90600052602060002090600902016002015460176000868152602001908152602001600020838154811061416f5761416f615a69565b9060005260206000209060090201600401546017600087815260200190815260200160002084815481106141a5576141a5615a69565b9060005260206000209060090201600301546141c19190615aa3565b6141cb9190615a3d565b90506141d7818b615a3d565b9950505b60008381526017602052604090208054829081106141fb576141fb615a69565b60009182526020909120600160099092020101546001600160a01b038c811691161480156142625750600083815260176020526040902080548290811061424457614244615a69565b90600052602060002090600902016006015461425f84610ea1565b14155b1561436f5760405180604001604052808481526020018281525085888151811061428e5761428e615a69565b602002602001018190525086806142a490615a50565b97505060006017600085815260200190815260200160002082815481106142cd576142cd615a69565b90600052602060002090600902016003015460176000868152602001908152602001600020838154811061430357614303615a69565b90600052602060002090600902016004015460176000878152602001908152602001600020848154811061433957614339615a69565b9060005260206000209060090201600201546143559190615ab6565b61435f9190615ae3565b905061436b818b615a3d565b9950505b600083815260196020908152604080832084845282528083206001600160a01b038f168452909152902054158015906143e1575060008381526017602052604090208054829081106143c3576143c3615a69565b9060005260206000209060090201600601546143de84610ea1565b14155b156145535760405180604001604052808481526020018281525085888151811061440d5761440d615a69565b6020026020010181905250868061442390615a50565b975050600060176000858152602001908152602001600020828154811061444c5761444c615a69565b90600052602060002090600902016002015460196000868152602001908152602001600020600084815260200190815260200160002060008e6001600160a01b03166001600160a01b03168152602001908152602001600020546144b09190615ab6565b905060196000858152602001908152602001600020600083815260200190815260200160002060008d6001600160a01b03166001600160a01b031681526020019081526020016000205460176000868152602001908152602001600020838154811061451e5761451e615a69565b9060005260206000209060090201600301548261453b9190615ae3565b6145459190615a3d565b61454f908b615a3d565b9950505b508061455e81615a50565b915050613f3a565b505b60008181526009602052604090205460ff16156148345760005b6001600160a01b038a166000908152601c60209081526040808320858452909152902054811015614832576001600160a01b038a166000908152601c6020908152604080832085845290915281208054839081106145e2576145e2615a69565b6000918252602080832090910154858352601a825260408084208285528352928390208054845181850281018501909552808552919450614663938f93909290830182828015610bdf576020028201919060005260206000209081546001600160a01b03168152600190910190602001808311610bc1575050505050613aa7565b15801561468b575061468960405180604001604052808581526020018381525086611371565b155b1561481f5760008381526017602052604090208054829081106146b0576146b0615a69565b60009182526020909120600160099092020101546001600160a01b03908116908c1603614759576040518060400160405280848152602001828152508588815181106146fe576146fe615a69565b6020026020010181905250868061471490615a50565b6000858152601760205260409020805491995091508290811061473957614739615a69565b906000526020600020906009020160020154896147569190615a3d565b98505b600083815260196020908152604080832084845282528083206001600160a01b038f1684529091529020541561481f576040518060400160405280848152602001828152508588815181106147b0576147b0615a69565b602002602001018190525086806147c690615a50565b97505060196000848152602001908152602001600020600082815260200190815260200160002060008c6001600160a01b03166001600160a01b03168152602001908152602001600020548961481c9190615a3d565b98505b508061482a81615a50565b915050614582565b505b508061483f81615a50565b915050613ed2565b50939695505050505050565b600081815260026020526040902080546060919061487090615b27565b80601f016020809104026020016040519081016040528092919081815260200182805461489c90615b27565b8015610f135780601f106148be57610100808354040283529160200191610f13565b820191906000526020600020905b8154815290600101906020018083116148cc5750939695505050505050565b600554600e5460405163a9059cbb60e01b815273f89ca523f78c323a950c6cf2e997c1bed13a7cde926001600160a01b03169163a9059cbb91614932918591600401615c77565b6020604051808303816000875af1158015614951573d6000803e3d6000fd5b505050506040513d601f19601f820116820180604052508101906149759190615c90565b507fc38ee457f9f4fb5fd6c7b2b8b3173e48924e9625be2b0d01fc7dd98b6548dfc2600e546040516149a991815260200190565b60405180910390a1506000600e55565b60065460405163a9059cbb60e01b81526001600160a01b039091169063a9059cbb906149eb9085908590600401615c77565b6020604051808303816000875af1158015614a0a573d6000803e3d6000fd5b505050506040513d601f19601f82011682018060405250810190614a2e9190615c90565b5060405181906001600160a01b038416907f67a09c23c04687b083f6e04b4fd9aa1a7dad9797eb4d30766fb4e938d02fda5490600090a35050565b61326b8133614dc7565b614a7d82826128a7565b610e7f576000828152602081815260408083206001600160a01b03851684529091529020805460ff19166001179055614ab33390565b6001600160a01b0316816001600160a01b0316837f2f8788117e7eff1d82e926ec794901d17c78024a50270940304540a733656f0d60405160405180910390a45050565b614b0182826128a7565b15610e7f576000828152602081815260408083206001600160a01b0385168085529252808320805460ff1916905551339285917ff6391f5c32d9c69d2a47ea670b442974b53935d1edc7fd64eb21e047a839171b9190a45050565b610e7f8282614a73565b60008181526008602052604081205460ff16614bad5760405162461bcd60e51b815260206004820152600660248201526562657469766560d01b6044820152606401610a91565b6000805b600084815260046020526040902054811015610a4b576000848152600c60205260409020548114614c03576000848152600a60209081526040808320848452909152902054614c009083615a3d565b91505b80614c0d81615a50565b915050614bb1565b8181808203614c25575050505050565b6000856002614c348787615cb2565b614c3e9190615cd2565b614c489087615d00565b81518110614c5857614c58615a69565b602002602001015190505b818313614d67575b80868481518110614c7e57614c7e615a69565b60200260200101511015614c9e5782614c9681615d28565b935050614c6b565b858281518110614cb057614cb0615a69565b6020026020010151811015614cd15781614cc981615d40565b925050614c9e565b818313614d6257858281518110614cea57614cea615a69565b6020026020010151868481518110614d0457614d04615a69565b6020026020010151878581518110614d1e57614d1e615a69565b60200260200101888581518110614d3757614d37615a69565b60209081029190910101919091525282614d5081615d28565b9350508180614d5e90615d40565b9250505b614c63565b81851215614d7a57614d7a868684614c15565b83831215614d8d57614d8d868486614c15565b505050505050565b60055460405163a9059cbb60e01b81526001600160a01b039091169063a9059cbb906149eb9085908590600401615c77565b614dd182826128a7565b610e7f57614dde81614e20565b614de9836020614e32565b604051602001614dfa929190615d55565b60408051601f198184030181529082905262461bcd60e51b8252610a91916004016159f4565b6060610a026001600160a01b03831660145b60606000614e41836002615ab6565b614e4c906002615a3d565b6001600160401b03811115614e6357614e63615198565b6040519080825280601f01601f191660200182016040528015614e8d576020820181803683370190505b509050600360fc1b81600081518110614ea857614ea8615a69565b60200101906001600160f81b031916908160001a905350600f60fb1b81600181518110614ed757614ed7615a69565b60200101906001600160f81b031916908160001a9053506000614efb846002615ab6565b614f06906001615a3d565b90505b6001811115614f7e576f181899199a1a9b1b9c1cb0b131b232b360811b85600f1660108110614f3a57614f3a615a69565b1a60f81b828281518110614f5057614f50615a69565b60200101906001600160f81b031916908160001a90535060049490941c93614f7781615c60565b9050614f09565b5083156117665760405162461bcd60e51b815260206004820181905260248201527f537472696e67733a20686578206c656e67746820696e73756666696369656e746044820152606401610a91565b828054828255906000526020600020908101928215615022579160200282015b8281111561502257825182546001600160a01b0319166001600160a01b03909116178255602090920191600190910190614fed565b5061502e929150615050565b5090565b60405180604001604052806002906020820280368337509192915050565b5b8082111561502e5760008155600101615051565b60006020828403121561507757600080fd5b81356001600160e01b03198116811461176657600080fd5b6000602082840312156150a157600080fd5b5035919050565b6000806000606084860312156150bd57600080fd5b505081359360208301359350604090920135919050565b80356001600160a01b0381168114611be957600080fd5b600080604083850312156150fe57600080fd5b8235915061510e602084016150d4565b90509250929050565b60006020828403121561512957600080fd5b611766826150d4565b6020808252825182820181905260009190848201906040850190845b8181101561516a5783518352928401929184019160010161514e565b50909695505050505050565b6000806040838503121561518957600080fd5b50508035926020909101359150565b634e487b7160e01b600052604160045260246000fd5b604051601f8201601f191681016001600160401b03811182821017156151d6576151d6615198565b604052919050565b60006001600160401b038211156151f7576151f7615198565b5060051b60200190565b600082601f83011261521257600080fd5b81356020615227615222836151de565b6151ae565b82815260059290921b8401810191818101908684111561524657600080fd5b8286015b848110156152685761525b816150d4565b835291830191830161524a565b509695505050505050565b600080600080600060a0868803121561528b57600080fd5b8535945060208601359350604086013592506060860135915060808601356001600160401b038111156152bd57600080fd5b6152c988828901615201565b9150509295509295909350565b600082601f8301126152e757600080fd5b604080519081016001600160401b038111828210171561530957615309615198565b806040525080604084018581111561532057600080fd5b845b8181101561533a578035835260209283019201615322565b509195945050505050565b6000806060838503121561535857600080fd5b61536284846152d6565b91506040838101356001600160401b0381111561537e57600080fd5b8401601f8101861361538f57600080fd5b8035602061539f615222836151de565b82815260069290921b830181019181810190898411156153be57600080fd5b938201935b838510156153e4576153d58a866152d6565b825293850193908201906153c3565b8096505050505050509250929050565b600081518084526020808501945080840160005b8381101561542d5781516001600160a01b031687529582019590820190600101615408565b509495945050505050565b60006101208b835260018060a01b038b1660208401528960408401528860608401528760808401528660a08401528560c084015284151560e084015280610100840152615487818401856153f4565b9c9b505050505050505050505050565b600080604083850312156154aa57600080fd5b6154b3836150d4565b946020939093013593505050565b600082601f8301126154d257600080fd5b813560206154e2615222836151de565b82815260059290921b8401810191818101908684111561550157600080fd5b8286015b848110156152685780358352918301918301615505565b60006020828403121561552e57600080fd5b81356001600160401b0381111561554457600080fd5b615550848285016154c1565b949350505050565b60008060006060848603121561556d57600080fd5b8335925061557d602085016150d4565b9150604084013590509250925092565b600082601f83011261559e57600080fd5b81356001600160401b038111156155b7576155b7615198565b6155ca601f8201601f19166020016151ae565b8181528460208386010111156155df57600080fd5b816020850160208301376000918101602001919091529392505050565b60006020828403121561560e57600080fd5b81356001600160401b0381111561562457600080fd5b6155508482850161558d565b60006020808301818452808551808352604092508286019150828160051b87010184880160005b838110156156ec57603f19898403018552815180518452878101516001600160a01b0316888501528681015187850152606080820151908501526080808201519085015260a0808201519085015260c0808201519085015260e08082015115159085015261010090810151610120918501829052906156d8818601836153f4565b968901969450505090860190600101615657565b509098975050505050505050565b6000806040838503121561570d57600080fd5b82356001600160401b0381111561572357600080fd5b61572f8582860161558d565b95602094909401359450505050565b60008060006060848603121561575357600080fd5b83356001600160401b038082111561576a57600080fd5b818601915086601f83011261577e57600080fd5b8135602061578e615222836151de565b82815260059290921b8401810191818101908a8411156157ad57600080fd5b8286015b848110156157e5578035868111156157c95760008081fd5b6157d78d86838b010161558d565b8452509183019183016157b1565b50975050870135925050808211156157fc57600080fd5b50615809868287016154c1565b925050604084013590509250925092565b60008060006060848603121561582f57600080fd5b8335925060208401359150615846604085016150d4565b90509250925092565b6000806040838503121561586257600080fd5b8235915060208301356001600160401b0381111561587f57600080fd5b61588b858286016154c1565b9150509250929050565b600080604083850312156158a857600080fd5b82356001600160401b03808211156158bf57600080fd5b6158cb8683870161558d565b935060208501359150808211156158e157600080fd5b5061588b8582860161558d565b6000806040838503121561590157600080fd5b82356001600160401b038082111561591857600080fd5b615924868387016154c1565b9350602085013591508082111561593a57600080fd5b5061588b858286016154c1565b60208152600061176660208301846153f4565b6000806040838503121561596d57600080fd5b615976836150d4565b915060208301356001600160401b0381111561599157600080fd5b61588b85828601615201565b6000806000606084860312156159b257600080fd5b6159bb846150d4565b95602085013595506040909401359392505050565b60005b838110156159eb5781810151838201526020016159d3565b50506000910152565b6020815260008251806020840152615a138160408501602087016159d0565b601f01601f19169190910160400192915050565b634e487b7160e01b600052601160045260246000fd5b80820180821115610a0257610a02615a27565b600060018201615a6257615a62615a27565b5060010190565b634e487b7160e01b600052603260045260246000fd5b6001600160a01b039384168152919092166020820152604081019190915260600190565b81810381811115610a0257610a02615a27565b8082028115828204841417610a0257610a02615a27565b634e487b7160e01b600052601260045260246000fd5b600082615af257615af2615acd565b500490565b600082615b0657615b06615acd565b500690565b60008251615b1d8184602087016159d0565b9190910192915050565b600181811c90821680615b3b57607f821691505b602082108103611bb957634e487b7160e01b600052602260045260246000fd5b601f821115610d8657600081815260208120601f850160051c81016020861015615b825750805b601f850160051c820191505b81811015614d8d57828155600101615b8e565b81516001600160401b03811115615bba57615bba615198565b615bce81615bc88454615b27565b84615b5b565b602080601f831160018114615c035760008415615beb5750858301515b600019600386901b1c1916600185901b178555614d8d565b600085815260208120601f198616915b82811015615c3257888601518255948401946001909101908401615c13565b5085821015615c505787850151600019600388901b60f8161c191681555b5050505050600190811b01905550565b600081615c6f57615c6f615a27565b506000190190565b6001600160a01b03929092168252602082015260400190565b600060208284031215615ca257600080fd5b8151801515811461176657600080fd5b8181036000831280158383131683831282161715610a4b57610a4b615a27565b600082615ce157615ce1615acd565b600160ff1b821460001984141615615cfb57615cfb615a27565b500590565b8082018281126000831280158216821582161715615d2057615d20615a27565b505092915050565b60006001600160ff1b018201615a6257615a62615a27565b6000600160ff1b8201615c6f57615c6f615a27565b76020b1b1b2b9b9a1b7b73a3937b61d1030b1b1b7bab73a1604d1b815260008351615d878160178501602088016159d0565b7001034b99036b4b9b9b4b733903937b6329607d1b6017918401918201528351615db88160288401602088016159d0565b0160280194935050505056fe24ec282d16d29c6756f2923c564106bb87f9b95931e09c49322dae860570df0c828634d95e775031b9ff576b159a8509d3053581a8c9c4d7d86899e0afcd882f25ff74f7ce91d80949f02dc1bdfa25211c1ab2346a88f482f11b4cad97d1405465d7a28e3265b37a6474929f336521b332c1681b933f6cb9f3376673440d862a56e8a2b61ec2fc3755302208be3d178b6991f8eff695785ff8b3e26eb3ffa138a2646970667358221220c66728000d345a442ac7a13bde580a3c87b7dcd43c5d784b50d945a9d878b81464736f6c63430008120033",
			"opcodes": "PUSH1 0x80 PUSH1 0x40 MSTORE CALLVALUE DUP1 ISZERO PUSH2 0x10 JUMPI PUSH1 0x0 DUP1 REVERT JUMPDEST POP PUSH2 0x5E9A DUP1 PUSH3 0x21 PUSH1 0x0 CODECOPY PUSH1 0x0 RETURN INVALID PUSH1 0x80 PUSH1 0x40 MSTORE CALLVALUE DUP1 ISZERO PUSH2 0x10 JUMPI PUSH1 0x0 DUP1 REVERT JUMPDEST POP PUSH1 0x4 CALLDATASIZE LT PUSH2 0x338 JUMPI PUSH1 0x0 CALLDATALOAD PUSH1 0xE0 SHR DUP1 PUSH4 0x1FFC9A7 EQ PUSH2 0x33D JUMPI DUP1 PUSH4 0x453F812 EQ PUSH2 0x365 JUMPI DUP1 PUSH4 0x169CD29F EQ PUSH2 0x386 JUMPI DUP1 PUSH4 0x248A9CA3 EQ PUSH2 0x39B JUMPI DUP1 PUSH4 0x2DFD8FFE EQ PUSH2 0x3AE JUMPI DUP1 PUSH4 0x2F2FF15D EQ PUSH2 0x3C1 JUMPI DUP1 PUSH4 0x357401F5 EQ PUSH2 0x3D4 JUMPI DUP1 PUSH4 0x36568ABE EQ PUSH2 0x3E7 JUMPI DUP1 PUSH4 0x39E3AF9B EQ PUSH2 0x3FA JUMPI DUP1 PUSH4 0x3D18678E EQ PUSH2 0x41D JUMPI DUP1 PUSH4 0x4129B2C9 EQ PUSH2 0x430 JUMPI DUP1 PUSH4 0x43969EC2 EQ PUSH2 0x443 JUMPI DUP1 PUSH4 0x473BE604 EQ PUSH2 0x463 JUMPI DUP1 PUSH4 0x51D1850B EQ PUSH2 0x46B JUMPI DUP1 PUSH4 0x54B1BB07 EQ PUSH2 0x47E JUMPI DUP1 PUSH4 0x572A1BE0 EQ PUSH2 0x491 JUMPI DUP1 PUSH4 0x5755147D EQ PUSH2 0x4A4 JUMPI DUP1 PUSH4 0x59B63E58 EQ PUSH2 0x4CC JUMPI DUP1 PUSH4 0x59EA2F25 EQ PUSH2 0x4DF JUMPI DUP1 PUSH4 0x5A626339 EQ PUSH2 0x4F2 JUMPI DUP1 PUSH4 0x5D19D4DD EQ PUSH2 0x505 JUMPI DUP1 PUSH4 0x6FFB5C0A EQ PUSH2 0x518 JUMPI DUP1 PUSH4 0x72093F50 EQ PUSH2 0x52B JUMPI DUP1 PUSH4 0x75E600E4 EQ PUSH2 0x53E JUMPI DUP1 PUSH4 0x77E895F3 EQ PUSH2 0x551 JUMPI DUP1 PUSH4 0x7944DCA2 EQ PUSH2 0x564 JUMPI DUP1 PUSH4 0x7CD4BA49 EQ PUSH2 0x577 JUMPI DUP1 PUSH4 0x7F8C78F4 EQ PUSH2 0x597 JUMPI DUP1 PUSH4 0x81B5E9F6 EQ PUSH2 0x5AA JUMPI DUP1 PUSH4 0x8AEDA25A EQ PUSH2 0x5BD JUMPI DUP1 PUSH4 0x8D385F89 EQ PUSH2 0x5D2 JUMPI DUP1 PUSH4 0x8E5CC02F EQ PUSH2 0x5E5 JUMPI DUP1 PUSH4 0x8ED99D8C EQ PUSH2 0x5F8 JUMPI DUP1 PUSH4 0x9190E0C7 EQ PUSH2 0x60B JUMPI DUP1 PUSH4 0x91D14854 EQ PUSH2 0x61E JUMPI DUP1 PUSH4 0x9507C061 EQ PUSH2 0x631 JUMPI DUP1 PUSH4 0x9C3EA3A6 EQ PUSH2 0x651 JUMPI DUP1 PUSH4 0x9E2CEDBE EQ PUSH2 0x666 JUMPI DUP1 PUSH4 0x9EC71358 EQ PUSH2 0x679 JUMPI DUP1 PUSH4 0x9EC8B026 EQ PUSH2 0x699 JUMPI DUP1 PUSH4 0xA217FDDF EQ PUSH2 0x6AC JUMPI DUP1 PUSH4 0xA24BEFF7 EQ PUSH2 0x6B4 JUMPI DUP1 PUSH4 0xA89A47CF EQ PUSH2 0x6C7 JUMPI DUP1 PUSH4 0xAC662986 EQ PUSH2 0x6CF JUMPI DUP1 PUSH4 0xACD818E2 EQ PUSH2 0x6D7 JUMPI DUP1 PUSH4 0xAD2BF797 EQ PUSH2 0x710 JUMPI DUP1 PUSH4 0xB339FB35 EQ PUSH2 0x73B JUMPI DUP1 PUSH4 0xB64B8FF2 EQ PUSH2 0x778 JUMPI DUP1 PUSH4 0xB7700811 EQ PUSH2 0x78B JUMPI DUP1 PUSH4 0xBA02A680 EQ PUSH2 0x793 JUMPI DUP1 PUSH4 0xBBCE3FC2 EQ PUSH2 0x7A6 JUMPI DUP1 PUSH4 0xBED34BBA EQ PUSH2 0x7AE JUMPI DUP1 PUSH4 0xC3756E03 EQ PUSH2 0x7C1 JUMPI DUP1 PUSH4 0xC5A8D32E EQ PUSH2 0x7D4 JUMPI DUP1 PUSH4 0xCAFC5D24 EQ PUSH2 0x7F4 JUMPI DUP1 PUSH4 0xCB0F9CCD EQ PUSH2 0x807 JUMPI DUP1 PUSH4 0xD47875D0 EQ PUSH2 0x81A JUMPI DUP1 PUSH4 0xD547741F EQ PUSH2 0x843 JUMPI DUP1 PUSH4 0xD5C78A28 EQ PUSH2 0x856 JUMPI DUP1 PUSH4 0xD72C9FEA EQ PUSH2 0x869 JUMPI DUP1 PUSH4 0xD798299D EQ PUSH2 0x87C JUMPI DUP1 PUSH4 0xD80493B5 EQ PUSH2 0x88F JUMPI DUP1 PUSH4 0xDB8D55F1 EQ PUSH2 0x8CA JUMPI DUP1 PUSH4 0xE06232CA EQ PUSH2 0x8D2 JUMPI DUP1 PUSH4 0xE63AB1E9 EQ PUSH2 0x8E5 JUMPI DUP1 PUSH4 0xE6EDFF51 EQ PUSH2 0x8FA JUMPI DUP1 PUSH4 0xEDB40EF6 EQ PUSH2 0x93E JUMPI DUP1 PUSH4 0xF0592289 EQ PUSH2 0x951 JUMPI DUP1 PUSH4 0xF7F38188 EQ PUSH2 0x959 JUMPI DUP1 PUSH4 0xF95CB71E EQ PUSH2 0x96C JUMPI DUP1 PUSH4 0xFBC707EF EQ PUSH2 0x9A9 JUMPI DUP1 PUSH4 0xFE88BDF1 EQ PUSH2 0x9C9 JUMPI JUMPDEST PUSH1 0x0 DUP1 REVERT JUMPDEST PUSH2 0x350 PUSH2 0x34B CALLDATASIZE PUSH1 0x4 PUSH2 0x5065 JUMP JUMPDEST PUSH2 0x9D1 JUMP JUMPDEST PUSH1 0x40 MLOAD SWAP1 ISZERO ISZERO DUP2 MSTORE PUSH1 0x20 ADD JUMPDEST PUSH1 0x40 MLOAD DUP1 SWAP2 SUB SWAP1 RETURN JUMPDEST PUSH2 0x378 PUSH2 0x373 CALLDATASIZE PUSH1 0x4 PUSH2 0x508F JUMP JUMPDEST PUSH2 0xA08 JUMP JUMPDEST PUSH1 0x40 MLOAD SWAP1 DUP2 MSTORE PUSH1 0x20 ADD PUSH2 0x35C JUMP JUMPDEST PUSH2 0x399 PUSH2 0x394 CALLDATASIZE PUSH1 0x4 PUSH2 0x50A8 JUMP JUMPDEST PUSH2 0xA52 JUMP JUMPDEST STOP JUMPDEST PUSH2 0x378 PUSH2 0x3A9 CALLDATASIZE PUSH1 0x4 PUSH2 0x508F JUMP JUMPDEST PUSH2 0xD8B JUMP JUMPDEST PUSH2 0x350 PUSH2 0x3BC CALLDATASIZE PUSH1 0x4 PUSH2 0x508F JUMP JUMPDEST PUSH2 0xDA0 JUMP JUMPDEST PUSH2 0x399 PUSH2 0x3CF CALLDATASIZE PUSH1 0x4 PUSH2 0x50EB JUMP JUMPDEST PUSH2 0xDB5 JUMP JUMPDEST PUSH2 0x399 PUSH2 0x3E2 CALLDATASIZE PUSH1 0x4 PUSH2 0x508F JUMP JUMPDEST PUSH2 0xDD1 JUMP JUMPDEST PUSH2 0x399 PUSH2 0x3F5 CALLDATASIZE PUSH1 0x4 PUSH2 0x50EB JUMP JUMPDEST PUSH2 0xE05 JUMP JUMPDEST PUSH2 0x350 PUSH2 0x408 CALLDATASIZE PUSH1 0x4 PUSH2 0x508F JUMP JUMPDEST PUSH1 0x0 SWAP1 DUP2 MSTORE PUSH1 0x9 PUSH1 0x20 MSTORE PUSH1 0x40 SWAP1 KECCAK256 SLOAD PUSH1 0xFF AND SWAP1 JUMP JUMPDEST PUSH2 0x399 PUSH2 0x42B CALLDATASIZE PUSH1 0x4 PUSH2 0x508F JUMP JUMPDEST PUSH2 0xE83 JUMP JUMPDEST PUSH2 0x378 PUSH2 0x43E CALLDATASIZE PUSH1 0x4 PUSH2 0x508F JUMP JUMPDEST PUSH2 0xEA1 JUMP JUMPDEST PUSH2 0x456 PUSH2 0x451 CALLDATASIZE PUSH1 0x4 PUSH2 0x5117 JUMP JUMPDEST PUSH2 0xEB3 JUMP JUMPDEST PUSH1 0x40 MLOAD PUSH2 0x35C SWAP2 SWAP1 PUSH2 0x5132 JUMP JUMPDEST PUSH2 0x399 PUSH2 0xF1F JUMP JUMPDEST PUSH2 0x378 PUSH2 0x479 CALLDATASIZE PUSH1 0x4 PUSH2 0x5176 JUMP JUMPDEST PUSH2 0x1087 JUMP JUMPDEST PUSH2 0x399 PUSH2 0x48C CALLDATASIZE PUSH1 0x4 PUSH2 0x5273 JUMP JUMPDEST PUSH2 0x10A4 JUMP JUMPDEST PUSH2 0x350 PUSH2 0x49F CALLDATASIZE PUSH1 0x4 PUSH2 0x5345 JUMP JUMPDEST PUSH2 0x1371 JUMP JUMPDEST PUSH2 0x4B7 PUSH2 0x4B2 CALLDATASIZE PUSH1 0x4 PUSH2 0x5176 JUMP JUMPDEST PUSH2 0x1421 JUMP JUMPDEST PUSH1 0x40 MLOAD PUSH2 0x35C SWAP10 SWAP9 SWAP8 SWAP7 SWAP6 SWAP5 SWAP4 SWAP3 SWAP2 SWAP1 PUSH2 0x5438 JUMP JUMPDEST PUSH2 0x456 PUSH2 0x4DA CALLDATASIZE PUSH1 0x4 PUSH2 0x5497 JUMP JUMPDEST PUSH2 0x157B JUMP JUMPDEST PUSH2 0x378 PUSH2 0x4ED CALLDATASIZE PUSH1 0x4 PUSH2 0x551C JUMP JUMPDEST PUSH2 0x15F0 JUMP JUMPDEST PUSH2 0x378 PUSH2 0x500 CALLDATASIZE PUSH1 0x4 PUSH2 0x50EB JUMP JUMPDEST PUSH2 0x164E JUMP JUMPDEST PUSH2 0x399 PUSH2 0x513 CALLDATASIZE PUSH1 0x4 PUSH2 0x50A8 JUMP JUMPDEST PUSH2 0x176D JUMP JUMPDEST PUSH2 0x350 PUSH2 0x526 CALLDATASIZE PUSH1 0x4 PUSH2 0x508F JUMP JUMPDEST PUSH2 0x1B8F JUMP JUMPDEST PUSH2 0x378 PUSH2 0x539 CALLDATASIZE PUSH1 0x4 PUSH2 0x508F JUMP JUMPDEST PUSH2 0x1BBF JUMP JUMPDEST PUSH2 0x399 PUSH2 0x54C CALLDATASIZE PUSH1 0x4 PUSH2 0x5176 JUMP JUMPDEST PUSH2 0x1BEE JUMP JUMPDEST PUSH2 0x350 PUSH2 0x55F CALLDATASIZE PUSH1 0x4 PUSH2 0x5558 JUMP JUMPDEST PUSH2 0x1DFE JUMP JUMPDEST PUSH2 0x378 PUSH2 0x572 CALLDATASIZE PUSH1 0x4 PUSH2 0x55FC JUMP JUMPDEST PUSH2 0x2038 JUMP JUMPDEST PUSH2 0x58A PUSH2 0x585 CALLDATASIZE PUSH1 0x4 PUSH2 0x508F JUMP JUMPDEST PUSH2 0x2060 JUMP JUMPDEST PUSH1 0x40 MLOAD PUSH2 0x35C SWAP2 SWAP1 PUSH2 0x5630 JUMP JUMPDEST PUSH2 0x378 PUSH2 0x5A5 CALLDATASIZE PUSH1 0x4 PUSH2 0x50A8 JUMP JUMPDEST PUSH2 0x218C JUMP JUMPDEST PUSH2 0x399 PUSH2 0x5B8 CALLDATASIZE PUSH1 0x4 PUSH2 0x56FA JUMP JUMPDEST PUSH2 0x2381 JUMP JUMPDEST PUSH2 0x378 PUSH1 0x0 DUP1 MLOAD PUSH1 0x20 PUSH2 0x5DE5 DUP4 CODECOPY DUP2 MLOAD SWAP2 MSTORE DUP2 JUMP JUMPDEST PUSH2 0x456 PUSH2 0x5E0 CALLDATASIZE PUSH1 0x4 PUSH2 0x5117 JUMP JUMPDEST PUSH2 0x24AB JUMP JUMPDEST PUSH2 0x399 PUSH2 0x5F3 CALLDATASIZE PUSH1 0x4 PUSH2 0x573E JUMP JUMPDEST PUSH2 0x25FE JUMP JUMPDEST PUSH2 0x378 PUSH2 0x606 CALLDATASIZE PUSH1 0x4 PUSH2 0x581A JUMP JUMPDEST PUSH2 0x27CF JUMP JUMPDEST PUSH2 0x378 PUSH2 0x619 CALLDATASIZE PUSH1 0x4 PUSH2 0x551C JUMP JUMPDEST PUSH2 0x2858 JUMP JUMPDEST PUSH2 0x350 PUSH2 0x62C CALLDATASIZE PUSH1 0x4 PUSH2 0x50EB JUMP JUMPDEST PUSH2 0x28A7 JUMP JUMPDEST PUSH2 0x378 PUSH2 0x63F CALLDATASIZE PUSH1 0x4 PUSH2 0x508F JUMP JUMPDEST PUSH1 0x0 SWAP1 DUP2 MSTORE PUSH1 0x18 PUSH1 0x20 MSTORE PUSH1 0x40 SWAP1 KECCAK256 SLOAD SWAP1 JUMP JUMPDEST PUSH2 0x378 PUSH1 0x0 DUP1 MLOAD PUSH1 0x20 PUSH2 0x5E05 DUP4 CODECOPY DUP2 MLOAD SWAP2 MSTORE DUP2 JUMP JUMPDEST PUSH2 0x378 PUSH2 0x674 CALLDATASIZE PUSH1 0x4 PUSH2 0x5117 JUMP JUMPDEST PUSH2 0x28D0 JUMP JUMPDEST PUSH2 0x378 PUSH2 0x687 CALLDATASIZE PUSH1 0x4 PUSH2 0x508F JUMP JUMPDEST PUSH1 0x0 SWAP1 DUP2 MSTORE PUSH1 0x4 PUSH1 0x20 MSTORE PUSH1 0x40 SWAP1 KECCAK256 SLOAD SWAP1 JUMP JUMPDEST PUSH2 0x456 PUSH2 0x6A7 CALLDATASIZE PUSH1 0x4 PUSH2 0x551C JUMP JUMPDEST PUSH2 0x293C JUMP JUMPDEST PUSH2 0x378 PUSH1 0x0 DUP2 JUMP JUMPDEST PUSH2 0x399 PUSH2 0x6C2 CALLDATASIZE PUSH1 0x4 PUSH2 0x508F JUMP JUMPDEST PUSH2 0x2960 JUMP JUMPDEST PUSH2 0x399 PUSH2 0x29BC JUMP JUMPDEST PUSH2 0x399 PUSH2 0x29C8 JUMP JUMPDEST PUSH2 0x350 PUSH2 0x6E5 CALLDATASIZE PUSH1 0x4 PUSH2 0x5497 JUMP JUMPDEST PUSH1 0x1 PUSH1 0x1 PUSH1 0xA0 SHL SUB SWAP2 SWAP1 SWAP2 AND PUSH1 0x0 SWAP1 DUP2 MSTORE PUSH1 0x1D PUSH1 0x20 SWAP1 DUP2 MSTORE PUSH1 0x40 DUP1 DUP4 KECCAK256 SWAP4 DUP4 MSTORE SWAP3 SWAP1 MSTORE KECCAK256 SLOAD PUSH1 0xFF AND SWAP1 JUMP JUMPDEST PUSH2 0x378 PUSH2 0x71E CALLDATASIZE PUSH1 0x4 PUSH2 0x5176 JUMP JUMPDEST PUSH1 0x0 SWAP2 DUP3 MSTORE PUSH1 0x1F PUSH1 0x20 SWAP1 DUP2 MSTORE PUSH1 0x40 DUP1 DUP5 KECCAK256 SWAP3 DUP5 MSTORE SWAP2 SWAP1 MSTORE SWAP1 KECCAK256 SLOAD SWAP1 JUMP JUMPDEST PUSH2 0x378 PUSH2 0x749 CALLDATASIZE PUSH1 0x4 PUSH2 0x581A JUMP JUMPDEST PUSH1 0x0 SWAP3 DUP4 MSTORE PUSH1 0xB PUSH1 0x20 SWAP1 DUP2 MSTORE PUSH1 0x40 DUP1 DUP6 KECCAK256 SWAP4 DUP6 MSTORE SWAP3 DUP2 MSTORE DUP3 DUP5 KECCAK256 PUSH1 0x1 PUSH1 0x1 PUSH1 0xA0 SHL SUB SWAP3 SWAP1 SWAP3 AND DUP5 MSTORE MSTORE SWAP1 KECCAK256 SLOAD SWAP1 JUMP JUMPDEST PUSH2 0x350 PUSH2 0x786 CALLDATASIZE PUSH1 0x4 PUSH2 0x584F JUMP JUMPDEST PUSH2 0x326E JUMP JUMPDEST PUSH2 0x399 PUSH2 0x32B7 JUMP JUMPDEST PUSH2 0x456 PUSH2 0x7A1 CALLDATASIZE PUSH1 0x4 PUSH2 0x551C JUMP JUMPDEST PUSH2 0x3562 JUMP JUMPDEST PUSH1 0x1 SLOAD PUSH2 0x378 JUMP JUMPDEST PUSH2 0x350 PUSH2 0x7BC CALLDATASIZE PUSH1 0x4 PUSH2 0x5895 JUMP JUMPDEST PUSH2 0x361B JUMP JUMPDEST PUSH2 0x399 PUSH2 0x7CF CALLDATASIZE PUSH1 0x4 PUSH2 0x58EE JUMP JUMPDEST PUSH2 0x3674 JUMP JUMPDEST PUSH2 0x7E7 PUSH2 0x7E2 CALLDATASIZE PUSH1 0x4 PUSH2 0x5176 JUMP JUMPDEST PUSH2 0x392C JUMP JUMPDEST PUSH1 0x40 MLOAD PUSH2 0x35C SWAP2 SWAP1 PUSH2 0x5947 JUMP JUMPDEST PUSH2 0x456 PUSH2 0x802 CALLDATASIZE PUSH1 0x4 PUSH2 0x5117 JUMP JUMPDEST PUSH2 0x39A0 JUMP JUMPDEST PUSH2 0x350 PUSH2 0x815 CALLDATASIZE PUSH1 0x4 PUSH2 0x50EB JUMP JUMPDEST PUSH2 0x3A0A JUMP JUMPDEST PUSH2 0x378 PUSH2 0x828 CALLDATASIZE PUSH1 0x4 PUSH2 0x5117 JUMP JUMPDEST PUSH1 0x1 PUSH1 0x1 PUSH1 0xA0 SHL SUB AND PUSH1 0x0 SWAP1 DUP2 MSTORE PUSH1 0x16 PUSH1 0x20 MSTORE PUSH1 0x40 SWAP1 KECCAK256 SLOAD SWAP1 JUMP JUMPDEST PUSH2 0x399 PUSH2 0x851 CALLDATASIZE PUSH1 0x4 PUSH2 0x50EB JUMP JUMPDEST PUSH2 0x3A76 JUMP JUMPDEST PUSH2 0x350 PUSH2 0x864 CALLDATASIZE PUSH1 0x4 PUSH2 0x508F JUMP JUMPDEST PUSH2 0x3A92 JUMP JUMPDEST PUSH2 0x350 PUSH2 0x877 CALLDATASIZE PUSH1 0x4 PUSH2 0x595A JUMP JUMPDEST PUSH2 0x3AA7 JUMP JUMPDEST PUSH2 0x456 PUSH2 0x88A CALLDATASIZE PUSH1 0x4 PUSH2 0x584F JUMP JUMPDEST PUSH2 0x3B02 JUMP JUMPDEST PUSH2 0x378 PUSH2 0x89D CALLDATASIZE PUSH1 0x4 PUSH2 0x581A JUMP JUMPDEST PUSH1 0x0 SWAP3 DUP4 MSTORE PUSH1 0x20 DUP1 DUP1 MSTORE PUSH1 0x40 DUP1 DUP6 KECCAK256 SWAP4 DUP6 MSTORE SWAP3 DUP2 MSTORE DUP3 DUP5 KECCAK256 PUSH1 0x1 PUSH1 0x1 PUSH1 0xA0 SHL SUB SWAP3 SWAP1 SWAP3 AND DUP5 MSTORE MSTORE SWAP1 KECCAK256 SLOAD SWAP1 JUMP JUMPDEST PUSH1 0xD SLOAD PUSH2 0x378 JUMP JUMPDEST PUSH2 0x399 PUSH2 0x8E0 CALLDATASIZE PUSH1 0x4 PUSH2 0x551C JUMP JUMPDEST PUSH2 0x3C1E JUMP JUMPDEST PUSH2 0x378 PUSH1 0x0 DUP1 MLOAD PUSH1 0x20 PUSH2 0x5E25 DUP4 CODECOPY DUP2 MLOAD SWAP2 MSTORE DUP2 JUMP JUMPDEST PUSH2 0x350 PUSH2 0x908 CALLDATASIZE PUSH1 0x4 PUSH2 0x599D JUMP JUMPDEST PUSH1 0x1 PUSH1 0x1 PUSH1 0xA0 SHL SUB DUP4 AND PUSH1 0x0 SWAP1 DUP2 MSTORE PUSH1 0x1E PUSH1 0x20 SWAP1 DUP2 MSTORE PUSH1 0x40 DUP1 DUP4 KECCAK256 DUP6 DUP5 MSTORE DUP3 MSTORE DUP1 DUP4 KECCAK256 DUP5 DUP5 MSTORE SWAP1 SWAP2 MSTORE SWAP1 KECCAK256 SLOAD PUSH1 0xFF AND SWAP4 SWAP3 POP POP POP JUMP JUMPDEST PUSH2 0x350 PUSH2 0x94C CALLDATASIZE PUSH1 0x4 PUSH2 0x50EB JUMP JUMPDEST PUSH2 0x3C9A JUMP JUMPDEST PUSH1 0xE SLOAD PUSH2 0x378 JUMP JUMPDEST PUSH2 0x378 PUSH2 0x967 CALLDATASIZE PUSH1 0x4 PUSH2 0x5117 JUMP JUMPDEST PUSH2 0x3E15 JUMP JUMPDEST PUSH2 0x378 PUSH2 0x97A CALLDATASIZE PUSH1 0x4 PUSH2 0x581A JUMP JUMPDEST PUSH1 0x0 SWAP3 DUP4 MSTORE PUSH1 0x19 PUSH1 0x20 SWAP1 DUP2 MSTORE PUSH1 0x40 DUP1 DUP6 KECCAK256 SWAP4 DUP6 MSTORE SWAP3 DUP2 MSTORE DUP3 DUP5 KECCAK256 PUSH1 0x1 PUSH1 0x1 PUSH1 0xA0 SHL SUB SWAP3 SWAP1 SWAP3 AND DUP5 MSTORE MSTORE SWAP1 KECCAK256 SLOAD SWAP1 JUMP JUMPDEST PUSH2 0x9BC PUSH2 0x9B7 CALLDATASIZE PUSH1 0x4 PUSH2 0x508F JUMP JUMPDEST PUSH2 0x4853 JUMP JUMPDEST PUSH1 0x40 MLOAD PUSH2 0x35C SWAP2 SWAP1 PUSH2 0x59F4 JUMP JUMPDEST PUSH2 0x399 PUSH2 0x48EB JUMP JUMPDEST PUSH1 0x0 PUSH1 0x1 PUSH1 0x1 PUSH1 0xE0 SHL SUB NOT DUP3 AND PUSH4 0x7965DB0B PUSH1 0xE0 SHL EQ DUP1 PUSH2 0xA02 JUMPI POP PUSH4 0x1FFC9A7 PUSH1 0xE0 SHL PUSH1 0x1 PUSH1 0x1 PUSH1 0xE0 SHL SUB NOT DUP4 AND EQ JUMPDEST SWAP3 SWAP2 POP POP JUMP JUMPDEST PUSH1 0x0 DUP1 DUP1 JUMPDEST PUSH1 0x0 DUP5 DUP2 MSTORE PUSH1 0x4 PUSH1 0x20 MSTORE PUSH1 0x40 SWAP1 KECCAK256 SLOAD DUP2 LT ISZERO PUSH2 0xA4B JUMPI PUSH2 0xA2D DUP5 DUP3 PUSH2 0x1087 JUMP JUMPDEST PUSH2 0xA37 SWAP1 DUP4 PUSH2 0x5A3D JUMP JUMPDEST SWAP2 POP DUP1 PUSH2 0xA43 DUP2 PUSH2 0x5A50 JUMP JUMPDEST SWAP2 POP POP PUSH2 0xA0D JUMP JUMPDEST POP SWAP3 SWAP2 POP POP JUMP JUMPDEST PUSH2 0xA5B DUP4 PUSH2 0x3A92 JUMP JUMPDEST ISZERO PUSH2 0xA9A JUMPI PUSH1 0x40 MLOAD PUSH3 0x461BCD PUSH1 0xE5 SHL DUP2 MSTORE PUSH1 0x20 PUSH1 0x4 DUP3 ADD MSTORE PUSH1 0xA PUSH1 0x24 DUP3 ADD MSTORE PUSH10 0x18995D0818DB1BDCD959 PUSH1 0xB2 SHL PUSH1 0x44 DUP3 ADD MSTORE PUSH1 0x64 ADD JUMPDEST PUSH1 0x40 MLOAD DUP1 SWAP2 SUB SWAP1 REVERT JUMPDEST PUSH1 0x0 DUP2 GT DUP1 ISZERO PUSH2 0xADB JUMPI POP PUSH1 0x0 DUP4 DUP2 MSTORE PUSH1 0x17 PUSH1 0x20 MSTORE PUSH1 0x40 SWAP1 KECCAK256 DUP1 SLOAD DUP4 SWAP1 DUP2 LT PUSH2 0xAC5 JUMPI PUSH2 0xAC5 PUSH2 0x5A69 JUMP JUMPDEST SWAP1 PUSH1 0x0 MSTORE PUSH1 0x20 PUSH1 0x0 KECCAK256 SWAP1 PUSH1 0x9 MUL ADD PUSH1 0x4 ADD SLOAD DUP2 GT ISZERO JUMPDEST PUSH2 0xB18 JUMPI PUSH1 0x40 MLOAD PUSH3 0x461BCD PUSH1 0xE5 SHL DUP2 MSTORE PUSH1 0x20 PUSH1 0x4 DUP3 ADD MSTORE PUSH1 0xE PUSH1 0x24 DUP3 ADD MSTORE PUSH14 0x1A5B9D985B1A5908185B5BDD5B9D PUSH1 0x92 SHL PUSH1 0x44 DUP3 ADD MSTORE PUSH1 0x64 ADD PUSH2 0xA91 JUMP JUMPDEST PUSH1 0x0 DUP4 DUP2 MSTORE PUSH1 0x17 PUSH1 0x20 MSTORE PUSH1 0x40 SWAP1 KECCAK256 DUP1 SLOAD DUP4 SWAP1 DUP2 LT PUSH2 0xB38 JUMPI PUSH2 0xB38 PUSH2 0x5A69 JUMP JUMPDEST PUSH1 0x0 SWAP2 DUP3 MSTORE PUSH1 0x20 SWAP1 SWAP2 KECCAK256 PUSH1 0x7 PUSH1 0x9 SWAP1 SWAP3 MUL ADD ADD SLOAD PUSH1 0xFF AND ISZERO PUSH2 0xC26 JUMPI PUSH1 0x0 DUP4 DUP2 MSTORE PUSH1 0x17 PUSH1 0x20 MSTORE PUSH1 0x40 SWAP1 KECCAK256 DUP1 SLOAD PUSH2 0xBE9 SWAP2 CALLER SWAP2 DUP6 SWAP1 DUP2 LT PUSH2 0xB7A JUMPI PUSH2 0xB7A PUSH2 0x5A69 JUMP JUMPDEST SWAP1 PUSH1 0x0 MSTORE PUSH1 0x20 PUSH1 0x0 KECCAK256 SWAP1 PUSH1 0x9 MUL ADD PUSH1 0x8 ADD DUP1 SLOAD DUP1 PUSH1 0x20 MUL PUSH1 0x20 ADD PUSH1 0x40 MLOAD SWAP1 DUP2 ADD PUSH1 0x40 MSTORE DUP1 SWAP3 SWAP2 SWAP1 DUP2 DUP2 MSTORE PUSH1 0x20 ADD DUP3 DUP1 SLOAD DUP1 ISZERO PUSH2 0xBDF JUMPI PUSH1 0x20 MUL DUP3 ADD SWAP2 SWAP1 PUSH1 0x0 MSTORE PUSH1 0x20 PUSH1 0x0 KECCAK256 SWAP1 JUMPDEST DUP2 SLOAD PUSH1 0x1 PUSH1 0x1 PUSH1 0xA0 SHL SUB AND DUP2 MSTORE PUSH1 0x1 SWAP1 SWAP2 ADD SWAP1 PUSH1 0x20 ADD DUP1 DUP4 GT PUSH2 0xBC1 JUMPI JUMPDEST POP POP POP POP POP PUSH2 0x3AA7 JUMP JUMPDEST PUSH2 0xC26 JUMPI PUSH1 0x40 MLOAD PUSH3 0x461BCD PUSH1 0xE5 SHL DUP2 MSTORE PUSH1 0x20 PUSH1 0x4 DUP3 ADD MSTORE PUSH1 0xE PUSH1 0x24 DUP3 ADD MSTORE PUSH14 0x1B9BDB88185D5D1A1BDC9A5E9959 PUSH1 0x92 SHL PUSH1 0x44 DUP3 ADD MSTORE PUSH1 0x64 ADD PUSH2 0xA91 JUMP JUMPDEST PUSH1 0x5 SLOAD PUSH1 0x40 MLOAD PUSH4 0x23B872DD PUSH1 0xE0 SHL DUP2 MSTORE PUSH1 0x1 PUSH1 0x1 PUSH1 0xA0 SHL SUB SWAP1 SWAP2 AND SWAP1 PUSH4 0x23B872DD SWAP1 PUSH2 0xC5A SWAP1 CALLER SWAP1 ADDRESS SWAP1 DUP7 SWAP1 PUSH1 0x4 ADD PUSH2 0x5A7F JUMP JUMPDEST PUSH1 0x0 PUSH1 0x40 MLOAD DUP1 DUP4 SUB DUP2 PUSH1 0x0 DUP8 DUP1 EXTCODESIZE ISZERO DUP1 ISZERO PUSH2 0xC74 JUMPI PUSH1 0x0 DUP1 REVERT JUMPDEST POP GAS CALL ISZERO DUP1 ISZERO PUSH2 0xC88 JUMPI RETURNDATASIZE PUSH1 0x0 DUP1 RETURNDATACOPY RETURNDATASIZE PUSH1 0x0 REVERT JUMPDEST POP POP POP PUSH1 0x0 DUP5 DUP2 MSTORE PUSH1 0x17 PUSH1 0x20 MSTORE PUSH1 0x40 SWAP1 KECCAK256 DUP1 SLOAD DUP4 SWAP3 POP DUP5 SWAP1 DUP2 LT PUSH2 0xCAE JUMPI PUSH2 0xCAE PUSH2 0x5A69 JUMP JUMPDEST SWAP1 PUSH1 0x0 MSTORE PUSH1 0x20 PUSH1 0x0 KECCAK256 SWAP1 PUSH1 0x9 MUL ADD PUSH1 0x4 ADD SLOAD PUSH2 0xCCA SWAP2 SWAP1 PUSH2 0x5AA3 JUMP JUMPDEST PUSH1 0x0 DUP5 DUP2 MSTORE PUSH1 0x17 PUSH1 0x20 MSTORE PUSH1 0x40 SWAP1 KECCAK256 DUP1 SLOAD DUP5 SWAP1 DUP2 LT PUSH2 0xCEA JUMPI PUSH2 0xCEA PUSH2 0x5A69 JUMP JUMPDEST PUSH1 0x0 SWAP2 DUP3 MSTORE PUSH1 0x20 DUP1 DUP4 KECCAK256 PUSH1 0x4 PUSH1 0x9 SWAP1 SWAP4 MUL ADD SWAP2 SWAP1 SWAP2 ADD SWAP3 SWAP1 SWAP3 SSTORE DUP5 DUP2 MSTORE PUSH1 0x19 DUP3 MSTORE PUSH1 0x40 DUP1 DUP3 KECCAK256 DUP6 DUP4 MSTORE DUP4 MSTORE DUP1 DUP3 KECCAK256 CALLER DUP4 MSTORE SWAP1 SWAP3 MSTORE SWAP1 DUP2 KECCAK256 DUP1 SLOAD DUP4 SWAP3 SWAP1 PUSH2 0xD31 SWAP1 DUP5 SWAP1 PUSH2 0x5A3D JUMP JUMPDEST SWAP1 SWAP2 SSTORE POP POP CALLER PUSH1 0x0 DUP2 DUP2 MSTORE PUSH1 0x1B PUSH1 0x20 SWAP1 DUP2 MSTORE PUSH1 0x40 DUP1 DUP4 KECCAK256 DUP1 SLOAD PUSH1 0x1 DUP2 DUP2 ADD DUP4 SSTORE SWAP2 DUP6 MSTORE DUP4 DUP6 KECCAK256 ADD DUP9 SWAP1 SSTORE DUP5 DUP5 MSTORE PUSH1 0x1C DUP4 MSTORE DUP2 DUP5 KECCAK256 DUP9 DUP6 MSTORE DUP4 MSTORE SWAP1 DUP4 KECCAK256 DUP1 SLOAD SWAP2 DUP3 ADD DUP2 SSTORE DUP4 MSTORE SWAP2 KECCAK256 ADD DUP4 SWAP1 SSTORE PUSH2 0xD86 SWAP1 DUP3 PUSH2 0x49B9 JUMP JUMPDEST POP POP POP JUMP JUMPDEST PUSH1 0x0 SWAP1 DUP2 MSTORE PUSH1 0x20 DUP2 SWAP1 MSTORE PUSH1 0x40 SWAP1 KECCAK256 PUSH1 0x1 ADD SLOAD SWAP1 JUMP JUMPDEST PUSH1 0x0 SWAP1 DUP2 MSTORE PUSH1 0x8 PUSH1 0x20 MSTORE PUSH1 0x40 SWAP1 KECCAK256 SLOAD PUSH1 0xFF AND SWAP1 JUMP JUMPDEST PUSH2 0xDBE DUP3 PUSH2 0xD8B JUMP JUMPDEST PUSH2 0xDC7 DUP2 PUSH2 0x4A69 JUMP JUMPDEST PUSH2 0xD86 DUP4 DUP4 PUSH2 0x4A73 JUMP JUMPDEST PUSH1 0x0 DUP1 MLOAD PUSH1 0x20 PUSH2 0x5E05 DUP4 CODECOPY DUP2 MLOAD SWAP2 MSTORE PUSH2 0xDE9 DUP2 PUSH2 0x4A69 JUMP JUMPDEST POP PUSH1 0x0 SWAP1 DUP2 MSTORE PUSH1 0x9 PUSH1 0x20 MSTORE PUSH1 0x40 SWAP1 KECCAK256 DUP1 SLOAD PUSH1 0xFF NOT AND PUSH1 0x1 OR SWAP1 SSTORE JUMP JUMPDEST PUSH1 0x1 PUSH1 0x1 PUSH1 0xA0 SHL SUB DUP2 AND CALLER EQ PUSH2 0xE75 JUMPI PUSH1 0x40 MLOAD PUSH3 0x461BCD PUSH1 0xE5 SHL DUP2 MSTORE PUSH1 0x20 PUSH1 0x4 DUP3 ADD MSTORE PUSH1 0x2F PUSH1 0x24 DUP3 ADD MSTORE PUSH32 0x416363657373436F6E74726F6C3A2063616E206F6E6C792072656E6F756E6365 PUSH1 0x44 DUP3 ADD MSTORE PUSH15 0x103937B632B9903337B91039B2B633 PUSH1 0x89 SHL PUSH1 0x64 DUP3 ADD MSTORE PUSH1 0x84 ADD PUSH2 0xA91 JUMP JUMPDEST PUSH2 0xE7F DUP3 DUP3 PUSH2 0x4AF7 JUMP JUMPDEST POP POP JUMP JUMPDEST PUSH1 0x0 DUP1 MLOAD PUSH1 0x20 PUSH2 0x5DE5 DUP4 CODECOPY DUP2 MLOAD SWAP2 MSTORE PUSH2 0xE9B DUP2 PUSH2 0x4A69 JUMP JUMPDEST POP PUSH1 0xD SSTORE JUMP JUMPDEST PUSH1 0x0 SWAP1 DUP2 MSTORE PUSH1 0xC PUSH1 0x20 MSTORE PUSH1 0x40 SWAP1 KECCAK256 SLOAD SWAP1 JUMP JUMPDEST PUSH1 0x1 PUSH1 0x1 PUSH1 0xA0 SHL SUB DUP2 AND PUSH1 0x0 SWAP1 DUP2 MSTORE PUSH1 0x10 PUSH1 0x20 SWAP1 DUP2 MSTORE PUSH1 0x40 SWAP2 DUP3 SWAP1 KECCAK256 DUP1 SLOAD DUP4 MLOAD DUP2 DUP5 MUL DUP2 ADD DUP5 ADD SWAP1 SWAP5 MSTORE DUP1 DUP5 MSTORE PUSH1 0x60 SWAP4 SWAP3 DUP4 ADD DUP3 DUP3 DUP1 ISZERO PUSH2 0xF13 JUMPI PUSH1 0x20 MUL DUP3 ADD SWAP2 SWAP1 PUSH1 0x0 MSTORE PUSH1 0x20 PUSH1 0x0 KECCAK256 SWAP1 JUMPDEST DUP2 SLOAD DUP2 MSTORE PUSH1 0x20 ADD SWAP1 PUSH1 0x1 ADD SWAP1 DUP1 DUP4 GT PUSH2 0xEFF JUMPI JUMPDEST POP POP POP POP POP SWAP1 POP SWAP2 SWAP1 POP JUMP JUMPDEST PUSH1 0x5 DUP1 SLOAD PUSH20 0x243F13935A8A855715C1E06D5DC6F0650354A1F5 PUSH1 0x1 PUSH1 0x1 PUSH1 0xA0 SHL SUB NOT SWAP2 DUP3 AND DUP2 OR SWAP1 SWAP3 SSTORE PUSH1 0x6 DUP1 SLOAD PUSH20 0x8BC9B949D39D0136EA98CF3AF5D770391E76D999 SWAP1 DUP4 AND DUP2 OR DUP3 SSTORE PUSH1 0x14 DUP1 SLOAD DUP5 AND SWAP1 SWAP5 OR SWAP1 SWAP4 SSTORE PUSH1 0x15 DUP1 SLOAD SWAP1 SWAP3 AND SWAP1 SWAP3 OR SWAP1 SSTORE PUSH1 0xD SSTORE PUSH1 0x0 PUSH1 0x1 DUP2 SWAP1 SSTORE PUSH1 0xE SSTORE PUSH2 0xFA6 PUSH1 0x0 DUP1 MLOAD PUSH1 0x20 PUSH2 0x5DE5 DUP4 CODECOPY DUP2 MLOAD SWAP2 MSTORE CALLER PUSH2 0x4B5C JUMP JUMPDEST PUSH2 0xFCA PUSH1 0x40 MLOAD DUP1 PUSH1 0x40 ADD PUSH1 0x40 MSTORE DUP1 PUSH1 0x1 DUP2 MSTORE PUSH1 0x20 ADD PUSH1 0x3 PUSH1 0xFC SHL DUP2 MSTORE POP PUSH1 0x0 PUSH2 0x2381 JUMP JUMPDEST PUSH2 0xFE2 PUSH1 0x0 DUP1 MLOAD PUSH1 0x20 PUSH2 0x5DE5 DUP4 CODECOPY DUP2 MLOAD SWAP2 MSTORE CALLER PUSH2 0xE05 JUMP JUMPDEST PUSH2 0x100E PUSH1 0x0 DUP1 MLOAD PUSH1 0x20 PUSH2 0x5DE5 DUP4 CODECOPY DUP2 MLOAD SWAP2 MSTORE PUSH20 0x6D3DCCF2C028766D26A5382FCE9D898E75E6D629 PUSH2 0x4B5C JUMP JUMPDEST PUSH2 0x103A PUSH1 0x0 DUP1 MLOAD PUSH1 0x20 PUSH2 0x5E05 DUP4 CODECOPY DUP2 MLOAD SWAP2 MSTORE PUSH20 0x1DEECF77DD59A35C9F68CF507D79DDBD8524FA65 PUSH2 0x4B5C JUMP JUMPDEST PUSH2 0x1066 PUSH1 0x0 DUP1 MLOAD PUSH1 0x20 PUSH2 0x5E25 DUP4 CODECOPY DUP2 MLOAD SWAP2 MSTORE PUSH20 0x3FD296730CE65E00218F44175CF8ACA4DDD7E993 PUSH2 0x4B5C JUMP JUMPDEST PUSH2 0x1085 PUSH1 0x0 PUSH20 0xBD3D64A172B0057F83AB82774B18FC04FFA002C PUSH2 0x4B5C JUMP JUMPDEST JUMP JUMPDEST PUSH1 0x0 SWAP2 DUP3 MSTORE PUSH1 0xA PUSH1 0x20 SWAP1 DUP2 MSTORE PUSH1 0x40 DUP1 DUP5 KECCAK256 SWAP3 DUP5 MSTORE SWAP2 SWAP1 MSTORE SWAP1 KECCAK256 SLOAD SWAP1 JUMP JUMPDEST PUSH1 0x1 SLOAD PUSH2 0x10B2 SWAP1 PUSH1 0x1 PUSH2 0x5A3D JUMP JUMPDEST DUP4 LT PUSH2 0x10F4 JUMPI PUSH1 0x40 MLOAD PUSH3 0x461BCD PUSH1 0xE5 SHL DUP2 MSTORE PUSH1 0x20 PUSH1 0x4 DUP3 ADD MSTORE PUSH1 0x11 PUSH1 0x24 DUP3 ADD MSTORE PUSH17 0x18995D08191BD95CDB89DD08195E1A5CDD PUSH1 0x7A SHL PUSH1 0x44 DUP3 ADD MSTORE PUSH1 0x64 ADD PUSH2 0xA91 JUMP JUMPDEST PUSH2 0x10FD DUP4 PUSH2 0x3A92 JUMP JUMPDEST ISZERO PUSH2 0x1138 JUMPI PUSH1 0x40 MLOAD PUSH3 0x461BCD PUSH1 0xE5 SHL DUP2 MSTORE PUSH1 0x20 PUSH1 0x4 DUP3 ADD MSTORE PUSH1 0xB PUSH1 0x24 DUP3 ADD MSTORE PUSH11 0x18995D08195E1C1A5C9959 PUSH1 0xAA SHL PUSH1 0x44 DUP3 ADD MSTORE PUSH1 0x64 ADD PUSH2 0xA91 JUMP JUMPDEST PUSH1 0x5 SLOAD PUSH1 0x40 MLOAD PUSH4 0x23B872DD PUSH1 0xE0 SHL DUP2 MSTORE PUSH1 0x1 PUSH1 0x1 PUSH1 0xA0 SHL SUB SWAP1 SWAP2 AND SWAP1 PUSH4 0x23B872DD SWAP1 PUSH2 0x116C SWAP1 CALLER SWAP1 ADDRESS SWAP1 DUP11 SWAP1 PUSH1 0x4 ADD PUSH2 0x5A7F JUMP JUMPDEST PUSH1 0x0 PUSH1 0x40 MLOAD DUP1 DUP4 SUB DUP2 PUSH1 0x0 DUP8 DUP1 EXTCODESIZE ISZERO DUP1 ISZERO PUSH2 0x1186 JUMPI PUSH1 0x0 DUP1 REVERT JUMPDEST POP GAS CALL ISZERO DUP1 ISZERO PUSH2 0x119A JUMPI RETURNDATASIZE PUSH1 0x0 DUP1 RETURNDATACOPY RETURNDATASIZE PUSH1 0x0 REVERT JUMPDEST POP POP PUSH1 0x6 SLOAD PUSH1 0x40 MLOAD PUSH4 0x23B872DD PUSH1 0xE0 SHL DUP2 MSTORE PUSH1 0x1 PUSH1 0x1 PUSH1 0xA0 SHL SUB SWAP1 SWAP2 AND SWAP3 POP PUSH4 0x23B872DD SWAP2 POP PUSH2 0x11D2 SWAP1 CALLER SWAP1 ADDRESS SWAP1 DUP11 SWAP1 PUSH1 0x4 ADD PUSH2 0x5A7F JUMP JUMPDEST PUSH1 0x0 PUSH1 0x40 MLOAD DUP1 DUP4 SUB DUP2 PUSH1 0x0 DUP8 DUP1 EXTCODESIZE ISZERO DUP1 ISZERO PUSH2 0x11EC JUMPI PUSH1 0x0 DUP1 REVERT JUMPDEST POP GAS CALL ISZERO DUP1 ISZERO PUSH2 0x1200 JUMPI RETURNDATASIZE PUSH1 0x0 DUP1 RETURNDATACOPY RETURNDATASIZE PUSH1 0x0 REVERT JUMPDEST POP POP POP POP PUSH1 0x0 DUP1 DUP3 MLOAD GT ISZERO PUSH2 0x1213 JUMPI POP PUSH1 0x1 JUMPDEST PUSH1 0x0 DUP5 DUP2 MSTORE PUSH1 0x17 PUSH1 0x20 SWAP1 DUP2 MSTORE PUSH1 0x40 DUP1 DUP4 KECCAK256 DUP2 MLOAD PUSH2 0x120 DUP2 ADD DUP4 MSTORE PUSH1 0x18 DUP5 MSTORE DUP3 DUP6 KECCAK256 SLOAD DUP2 MSTORE CALLER DUP2 DUP6 ADD SWAP1 DUP2 MSTORE SWAP3 DUP2 ADD DUP12 DUP2 MSTORE PUSH1 0x60 DUP3 ADD DUP12 DUP2 MSTORE PUSH1 0x80 DUP4 ADD DUP13 DUP2 MSTORE PUSH1 0xA0 DUP5 ADD DUP13 DUP2 MSTORE PUSH1 0xC0 DUP6 ADD DUP13 DUP2 MSTORE DUP11 ISZERO ISZERO PUSH1 0xE0 DUP8 ADD SWAP1 DUP2 MSTORE PUSH2 0x100 DUP8 ADD DUP14 DUP2 MSTORE DUP9 SLOAD PUSH1 0x1 DUP1 DUP3 ADD DUP12 SSTORE SWAP10 DUP14 MSTORE SWAP12 DUP12 SWAP1 KECCAK256 DUP9 MLOAD PUSH1 0x9 SWAP1 SWAP14 MUL ADD SWAP12 DUP13 SSTORE SWAP9 MLOAD SWAP8 DUP12 ADD DUP1 SLOAD PUSH1 0x1 PUSH1 0x1 PUSH1 0xA0 SHL SUB NOT AND PUSH1 0x1 PUSH1 0x1 PUSH1 0xA0 SHL SUB SWAP1 SWAP10 AND SWAP9 SWAP1 SWAP9 OR SWAP1 SWAP8 SSTORE SWAP4 MLOAD PUSH1 0x2 DUP11 ADD SSTORE SWAP2 MLOAD PUSH1 0x3 DUP10 ADD SSTORE MLOAD PUSH1 0x4 DUP9 ADD SSTORE MLOAD PUSH1 0x5 DUP8 ADD SSTORE MLOAD PUSH1 0x6 DUP7 ADD SSTORE SWAP1 MLOAD PUSH1 0x7 DUP6 ADD DUP1 SLOAD PUSH1 0xFF NOT AND SWAP2 ISZERO ISZERO SWAP2 SWAP1 SWAP2 OR SWAP1 SSTORE SWAP1 MLOAD DUP1 MLOAD SWAP2 SWAP4 SWAP3 PUSH2 0x12FE SWAP3 PUSH1 0x8 DUP6 ADD SWAP3 SWAP1 SWAP2 ADD SWAP1 PUSH2 0x4FCD JUMP JUMPDEST POP POP CALLER PUSH1 0x0 DUP2 DUP2 MSTORE PUSH1 0x1B PUSH1 0x20 SWAP1 DUP2 MSTORE PUSH1 0x40 DUP1 DUP4 KECCAK256 DUP1 SLOAD PUSH1 0x1 DUP2 DUP2 ADD DUP4 SSTORE SWAP2 DUP6 MSTORE DUP4 DUP6 KECCAK256 ADD DUP11 SWAP1 SSTORE SWAP4 DUP4 MSTORE PUSH1 0x1C DUP3 MSTORE DUP1 DUP4 KECCAK256 DUP10 DUP5 MSTORE DUP3 MSTORE DUP1 DUP4 KECCAK256 PUSH1 0x18 DUP4 MSTORE SWAP1 DUP4 KECCAK256 DUP1 SLOAD DUP3 SLOAD SWAP6 DUP7 ADD DUP4 SSTORE SWAP2 DUP5 MSTORE SWAP2 DUP4 KECCAK256 SWAP1 SWAP4 ADD SWAP3 SWAP1 SWAP3 SSTORE DUP7 DUP2 MSTORE DUP2 SLOAD SWAP3 POP PUSH2 0x1364 DUP4 PUSH2 0x5A50 JUMP JUMPDEST SWAP2 SWAP1 POP SSTORE POP POP POP POP POP POP POP JUMP JUMPDEST PUSH1 0x0 DUP1 JUMPDEST DUP3 MLOAD DUP2 LT ISZERO PUSH2 0x1417 JUMPI DUP4 MLOAD DUP4 MLOAD DUP5 SWAP1 DUP4 SWAP1 DUP2 LT PUSH2 0x1394 JUMPI PUSH2 0x1394 PUSH2 0x5A69 JUMP JUMPDEST PUSH1 0x20 MUL PUSH1 0x20 ADD ADD MLOAD PUSH1 0x0 PUSH1 0x2 DUP2 LT PUSH2 0x13AE JUMPI PUSH2 0x13AE PUSH2 0x5A69 JUMP JUMPDEST PUSH1 0x20 MUL ADD MLOAD EQ DUP1 ISZERO PUSH2 0x13F6 JUMPI POP DUP4 PUSH1 0x1 PUSH1 0x20 MUL ADD MLOAD DUP4 DUP3 DUP2 MLOAD DUP2 LT PUSH2 0x13D5 JUMPI PUSH2 0x13D5 PUSH2 0x5A69 JUMP JUMPDEST PUSH1 0x20 MUL PUSH1 0x20 ADD ADD MLOAD PUSH1 0x1 PUSH1 0x2 DUP2 LT PUSH2 0x13EF JUMPI PUSH2 0x13EF PUSH2 0x5A69 JUMP JUMPDEST PUSH1 0x20 MUL ADD MLOAD EQ JUMPDEST ISZERO PUSH2 0x1405 JUMPI PUSH1 0x1 SWAP2 POP POP PUSH2 0xA02 JUMP JUMPDEST DUP1 PUSH2 0x140F DUP2 PUSH2 0x5A50 JUMP JUMPDEST SWAP2 POP POP PUSH2 0x1375 JUMP JUMPDEST POP PUSH1 0x0 SWAP4 SWAP3 POP POP POP JUMP JUMPDEST PUSH1 0x0 DUP1 PUSH1 0x0 DUP1 PUSH1 0x0 DUP1 PUSH1 0x0 DUP1 PUSH1 0x60 PUSH1 0x0 PUSH1 0x17 PUSH1 0x0 DUP14 DUP2 MSTORE PUSH1 0x20 ADD SWAP1 DUP2 MSTORE PUSH1 0x20 ADD PUSH1 0x0 KECCAK256 DUP12 DUP2 SLOAD DUP2 LT PUSH2 0x1455 JUMPI PUSH2 0x1455 PUSH2 0x5A69 JUMP JUMPDEST PUSH1 0x0 SWAP2 DUP3 MSTORE PUSH1 0x20 SWAP2 DUP3 SWAP1 KECCAK256 PUSH1 0x40 DUP1 MLOAD PUSH2 0x120 DUP2 ADD DUP3 MSTORE PUSH1 0x9 SWAP1 SWAP4 MUL SWAP1 SWAP2 ADD DUP1 SLOAD DUP4 MSTORE PUSH1 0x1 DUP2 ADD SLOAD PUSH1 0x1 PUSH1 0x1 PUSH1 0xA0 SHL SUB AND DUP4 DUP6 ADD MSTORE PUSH1 0x2 DUP2 ADD SLOAD DUP4 DUP4 ADD MSTORE PUSH1 0x3 DUP2 ADD SLOAD PUSH1 0x60 DUP5 ADD MSTORE PUSH1 0x4 DUP2 ADD SLOAD PUSH1 0x80 DUP5 ADD MSTORE PUSH1 0x5 DUP2 ADD SLOAD PUSH1 0xA0 DUP5 ADD MSTORE PUSH1 0x6 DUP2 ADD SLOAD PUSH1 0xC0 DUP5 ADD MSTORE PUSH1 0x7 DUP2 ADD SLOAD PUSH1 0xFF AND ISZERO ISZERO PUSH1 0xE0 DUP5 ADD MSTORE PUSH1 0x8 DUP2 ADD DUP1 SLOAD DUP4 MLOAD DUP2 DUP8 MUL DUP2 ADD DUP8 ADD SWAP1 SWAP5 MSTORE DUP1 DUP5 MSTORE SWAP4 SWAP5 SWAP2 SWAP4 PUSH2 0x100 DUP7 ADD SWAP4 SWAP3 DUP4 ADD DUP3 DUP3 DUP1 ISZERO PUSH2 0x1522 JUMPI PUSH1 0x20 MUL DUP3 ADD SWAP2 SWAP1 PUSH1 0x0 MSTORE PUSH1 0x20 PUSH1 0x0 KECCAK256 SWAP1 JUMPDEST DUP2 SLOAD PUSH1 0x1 PUSH1 0x1 PUSH1 0xA0 SHL SUB AND DUP2 MSTORE PUSH1 0x1 SWAP1 SWAP2 ADD SWAP1 PUSH1 0x20 ADD DUP1 DUP4 GT PUSH2 0x1504 JUMPI JUMPDEST POP POP POP POP POP DUP2 MSTORE POP POP SWAP1 POP DUP1 PUSH1 0x0 ADD MLOAD DUP2 PUSH1 0x20 ADD MLOAD DUP3 PUSH1 0x40 ADD MLOAD DUP4 PUSH1 0x60 ADD MLOAD DUP5 PUSH1 0x80 ADD MLOAD DUP6 PUSH1 0xA0 ADD MLOAD DUP7 PUSH1 0xC0 ADD MLOAD DUP8 PUSH1 0xE0 ADD MLOAD DUP9 PUSH2 0x100 ADD MLOAD SWAP10 POP SWAP10 POP SWAP10 POP SWAP10 POP SWAP10 POP SWAP10 POP SWAP10 POP SWAP10 POP SWAP10 POP POP SWAP3 SWAP6 SWAP9 POP SWAP3 SWAP6 SWAP9 POP SWAP3 SWAP6 SWAP9 JUMP JUMPDEST PUSH1 0x1 PUSH1 0x1 PUSH1 0xA0 SHL SUB DUP3 AND PUSH1 0x0 SWAP1 DUP2 MSTORE PUSH1 0x1C PUSH1 0x20 SWAP1 DUP2 MSTORE PUSH1 0x40 DUP1 DUP4 KECCAK256 DUP5 DUP5 MSTORE DUP3 MSTORE SWAP2 DUP3 SWAP1 KECCAK256 DUP1 SLOAD DUP4 MLOAD DUP2 DUP5 MUL DUP2 ADD DUP5 ADD SWAP1 SWAP5 MSTORE DUP1 DUP5 MSTORE PUSH1 0x60 SWAP4 SWAP3 DUP4 ADD DUP3 DUP3 DUP1 ISZERO PUSH2 0x15E3 JUMPI PUSH1 0x20 MUL DUP3 ADD SWAP2 SWAP1 PUSH1 0x0 MSTORE PUSH1 0x20 PUSH1 0x0 KECCAK256 SWAP1 JUMPDEST DUP2 SLOAD DUP2 MSTORE PUSH1 0x20 ADD SWAP1 PUSH1 0x1 ADD SWAP1 DUP1 DUP4 GT PUSH2 0x15CF JUMPI JUMPDEST POP POP POP POP POP SWAP1 POP SWAP3 SWAP2 POP POP JUMP JUMPDEST PUSH1 0x0 DUP1 DUP1 JUMPDEST DUP4 MLOAD DUP2 LT ISZERO PUSH2 0xA4B JUMPI DUP4 DUP3 DUP2 MLOAD DUP2 LT PUSH2 0x1610 JUMPI PUSH2 0x1610 PUSH2 0x5A69 JUMP JUMPDEST PUSH1 0x20 MUL PUSH1 0x20 ADD ADD MLOAD DUP5 DUP3 DUP2 MLOAD DUP2 LT PUSH2 0x162A JUMPI PUSH2 0x162A PUSH2 0x5A69 JUMP JUMPDEST PUSH1 0x20 MUL PUSH1 0x20 ADD ADD MLOAD LT ISZERO PUSH2 0x163C JUMPI DUP1 SWAP2 POP JUMPDEST DUP1 PUSH2 0x1646 DUP2 PUSH2 0x5A50 JUMP JUMPDEST SWAP2 POP POP PUSH2 0x15F5 JUMP JUMPDEST PUSH1 0x0 PUSH2 0x165A DUP4 DUP4 PUSH2 0x3C9A JUMP JUMPDEST PUSH2 0x1666 JUMPI POP PUSH1 0x0 PUSH2 0xA02 JUMP JUMPDEST PUSH1 0x0 DUP4 DUP2 MSTORE PUSH1 0x9 PUSH1 0x20 MSTORE PUSH1 0x40 SWAP1 KECCAK256 SLOAD PUSH1 0xFF AND ISZERO ISZERO PUSH1 0x1 SUB PUSH2 0x16EC JUMPI PUSH1 0x0 DUP1 JUMPDEST PUSH1 0x0 DUP6 DUP2 MSTORE PUSH1 0x4 PUSH1 0x20 MSTORE PUSH1 0x40 SWAP1 KECCAK256 SLOAD DUP2 LT ISZERO PUSH2 0x16E4 JUMPI PUSH1 0x0 DUP6 DUP2 MSTORE PUSH1 0xB PUSH1 0x20 SWAP1 DUP2 MSTORE PUSH1 0x40 DUP1 DUP4 KECCAK256 DUP5 DUP5 MSTORE DUP3 MSTORE DUP1 DUP4 KECCAK256 PUSH1 0x1 PUSH1 0x1 PUSH1 0xA0 SHL SUB DUP9 AND DUP5 MSTORE SWAP1 SWAP2 MSTORE SWAP1 KECCAK256 SLOAD PUSH2 0x16D0 SWAP1 DUP4 PUSH2 0x5A3D JUMP JUMPDEST SWAP2 POP DUP1 PUSH2 0x16DC DUP2 PUSH2 0x5A50 JUMP JUMPDEST SWAP2 POP POP PUSH2 0x1685 JUMP JUMPDEST POP SWAP1 POP PUSH2 0xA02 JUMP JUMPDEST PUSH1 0x0 DUP4 DUP2 MSTORE PUSH1 0xB PUSH1 0x20 SWAP1 DUP2 MSTORE PUSH1 0x40 DUP1 DUP4 KECCAK256 PUSH1 0xC DUP4 MSTORE DUP2 DUP5 KECCAK256 SLOAD DUP1 DUP6 MSTORE SWAP1 DUP4 MSTORE DUP2 DUP5 KECCAK256 PUSH1 0x1 PUSH1 0x1 PUSH1 0xA0 SHL SUB DUP8 AND DUP1 DUP7 MSTORE DUP2 DUP6 MSTORE DUP4 DUP7 KECCAK256 SLOAD DUP10 DUP8 MSTORE PUSH1 0xA DUP7 MSTORE DUP5 DUP8 KECCAK256 SWAP4 DUP8 MSTORE SWAP3 DUP6 MSTORE DUP4 DUP7 KECCAK256 SLOAD DUP10 DUP8 MSTORE PUSH1 0x11 DUP7 MSTORE SWAP4 DUP7 KECCAK256 SLOAD SWAP6 MSTORE SWAP1 SWAP3 MSTORE SWAP1 SWAP2 PUSH2 0x1752 SWAP1 DUP4 PUSH2 0x5AB6 JUMP JUMPDEST PUSH2 0x175C SWAP2 SWAP1 PUSH2 0x5AE3 JUMP JUMPDEST PUSH2 0x1766 SWAP2 SWAP1 PUSH2 0x5A3D JUMP JUMPDEST SWAP4 SWAP3 POP POP POP JUMP JUMPDEST PUSH1 0x0 DUP4 DUP2 MSTORE PUSH1 0x7 PUSH1 0x20 MSTORE PUSH1 0x40 SWAP1 KECCAK256 SLOAD PUSH1 0xFF AND ISZERO PUSH2 0x17B8 JUMPI PUSH1 0x40 MLOAD PUSH3 0x461BCD PUSH1 0xE5 SHL DUP2 MSTORE PUSH1 0x20 PUSH1 0x4 DUP3 ADD MSTORE PUSH1 0x9 PUSH1 0x24 DUP3 ADD MSTORE PUSH9 0x18995D18DB1BDCD959 PUSH1 0xBA SHL PUSH1 0x44 DUP3 ADD MSTORE PUSH1 0x64 ADD PUSH2 0xA91 JUMP JUMPDEST PUSH1 0x0 DUP4 DUP2 MSTORE PUSH1 0x8 PUSH1 0x20 MSTORE PUSH1 0x40 SWAP1 KECCAK256 SLOAD PUSH1 0xFF AND ISZERO PUSH2 0x1801 JUMPI PUSH1 0x40 MLOAD PUSH3 0x461BCD PUSH1 0xE5 SHL DUP2 MSTORE PUSH1 0x20 PUSH1 0x4 DUP3 ADD MSTORE PUSH1 0x7 PUSH1 0x24 DUP3 ADD MSTORE PUSH7 0x18995D19195859 PUSH1 0xCA SHL PUSH1 0x44 DUP3 ADD MSTORE PUSH1 0x64 ADD PUSH2 0xA91 JUMP JUMPDEST DUP1 PUSH1 0x0 SUB PUSH2 0x183C JUMPI PUSH1 0x40 MLOAD PUSH3 0x461BCD PUSH1 0xE5 SHL DUP2 MSTORE PUSH1 0x20 PUSH1 0x4 DUP3 ADD MSTORE PUSH1 0x8 PUSH1 0x24 DUP3 ADD MSTORE PUSH8 0x616D6F756E743C3 PUSH1 0xC4 SHL PUSH1 0x44 DUP3 ADD MSTORE PUSH1 0x64 ADD PUSH2 0xA91 JUMP JUMPDEST PUSH1 0x0 DUP4 DUP2 MSTORE PUSH1 0x4 PUSH1 0x20 MSTORE PUSH1 0x40 SWAP1 KECCAK256 SLOAD DUP3 LT PUSH2 0x1889 JUMPI PUSH1 0x40 MLOAD PUSH3 0x461BCD PUSH1 0xE5 SHL DUP2 MSTORE PUSH1 0x20 PUSH1 0x4 DUP3 ADD MSTORE PUSH1 0xD PUSH1 0x24 DUP3 ADD MSTORE PUSH13 0x34B73B30B634B237B83A34B7B7 PUSH1 0x99 SHL PUSH1 0x44 DUP3 ADD MSTORE PUSH1 0x64 ADD PUSH2 0xA91 JUMP JUMPDEST PUSH1 0x5 SLOAD PUSH1 0x40 MLOAD PUSH4 0x23B872DD PUSH1 0xE0 SHL DUP2 MSTORE PUSH1 0x1 PUSH1 0x1 PUSH1 0xA0 SHL SUB SWAP1 SWAP2 AND SWAP1 PUSH4 0x23B872DD SWAP1 PUSH2 0x18BD SWAP1 CALLER SWAP1 ADDRESS SWAP1 DUP7 SWAP1 PUSH1 0x4 ADD PUSH2 0x5A7F JUMP JUMPDEST PUSH1 0x0 PUSH1 0x40 MLOAD DUP1 DUP4 SUB DUP2 PUSH1 0x0 DUP8 DUP1 EXTCODESIZE ISZERO DUP1 ISZERO PUSH2 0x18D7 JUMPI PUSH1 0x0 DUP1 REVERT JUMPDEST POP GAS CALL ISZERO DUP1 ISZERO PUSH2 0x18EB JUMPI RETURNDATASIZE PUSH1 0x0 DUP1 RETURNDATACOPY RETURNDATASIZE PUSH1 0x0 REVERT JUMPDEST POP POP POP PUSH1 0x0 DUP5 DUP2 MSTORE PUSH1 0x20 DUP1 DUP1 MSTORE PUSH1 0x40 DUP1 DUP4 KECCAK256 DUP7 DUP5 MSTORE DUP3 MSTORE DUP1 DUP4 KECCAK256 CALLER DUP5 MSTORE SWAP1 SWAP2 MSTORE SWAP1 KECCAK256 SLOAD PUSH2 0x191A SWAP2 POP DUP3 SWAP1 PUSH2 0x5A3D JUMP JUMPDEST PUSH1 0x0 DUP5 DUP2 MSTORE PUSH1 0x20 DUP1 DUP1 MSTORE PUSH1 0x40 DUP1 DUP4 KECCAK256 DUP7 DUP5 MSTORE DUP3 MSTORE DUP1 DUP4 KECCAK256 CALLER DUP1 DUP6 MSTORE SWAP1 DUP4 MSTORE DUP2 DUP5 KECCAK256 SWAP5 SWAP1 SWAP5 SSTORE DUP7 DUP4 MSTORE PUSH1 0xB DUP3 MSTORE DUP1 DUP4 KECCAK256 DUP7 DUP5 MSTORE DUP3 MSTORE DUP1 DUP4 KECCAK256 SWAP4 DUP4 MSTORE SWAP3 SWAP1 MSTORE KECCAK256 SLOAD PUSH2 0x1964 SWAP1 DUP3 SWAP1 PUSH2 0x5A3D JUMP JUMPDEST PUSH1 0x0 DUP5 DUP2 MSTORE PUSH1 0xB PUSH1 0x20 SWAP1 DUP2 MSTORE PUSH1 0x40 DUP1 DUP4 KECCAK256 DUP7 DUP5 MSTORE DUP3 MSTORE DUP1 DUP4 KECCAK256 CALLER DUP5 MSTORE DUP3 MSTORE DUP1 DUP4 KECCAK256 SWAP4 SWAP1 SWAP4 SSTORE DUP6 DUP3 MSTORE PUSH1 0xA DUP2 MSTORE DUP3 DUP3 KECCAK256 DUP6 DUP4 MSTORE SWAP1 MSTORE KECCAK256 SLOAD PUSH2 0x19A5 SWAP1 DUP3 SWAP1 PUSH2 0x5A3D JUMP JUMPDEST PUSH1 0x0 DUP5 DUP2 MSTORE PUSH1 0xA PUSH1 0x20 SWAP1 DUP2 MSTORE PUSH1 0x40 DUP1 DUP4 KECCAK256 DUP7 DUP5 MSTORE SWAP1 SWAP2 MSTORE SWAP1 KECCAK256 DUP2 SWAP1 SSTORE PUSH2 0x19CC SWAP1 DUP3 SWAP1 PUSH2 0x5A3D JUMP JUMPDEST PUSH1 0x0 DUP5 DUP2 MSTORE PUSH1 0x1F PUSH1 0x20 SWAP1 DUP2 MSTORE PUSH1 0x40 DUP1 DUP4 KECCAK256 DUP7 DUP5 MSTORE DUP3 MSTORE DUP1 DUP4 KECCAK256 SWAP4 SWAP1 SWAP4 SSTORE CALLER DUP3 MSTORE PUSH1 0x10 DUP2 MSTORE SWAP1 DUP3 SWAP1 KECCAK256 DUP1 SLOAD DUP4 MLOAD DUP2 DUP5 MUL DUP2 ADD DUP5 ADD SWAP1 SWAP5 MSTORE DUP1 DUP5 MSTORE PUSH2 0x1A48 SWAP4 DUP8 SWAP4 SWAP1 SWAP3 SWAP2 SWAP1 DUP4 ADD DUP3 DUP3 DUP1 ISZERO PUSH2 0x1A3E JUMPI PUSH1 0x20 MUL DUP3 ADD SWAP2 SWAP1 PUSH1 0x0 MSTORE PUSH1 0x20 PUSH1 0x0 KECCAK256 SWAP1 JUMPDEST DUP2 SLOAD DUP2 MSTORE PUSH1 0x20 ADD SWAP1 PUSH1 0x1 ADD SWAP1 DUP1 DUP4 GT PUSH2 0x1A2A JUMPI JUMPDEST POP POP POP POP POP PUSH2 0x326E JUMP JUMPDEST ISZERO ISZERO PUSH1 0x0 SUB PUSH2 0x1A74 JUMPI CALLER PUSH1 0x0 SWAP1 DUP2 MSTORE PUSH1 0x10 PUSH1 0x20 SWAP1 DUP2 MSTORE PUSH1 0x40 DUP3 KECCAK256 DUP1 SLOAD PUSH1 0x1 DUP2 ADD DUP3 SSTORE SWAP1 DUP4 MSTORE SWAP2 KECCAK256 ADD DUP4 SWAP1 SSTORE JUMPDEST PUSH1 0x0 DUP4 DUP2 MSTORE PUSH1 0xA PUSH1 0x20 SWAP1 DUP2 MSTORE PUSH1 0x40 DUP1 DUP4 KECCAK256 DUP6 DUP5 MSTORE SWAP1 SWAP2 MSTORE DUP2 KECCAK256 SLOAD SWAP1 DUP1 DUP1 JUMPDEST PUSH1 0x0 DUP8 DUP2 MSTORE PUSH1 0x4 PUSH1 0x20 MSTORE PUSH1 0x40 SWAP1 KECCAK256 SLOAD DUP2 LT ISZERO PUSH2 0x1AE8 JUMPI DUP6 DUP2 EQ PUSH2 0x1AD6 JUMPI PUSH1 0x0 DUP8 DUP2 MSTORE PUSH1 0xA PUSH1 0x20 SWAP1 DUP2 MSTORE PUSH1 0x40 DUP1 DUP4 KECCAK256 DUP5 DUP5 MSTORE SWAP1 SWAP2 MSTORE SWAP1 KECCAK256 SLOAD PUSH2 0x1AD3 SWAP1 DUP5 PUSH2 0x5A3D JUMP JUMPDEST SWAP3 POP JUMPDEST DUP1 PUSH2 0x1AE0 DUP2 PUSH2 0x5A50 JUMP JUMPDEST SWAP2 POP POP PUSH2 0x1A92 JUMP JUMPDEST POP DUP2 PUSH1 0x0 SUB PUSH2 0x1B03 JUMPI PUSH2 0x1AFC DUP5 PUSH1 0x14 PUSH2 0x5AB6 JUMP JUMPDEST SWAP1 POP PUSH2 0x1B38 JUMP JUMPDEST PUSH1 0x64 PUSH2 0x1B0F DUP5 DUP5 PUSH2 0x5AE3 JUMP JUMPDEST GT ISZERO PUSH2 0x1B20 JUMPI PUSH2 0x1AFC DUP5 PUSH1 0x64 PUSH2 0x5AB6 JUMP JUMPDEST DUP3 PUSH2 0x1B2B DUP4 DUP7 PUSH2 0x5AB6 JUMP JUMPDEST PUSH2 0x1B35 SWAP2 SWAP1 PUSH2 0x5AE3 JUMP JUMPDEST SWAP1 POP JUMPDEST PUSH2 0x1B42 CALLER DUP3 PUSH2 0x49B9 JUMP JUMPDEST DUP4 DUP7 CALLER PUSH1 0x1 PUSH1 0x1 PUSH1 0xA0 SHL SUB AND PUSH32 0xF026656BD9477C576B0B7C57BAF780817437747E0B9A7D37FD4241E673EDBF82 DUP9 PUSH1 0x40 MLOAD PUSH2 0x1B7F SWAP2 DUP2 MSTORE PUSH1 0x20 ADD SWAP1 JUMP JUMPDEST PUSH1 0x40 MLOAD DUP1 SWAP2 SUB SWAP1 LOG4 POP POP POP POP POP POP JUMP JUMPDEST PUSH1 0x0 DUP1 PUSH2 0x1B9D PUSH1 0x2 DUP5 PUSH2 0x5AF7 JUMP JUMPDEST SWAP1 POP DUP1 PUSH1 0x0 SUB PUSH2 0x1BB0 JUMPI POP PUSH1 0x1 SWAP3 SWAP2 POP POP JUMP JUMPDEST POP PUSH1 0x0 SWAP3 SWAP2 POP POP JUMP JUMPDEST POP SWAP2 SWAP1 POP JUMP JUMPDEST PUSH1 0x0 PUSH2 0x1BCA DUP3 PUSH2 0xDA0 JUMP JUMPDEST PUSH2 0x1BD6 JUMPI POP PUSH1 0x0 SWAP2 SWAP1 POP JUMP JUMPDEST POP PUSH1 0x0 SWAP1 DUP2 MSTORE PUSH1 0x11 PUSH1 0x20 MSTORE PUSH1 0x40 SWAP1 KECCAK256 SLOAD SWAP1 JUMP JUMPDEST SWAP2 SWAP1 POP JUMP JUMPDEST PUSH1 0x0 DUP1 MLOAD PUSH1 0x20 PUSH2 0x5E05 DUP4 CODECOPY DUP2 MLOAD SWAP2 MSTORE PUSH2 0x1C06 DUP2 PUSH2 0x4A69 JUMP JUMPDEST PUSH1 0x0 DUP4 DUP2 MSTORE PUSH1 0x7 PUSH1 0x20 MSTORE PUSH1 0x40 SWAP1 KECCAK256 SLOAD PUSH1 0xFF AND PUSH2 0x1C4E JUMPI PUSH1 0x40 MLOAD PUSH3 0x461BCD PUSH1 0xE5 SHL DUP2 MSTORE PUSH1 0x20 PUSH1 0x4 DUP3 ADD MSTORE PUSH1 0x7 PUSH1 0x24 DUP3 ADD MSTORE PUSH7 0x3132BA37B832B7 PUSH1 0xC9 SHL PUSH1 0x44 DUP3 ADD MSTORE PUSH1 0x64 ADD PUSH2 0xA91 JUMP JUMPDEST PUSH1 0x0 DUP4 DUP2 MSTORE PUSH1 0x4 PUSH1 0x20 MSTORE PUSH1 0x40 SWAP1 KECCAK256 SLOAD DUP3 GT ISZERO PUSH2 0x1C9C JUMPI PUSH1 0x40 MLOAD PUSH3 0x461BCD PUSH1 0xE5 SHL DUP2 MSTORE PUSH1 0x20 PUSH1 0x4 DUP3 ADD MSTORE PUSH1 0xD PUSH1 0x24 DUP3 ADD MSTORE PUSH13 0x34B73B30B634B23BB4B73732B9 PUSH1 0x99 SHL PUSH1 0x44 DUP3 ADD MSTORE PUSH1 0x64 ADD PUSH2 0xA91 JUMP JUMPDEST PUSH1 0x0 DUP4 DUP2 MSTORE PUSH1 0x8 PUSH1 0x20 SWAP1 DUP2 MSTORE PUSH1 0x40 DUP1 DUP4 KECCAK256 DUP1 SLOAD PUSH1 0xFF NOT AND PUSH1 0x1 OR SWAP1 SSTORE PUSH1 0xC SWAP1 SWAP2 MSTORE DUP2 KECCAK256 DUP4 SWAP1 SSTORE DUP1 JUMPDEST PUSH1 0x0 DUP6 DUP2 MSTORE PUSH1 0x4 PUSH1 0x20 MSTORE PUSH1 0x40 SWAP1 KECCAK256 SLOAD DUP2 LT ISZERO PUSH2 0x1D78 JUMPI PUSH1 0x0 DUP5 DUP3 EQ PUSH2 0x1D65 JUMPI PUSH1 0xD SLOAD PUSH1 0x0 DUP8 DUP2 MSTORE PUSH1 0xA PUSH1 0x20 SWAP1 DUP2 MSTORE PUSH1 0x40 DUP1 DUP4 KECCAK256 DUP7 DUP5 MSTORE SWAP1 SWAP2 MSTORE SWAP1 KECCAK256 SLOAD PUSH1 0x64 SWAP2 PUSH2 0x1D0C SWAP2 PUSH2 0x5AB6 JUMP JUMPDEST PUSH2 0x1D16 SWAP2 SWAP1 PUSH2 0x5AE3 JUMP JUMPDEST SWAP1 POP PUSH2 0x1D22 DUP2 DUP5 PUSH2 0x5A3D JUMP JUMPDEST PUSH1 0x0 DUP8 DUP2 MSTORE PUSH1 0xA PUSH1 0x20 SWAP1 DUP2 MSTORE PUSH1 0x40 DUP1 DUP4 KECCAK256 DUP7 DUP5 MSTORE SWAP1 SWAP2 MSTORE SWAP1 KECCAK256 SLOAD SWAP1 SWAP4 POP PUSH2 0x1D4A SWAP1 DUP3 SWAP1 PUSH2 0x5AA3 JUMP JUMPDEST PUSH1 0x0 DUP8 DUP2 MSTORE PUSH1 0xA PUSH1 0x20 SWAP1 DUP2 MSTORE PUSH1 0x40 DUP1 DUP4 KECCAK256 DUP7 DUP5 MSTORE SWAP1 SWAP2 MSTORE SWAP1 KECCAK256 SSTORE JUMPDEST POP DUP1 PUSH2 0x1D70 DUP2 PUSH2 0x5A50 JUMP JUMPDEST SWAP2 POP POP PUSH2 0x1CC4 JUMP JUMPDEST POP DUP1 PUSH1 0xE SLOAD PUSH2 0x1D87 SWAP2 SWAP1 PUSH2 0x5A3D JUMP JUMPDEST PUSH1 0xE SSTORE PUSH2 0x1D93 DUP5 PUSH2 0x4B66 JUMP JUMPDEST PUSH1 0x0 DUP6 DUP2 MSTORE PUSH1 0x11 PUSH1 0x20 SWAP1 DUP2 MSTORE PUSH1 0x40 DUP1 DUP4 KECCAK256 SWAP4 SWAP1 SWAP4 SSTORE PUSH1 0xA DUP2 MSTORE DUP3 DUP3 KECCAK256 DUP7 DUP4 MSTORE DUP2 MSTORE DUP3 DUP3 KECCAK256 SLOAD DUP8 DUP4 MSTORE PUSH1 0x12 SWAP1 SWAP2 MSTORE SWAP2 SWAP1 KECCAK256 SSTORE PUSH2 0x1DCD DUP5 PUSH2 0x4B66 JUMP JUMPDEST PUSH1 0x0 DUP6 DUP2 MSTORE PUSH1 0x13 PUSH1 0x20 MSTORE PUSH1 0x40 DUP1 DUP3 KECCAK256 SWAP3 SWAP1 SWAP3 SSTORE SWAP1 MLOAD DUP5 SWAP2 DUP7 SWAP2 PUSH1 0x0 DUP1 MLOAD PUSH1 0x20 PUSH2 0x5E45 DUP4 CODECOPY DUP2 MLOAD SWAP2 MSTORE SWAP2 SWAP1 LOG3 POP POP POP POP JUMP JUMPDEST PUSH1 0x0 DUP4 DUP2 MSTORE PUSH1 0x8 PUSH1 0x20 MSTORE PUSH1 0x40 DUP2 KECCAK256 SLOAD PUSH1 0xFF AND ISZERO DUP1 ISZERO PUSH2 0x1E2C JUMPI POP PUSH1 0x0 DUP5 DUP2 MSTORE PUSH1 0x9 PUSH1 0x20 MSTORE PUSH1 0x40 SWAP1 KECCAK256 SLOAD PUSH1 0xFF AND ISZERO JUMPDEST DUP1 PUSH2 0x1EAE JUMPI POP PUSH1 0x0 DUP5 DUP2 MSTORE PUSH1 0x1A PUSH1 0x20 SWAP1 DUP2 MSTORE PUSH1 0x40 DUP1 DUP4 KECCAK256 DUP6 DUP5 MSTORE DUP3 MSTORE SWAP2 DUP3 SWAP1 KECCAK256 DUP1 SLOAD DUP4 MLOAD DUP2 DUP5 MUL DUP2 ADD DUP5 ADD SWAP1 SWAP5 MSTORE DUP1 DUP5 MSTORE PUSH2 0x1EA8 SWAP4 DUP8 SWAP4 SWAP1 SWAP3 SWAP2 SWAP1 DUP4 ADD DUP3 DUP3 DUP1 ISZERO PUSH2 0xBDF JUMPI PUSH1 0x20 MUL DUP3 ADD SWAP2 SWAP1 PUSH1 0x0 MSTORE PUSH1 0x20 PUSH1 0x0 KECCAK256 SWAP1 DUP2 SLOAD PUSH1 0x1 PUSH1 0x1 PUSH1 0xA0 SHL SUB AND DUP2 MSTORE PUSH1 0x1 SWAP1 SWAP2 ADD SWAP1 PUSH1 0x20 ADD DUP1 DUP4 GT PUSH2 0xBC1 JUMPI POP POP POP POP POP PUSH2 0x3AA7 JUMP JUMPDEST ISZERO ISZERO PUSH1 0x1 EQ JUMPDEST ISZERO PUSH2 0x1EBB JUMPI POP PUSH1 0x0 PUSH2 0x1766 JUMP JUMPDEST PUSH1 0x0 DUP5 DUP2 MSTORE PUSH1 0x9 PUSH1 0x20 MSTORE PUSH1 0x40 SWAP1 KECCAK256 SLOAD PUSH1 0xFF AND ISZERO ISZERO PUSH1 0x1 SUB PUSH2 0x1EEB JUMPI PUSH2 0x1EE4 DUP3 PUSH2 0x786 DUP6 DUP8 PUSH2 0x157B JUMP JUMPDEST SWAP1 POP PUSH2 0x1766 JUMP JUMPDEST PUSH2 0x1EF4 DUP5 PUSH2 0xEA1 JUMP JUMPDEST PUSH1 0x0 DUP6 DUP2 MSTORE PUSH1 0x17 PUSH1 0x20 MSTORE PUSH1 0x40 SWAP1 KECCAK256 DUP1 SLOAD DUP5 SWAP1 DUP2 LT PUSH2 0x1F14 JUMPI PUSH2 0x1F14 PUSH2 0x5A69 JUMP JUMPDEST SWAP1 PUSH1 0x0 MSTORE PUSH1 0x20 PUSH1 0x0 KECCAK256 SWAP1 PUSH1 0x9 MUL ADD PUSH1 0x6 ADD SLOAD EQ DUP1 ISZERO PUSH2 0x1F79 JUMPI POP PUSH1 0x0 DUP5 DUP2 MSTORE PUSH1 0x17 PUSH1 0x20 MSTORE PUSH1 0x40 SWAP1 KECCAK256 DUP1 SLOAD PUSH1 0x1 PUSH1 0x1 PUSH1 0xA0 SHL SUB DUP6 AND SWAP2 SWAP1 DUP5 SWAP1 DUP2 LT PUSH2 0x1F5A JUMPI PUSH2 0x1F5A PUSH2 0x5A69 JUMP JUMPDEST PUSH1 0x0 SWAP2 DUP3 MSTORE PUSH1 0x20 SWAP1 SWAP2 KECCAK256 PUSH1 0x1 PUSH1 0x9 SWAP1 SWAP3 MUL ADD ADD SLOAD PUSH1 0x1 PUSH1 0x1 PUSH1 0xA0 SHL SUB AND EQ JUMPDEST ISZERO PUSH2 0x1F86 JUMPI POP PUSH1 0x1 PUSH2 0x1766 JUMP JUMPDEST PUSH2 0x1F8F DUP5 PUSH2 0xEA1 JUMP JUMPDEST PUSH1 0x0 DUP6 DUP2 MSTORE PUSH1 0x17 PUSH1 0x20 MSTORE PUSH1 0x40 SWAP1 KECCAK256 DUP1 SLOAD DUP5 SWAP1 DUP2 LT PUSH2 0x1FAF JUMPI PUSH2 0x1FAF PUSH2 0x5A69 JUMP JUMPDEST SWAP1 PUSH1 0x0 MSTORE PUSH1 0x20 PUSH1 0x0 KECCAK256 SWAP1 PUSH1 0x9 MUL ADD PUSH1 0x6 ADD SLOAD EQ ISZERO DUP1 ISZERO PUSH2 0x2016 JUMPI POP PUSH1 0x0 DUP5 DUP2 MSTORE PUSH1 0x17 PUSH1 0x20 MSTORE PUSH1 0x40 SWAP1 KECCAK256 DUP1 SLOAD PUSH1 0x1 PUSH1 0x1 PUSH1 0xA0 SHL SUB DUP6 AND SWAP2 SWAP1 DUP5 SWAP1 DUP2 LT PUSH2 0x1FF6 JUMPI PUSH2 0x1FF6 PUSH2 0x5A69 JUMP JUMPDEST PUSH1 0x0 SWAP2 DUP3 MSTORE PUSH1 0x20 SWAP1 SWAP2 KECCAK256 PUSH1 0x1 PUSH1 0x9 SWAP1 SWAP3 MUL ADD ADD SLOAD PUSH1 0x1 PUSH1 0x1 PUSH1 0xA0 SHL SUB AND EQ ISZERO JUMPDEST DUP1 ISZERO PUSH2 0x202B JUMPI POP PUSH2 0x202B DUP3 PUSH2 0x786 DUP6 DUP8 PUSH2 0x157B JUMP JUMPDEST ISZERO PUSH2 0x1417 JUMPI POP PUSH1 0x1 PUSH2 0x1766 JUMP JUMPDEST PUSH1 0x0 PUSH1 0x3 DUP3 PUSH1 0x40 MLOAD PUSH2 0x204A SWAP2 SWAP1 PUSH2 0x5B0B JUMP JUMPDEST SWAP1 DUP2 MSTORE PUSH1 0x20 ADD PUSH1 0x40 MLOAD DUP1 SWAP2 SUB SWAP1 KECCAK256 SLOAD SWAP1 POP SWAP2 SWAP1 POP JUMP JUMPDEST PUSH1 0x60 PUSH1 0x17 PUSH1 0x0 DUP4 DUP2 MSTORE PUSH1 0x20 ADD SWAP1 DUP2 MSTORE PUSH1 0x20 ADD PUSH1 0x0 KECCAK256 DUP1 SLOAD DUP1 PUSH1 0x20 MUL PUSH1 0x20 ADD PUSH1 0x40 MLOAD SWAP1 DUP2 ADD PUSH1 0x40 MSTORE DUP1 SWAP3 SWAP2 SWAP1 DUP2 DUP2 MSTORE PUSH1 0x20 ADD PUSH1 0x0 SWAP1 JUMPDEST DUP3 DUP3 LT ISZERO PUSH2 0x2181 JUMPI PUSH1 0x0 DUP5 DUP2 MSTORE PUSH1 0x20 SWAP1 DUP2 SWAP1 KECCAK256 PUSH1 0x40 DUP1 MLOAD PUSH2 0x120 DUP2 ADD DUP3 MSTORE PUSH1 0x9 DUP7 MUL SWAP1 SWAP3 ADD DUP1 SLOAD DUP4 MSTORE PUSH1 0x1 DUP2 ADD SLOAD PUSH1 0x1 PUSH1 0x1 PUSH1 0xA0 SHL SUB AND DUP4 DUP6 ADD MSTORE PUSH1 0x2 DUP2 ADD SLOAD DUP4 DUP4 ADD MSTORE PUSH1 0x3 DUP2 ADD SLOAD PUSH1 0x60 DUP5 ADD MSTORE PUSH1 0x4 DUP2 ADD SLOAD PUSH1 0x80 DUP5 ADD MSTORE PUSH1 0x5 DUP2 ADD SLOAD PUSH1 0xA0 DUP5 ADD MSTORE PUSH1 0x6 DUP2 ADD SLOAD PUSH1 0xC0 DUP5 ADD MSTORE PUSH1 0x7 DUP2 ADD SLOAD PUSH1 0xFF AND ISZERO ISZERO PUSH1 0xE0 DUP5 ADD MSTORE PUSH1 0x8 DUP2 ADD DUP1 SLOAD DUP4 MLOAD DUP2 DUP8 MUL DUP2 ADD DUP8 ADD SWAP1 SWAP5 MSTORE DUP1 DUP5 MSTORE SWAP4 SWAP5 SWAP2 SWAP4 PUSH2 0x100 DUP7 ADD SWAP4 SWAP3 DUP4 ADD DUP3 DUP3 DUP1 ISZERO PUSH2 0x2169 JUMPI PUSH1 0x20 MUL DUP3 ADD SWAP2 SWAP1 PUSH1 0x0 MSTORE PUSH1 0x20 PUSH1 0x0 KECCAK256 SWAP1 JUMPDEST DUP2 SLOAD PUSH1 0x1 PUSH1 0x1 PUSH1 0xA0 SHL SUB AND DUP2 MSTORE PUSH1 0x1 SWAP1 SWAP2 ADD SWAP1 PUSH1 0x20 ADD DUP1 DUP4 GT PUSH2 0x214B JUMPI JUMPDEST POP POP POP POP POP DUP2 MSTORE POP POP DUP2 MSTORE PUSH1 0x20 ADD SWAP1 PUSH1 0x1 ADD SWAP1 PUSH2 0x2095 JUMP JUMPDEST POP POP POP POP SWAP1 POP SWAP2 SWAP1 POP JUMP JUMPDEST PUSH1 0x0 DUP1 PUSH1 0x1 JUMPDEST PUSH1 0x0 DUP7 DUP2 MSTORE PUSH1 0x17 PUSH1 0x20 MSTORE PUSH1 0x40 SWAP1 KECCAK256 SLOAD DUP2 LT ISZERO PUSH2 0x2378 JUMPI PUSH1 0x0 DUP7 DUP2 MSTORE PUSH1 0x17 PUSH1 0x20 MSTORE PUSH1 0x40 SWAP1 KECCAK256 DUP1 SLOAD DUP4 SWAP1 DUP2 LT PUSH2 0x21C8 JUMPI PUSH2 0x21C8 PUSH2 0x5A69 JUMP JUMPDEST SWAP1 PUSH1 0x0 MSTORE PUSH1 0x20 PUSH1 0x0 KECCAK256 SWAP1 PUSH1 0x9 MUL ADD PUSH1 0x3 ADD SLOAD PUSH1 0x17 PUSH1 0x0 DUP9 DUP2 MSTORE PUSH1 0x20 ADD SWAP1 DUP2 MSTORE PUSH1 0x20 ADD PUSH1 0x0 KECCAK256 DUP4 DUP2 SLOAD DUP2 LT PUSH2 0x21FE JUMPI PUSH2 0x21FE PUSH2 0x5A69 JUMP JUMPDEST SWAP1 PUSH1 0x0 MSTORE PUSH1 0x20 PUSH1 0x0 KECCAK256 SWAP1 PUSH1 0x9 MUL ADD PUSH1 0x2 ADD SLOAD PUSH2 0x2710 PUSH2 0x221D SWAP2 SWAP1 PUSH2 0x5AB6 JUMP JUMPDEST PUSH2 0x2227 SWAP2 SWAP1 PUSH2 0x5AE3 JUMP JUMPDEST PUSH1 0x0 DUP8 DUP2 MSTORE PUSH1 0x17 PUSH1 0x20 MSTORE PUSH1 0x40 SWAP1 KECCAK256 DUP1 SLOAD DUP4 SWAP1 DUP2 LT PUSH2 0x2247 JUMPI PUSH2 0x2247 PUSH2 0x5A69 JUMP JUMPDEST SWAP1 PUSH1 0x0 MSTORE PUSH1 0x20 PUSH1 0x0 KECCAK256 SWAP1 PUSH1 0x9 MUL ADD PUSH1 0x3 ADD SLOAD PUSH1 0x17 PUSH1 0x0 DUP10 DUP2 MSTORE PUSH1 0x20 ADD SWAP1 DUP2 MSTORE PUSH1 0x20 ADD PUSH1 0x0 KECCAK256 DUP4 DUP2 SLOAD DUP2 LT PUSH2 0x227D JUMPI PUSH2 0x227D PUSH2 0x5A69 JUMP JUMPDEST SWAP1 PUSH1 0x0 MSTORE PUSH1 0x20 PUSH1 0x0 KECCAK256 SWAP1 PUSH1 0x9 MUL ADD PUSH1 0x2 ADD SLOAD PUSH2 0x2710 PUSH2 0x229C SWAP2 SWAP1 PUSH2 0x5AB6 JUMP JUMPDEST PUSH2 0x22A6 SWAP2 SWAP1 PUSH2 0x5AE3 JUMP JUMPDEST GT DUP1 ISZERO PUSH2 0x22E5 JUMPI POP PUSH1 0x0 DUP7 DUP2 MSTORE PUSH1 0x17 PUSH1 0x20 MSTORE PUSH1 0x40 SWAP1 KECCAK256 DUP1 SLOAD DUP7 SWAP2 SWAP1 DUP4 SWAP1 DUP2 LT PUSH2 0x22D1 JUMPI PUSH2 0x22D1 PUSH2 0x5A69 JUMP JUMPDEST SWAP1 PUSH1 0x0 MSTORE PUSH1 0x20 PUSH1 0x0 KECCAK256 SWAP1 PUSH1 0x9 MUL ADD PUSH1 0x6 ADD SLOAD EQ JUMPDEST DUP1 ISZERO PUSH2 0x2322 JUMPI POP PUSH1 0x0 DUP7 DUP2 MSTORE PUSH1 0x17 PUSH1 0x20 MSTORE PUSH1 0x40 SWAP1 KECCAK256 DUP1 SLOAD DUP3 SWAP1 DUP2 LT PUSH2 0x230C JUMPI PUSH2 0x230C PUSH2 0x5A69 JUMP JUMPDEST SWAP1 PUSH1 0x0 MSTORE PUSH1 0x20 PUSH1 0x0 KECCAK256 SWAP1 PUSH1 0x9 MUL ADD PUSH1 0x4 ADD SLOAD DUP5 GT ISZERO JUMPDEST DUP1 ISZERO PUSH2 0x235D JUMPI POP PUSH1 0x0 DUP7 DUP2 MSTORE PUSH1 0x17 PUSH1 0x20 MSTORE PUSH1 0x40 DUP2 KECCAK256 DUP1 SLOAD DUP4 SWAP1 DUP2 LT PUSH2 0x2349 JUMPI PUSH2 0x2349 PUSH2 0x5A69 JUMP JUMPDEST SWAP1 PUSH1 0x0 MSTORE PUSH1 0x20 PUSH1 0x0 KECCAK256 SWAP1 PUSH1 0x9 MUL ADD PUSH1 0x4 ADD SLOAD GT JUMPDEST ISZERO PUSH2 0x2366 JUMPI DUP1 SWAP2 POP JUMPDEST DUP1 PUSH2 0x2370 DUP2 PUSH2 0x5A50 JUMP JUMPDEST SWAP2 POP POP PUSH2 0x2192 JUMP JUMPDEST POP SWAP5 SWAP4 POP POP POP POP JUMP JUMPDEST PUSH1 0x0 DUP1 MLOAD PUSH1 0x20 PUSH2 0x5DE5 DUP4 CODECOPY DUP2 MLOAD SWAP2 MSTORE PUSH2 0x2399 DUP2 PUSH2 0x4A69 JUMP JUMPDEST PUSH1 0x3 DUP4 PUSH1 0x40 MLOAD PUSH2 0x23A9 SWAP2 SWAP1 PUSH2 0x5B0B JUMP JUMPDEST SWAP1 DUP2 MSTORE PUSH1 0x20 ADD PUSH1 0x40 MLOAD DUP1 SWAP2 SUB SWAP1 KECCAK256 SLOAD PUSH1 0x0 EQ PUSH2 0x23FF JUMPI PUSH1 0x40 MLOAD PUSH3 0x461BCD PUSH1 0xE5 SHL DUP2 MSTORE PUSH1 0x20 PUSH1 0x4 DUP3 ADD MSTORE PUSH1 0x15 PUSH1 0x24 DUP3 ADD MSTORE PUSH21 0x1BDB994818995D08185B1C9958591E48195E1A5CDD PUSH1 0x5A SHL PUSH1 0x44 DUP3 ADD MSTORE PUSH1 0x64 ADD PUSH2 0xA91 JUMP JUMPDEST PUSH1 0x1 SLOAD PUSH1 0x0 SWAP1 DUP2 MSTORE PUSH1 0x2 PUSH1 0x20 MSTORE PUSH1 0x40 SWAP1 KECCAK256 PUSH2 0x241A DUP5 DUP3 PUSH2 0x5BA1 JUMP JUMPDEST POP PUSH1 0x1 SLOAD PUSH1 0x3 DUP5 PUSH1 0x40 MLOAD PUSH2 0x242E SWAP2 SWAP1 PUSH2 0x5B0B JUMP JUMPDEST SWAP1 DUP2 MSTORE PUSH1 0x40 DUP1 MLOAD PUSH1 0x20 SWAP3 DUP2 SWAP1 SUB DUP4 ADD DUP2 KECCAK256 SWAP4 SWAP1 SWAP4 SSTORE PUSH1 0x1 SLOAD PUSH1 0x0 SWAP1 DUP2 MSTORE PUSH1 0x4 SWAP1 SWAP3 MSTORE SWAP1 KECCAK256 DUP4 SWAP1 SSTORE PUSH2 0x2460 SWAP1 DUP5 SWAP1 PUSH2 0x5B0B JUMP JUMPDEST PUSH1 0x40 MLOAD SWAP1 DUP2 SWAP1 SUB DUP2 KECCAK256 PUSH1 0x1 SLOAD SWAP1 SWAP2 PUSH1 0x0 DUP1 MLOAD PUSH1 0x20 PUSH2 0x5DC5 DUP4 CODECOPY DUP2 MLOAD SWAP2 MSTORE SWAP1 PUSH1 0x0 SWAP1 LOG3 PUSH1 0x60 PUSH2 0x2495 PUSH1 0x0 PUSH1 0x1 DUP1 SLOAD PUSH1 0x0 DUP6 PUSH2 0x10A4 JUMP JUMPDEST PUSH1 0x1 DUP1 SLOAD PUSH2 0x24A2 SWAP2 PUSH2 0x5A3D JUMP JUMPDEST PUSH1 0x1 SSTORE POP POP POP POP JUMP JUMPDEST PUSH1 0x1 PUSH1 0x1 PUSH1 0xA0 SHL SUB DUP2 AND PUSH1 0x0 SWAP1 DUP2 MSTORE PUSH1 0x10 PUSH1 0x20 MSTORE PUSH1 0x40 DUP2 KECCAK256 SLOAD PUSH1 0x60 SWAP2 SWAP1 PUSH1 0x1 PUSH1 0x1 PUSH1 0x40 SHL SUB DUP2 GT ISZERO PUSH2 0x24DF JUMPI PUSH2 0x24DF PUSH2 0x5198 JUMP JUMPDEST PUSH1 0x40 MLOAD SWAP1 DUP1 DUP3 MSTORE DUP1 PUSH1 0x20 MUL PUSH1 0x20 ADD DUP3 ADD PUSH1 0x40 MSTORE DUP1 ISZERO PUSH2 0x2508 JUMPI DUP2 PUSH1 0x20 ADD PUSH1 0x20 DUP3 MUL DUP1 CALLDATASIZE DUP4 CALLDATACOPY ADD SWAP1 POP JUMPDEST POP SWAP1 POP PUSH1 0x0 JUMPDEST PUSH1 0x1 PUSH1 0x1 PUSH1 0xA0 SHL SUB DUP5 AND PUSH1 0x0 SWAP1 DUP2 MSTORE PUSH1 0x10 PUSH1 0x20 MSTORE PUSH1 0x40 SWAP1 KECCAK256 SLOAD DUP2 LT ISZERO PUSH2 0xA4B JUMPI PUSH1 0x1 PUSH1 0x1 PUSH1 0xA0 SHL SUB DUP5 AND PUSH1 0x0 SWAP1 DUP2 MSTORE PUSH1 0x10 PUSH1 0x20 MSTORE PUSH1 0x40 SWAP1 KECCAK256 DUP1 SLOAD PUSH2 0x256E SWAP2 SWAP1 DUP4 SWAP1 DUP2 LT PUSH2 0x255D JUMPI PUSH2 0x255D PUSH2 0x5A69 JUMP JUMPDEST SWAP1 PUSH1 0x0 MSTORE PUSH1 0x20 PUSH1 0x0 KECCAK256 ADD SLOAD DUP6 PUSH2 0x3C9A JUMP JUMPDEST ISZERO PUSH2 0x25CB JUMPI PUSH1 0x1 PUSH1 0x1 PUSH1 0xA0 SHL SUB DUP5 AND PUSH1 0x0 SWAP1 DUP2 MSTORE PUSH1 0x10 PUSH1 0x20 MSTORE PUSH1 0x40 SWAP1 KECCAK256 DUP1 SLOAD DUP3 SWAP1 DUP2 LT PUSH2 0x259D JUMPI PUSH2 0x259D PUSH2 0x5A69 JUMP JUMPDEST SWAP1 PUSH1 0x0 MSTORE PUSH1 0x20 PUSH1 0x0 KECCAK256 ADD SLOAD DUP3 DUP3 DUP2 MLOAD DUP2 LT PUSH2 0x25BA JUMPI PUSH2 0x25BA PUSH2 0x5A69 JUMP JUMPDEST PUSH1 0x20 MUL PUSH1 0x20 ADD ADD DUP2 DUP2 MSTORE POP POP PUSH2 0x25EC JUMP JUMPDEST PUSH1 0x0 DUP3 DUP3 DUP2 MLOAD DUP2 LT PUSH2 0x25DF JUMPI PUSH2 0x25DF PUSH2 0x5A69 JUMP JUMPDEST PUSH1 0x20 MUL PUSH1 0x20 ADD ADD DUP2 DUP2 MSTORE POP POP JUMPDEST DUP1 PUSH2 0x25F6 DUP2 PUSH2 0x5A50 JUMP JUMPDEST SWAP2 POP POP PUSH2 0x250E JUMP JUMPDEST PUSH1 0x0 DUP1 MLOAD PUSH1 0x20 PUSH2 0x5DE5 DUP4 CODECOPY DUP2 MLOAD SWAP2 MSTORE PUSH2 0x2616 DUP2 PUSH2 0x4A69 JUMP JUMPDEST PUSH1 0x0 JUMPDEST DUP3 DUP2 LT ISZERO PUSH2 0x27C8 JUMPI PUSH1 0x3 DUP6 DUP3 DUP2 MLOAD DUP2 LT PUSH2 0x2635 JUMPI PUSH2 0x2635 PUSH2 0x5A69 JUMP JUMPDEST PUSH1 0x20 MUL PUSH1 0x20 ADD ADD MLOAD PUSH1 0x40 MLOAD PUSH2 0x264A SWAP2 SWAP1 PUSH2 0x5B0B JUMP JUMPDEST SWAP1 DUP2 MSTORE PUSH1 0x20 ADD PUSH1 0x40 MLOAD DUP1 SWAP2 SUB SWAP1 KECCAK256 SLOAD PUSH1 0x0 EQ PUSH2 0x269C JUMPI PUSH1 0x40 MLOAD PUSH3 0x461BCD PUSH1 0xE5 SHL DUP2 MSTORE PUSH1 0x20 PUSH1 0x4 DUP3 ADD MSTORE PUSH1 0x11 PUSH1 0x24 DUP3 ADD MSTORE PUSH17 0x18995D08185B1C9958591E48195E1A5CDD PUSH1 0x7A SHL PUSH1 0x44 DUP3 ADD MSTORE PUSH1 0x64 ADD PUSH2 0xA91 JUMP JUMPDEST DUP5 DUP2 DUP2 MLOAD DUP2 LT PUSH2 0x26AE JUMPI PUSH2 0x26AE PUSH2 0x5A69 JUMP JUMPDEST PUSH1 0x20 MUL PUSH1 0x20 ADD ADD MLOAD PUSH1 0x2 PUSH1 0x0 PUSH1 0x1 SLOAD DUP2 MSTORE PUSH1 0x20 ADD SWAP1 DUP2 MSTORE PUSH1 0x20 ADD PUSH1 0x0 KECCAK256 SWAP1 DUP2 PUSH2 0x26D7 SWAP2 SWAP1 PUSH2 0x5BA1 JUMP JUMPDEST POP PUSH1 0x1 SLOAD PUSH1 0x3 DUP7 DUP4 DUP2 MLOAD DUP2 LT PUSH2 0x26EF JUMPI PUSH2 0x26EF PUSH2 0x5A69 JUMP JUMPDEST PUSH1 0x20 MUL PUSH1 0x20 ADD ADD MLOAD PUSH1 0x40 MLOAD PUSH2 0x2704 SWAP2 SWAP1 PUSH2 0x5B0B JUMP JUMPDEST SWAP1 DUP2 MSTORE PUSH1 0x20 ADD PUSH1 0x40 MLOAD DUP1 SWAP2 SUB SWAP1 KECCAK256 DUP2 SWAP1 SSTORE POP DUP4 DUP2 DUP2 MLOAD DUP2 LT PUSH2 0x2728 JUMPI PUSH2 0x2728 PUSH2 0x5A69 JUMP JUMPDEST PUSH1 0x20 MUL PUSH1 0x20 ADD ADD MLOAD PUSH1 0x4 PUSH1 0x0 PUSH1 0x1 SLOAD DUP2 MSTORE PUSH1 0x20 ADD SWAP1 DUP2 MSTORE PUSH1 0x20 ADD PUSH1 0x0 KECCAK256 DUP2 SWAP1 SSTORE POP DUP5 DUP2 DUP2 MLOAD DUP2 LT PUSH2 0x275B JUMPI PUSH2 0x275B PUSH2 0x5A69 JUMP JUMPDEST PUSH1 0x20 MUL PUSH1 0x20 ADD ADD MLOAD PUSH1 0x40 MLOAD PUSH2 0x2770 SWAP2 SWAP1 PUSH2 0x5B0B JUMP JUMPDEST PUSH1 0x40 MLOAD SWAP1 DUP2 SWAP1 SUB DUP2 KECCAK256 PUSH1 0x1 SLOAD SWAP1 SWAP2 PUSH1 0x0 DUP1 MLOAD PUSH1 0x20 PUSH2 0x5DC5 DUP4 CODECOPY DUP2 MLOAD SWAP2 MSTORE SWAP1 PUSH1 0x0 SWAP1 LOG3 PUSH1 0x60 PUSH2 0x27A5 PUSH1 0x0 PUSH1 0x1 DUP1 SLOAD PUSH1 0x0 DUP6 PUSH2 0x10A4 JUMP JUMPDEST PUSH1 0x1 DUP1 SLOAD PUSH2 0x27B2 SWAP2 PUSH2 0x5A3D JUMP JUMPDEST PUSH1 0x1 SSTORE POP DUP1 PUSH2 0x27C0 DUP2 PUSH2 0x5A50 JUMP JUMPDEST SWAP2 POP POP PUSH2 0x2619 JUMP JUMPDEST POP POP POP POP POP JUMP JUMPDEST PUSH1 0x0 DUP4 DUP2 MSTORE PUSH1 0xA PUSH1 0x20 SWAP1 DUP2 MSTORE PUSH1 0x40 DUP1 DUP4 KECCAK256 DUP6 DUP5 MSTORE SWAP1 SWAP2 MSTORE DUP2 KECCAK256 SLOAD DUP2 SWAP1 DUP2 SUB PUSH2 0x27FB JUMPI PUSH1 0x0 SWAP2 POP POP PUSH2 0x1766 JUMP JUMPDEST PUSH1 0x0 DUP6 DUP2 MSTORE PUSH1 0xA PUSH1 0x20 SWAP1 DUP2 MSTORE PUSH1 0x40 DUP1 DUP4 KECCAK256 DUP8 DUP5 MSTORE DUP3 MSTORE DUP1 DUP4 KECCAK256 SLOAD DUP9 DUP5 MSTORE PUSH1 0xB DUP4 MSTORE DUP2 DUP5 KECCAK256 DUP9 DUP6 MSTORE DUP4 MSTORE DUP2 DUP5 KECCAK256 PUSH1 0x1 PUSH1 0x1 PUSH1 0xA0 SHL SUB DUP9 AND DUP6 MSTORE SWAP1 SWAP3 MSTORE SWAP1 SWAP2 KECCAK256 SLOAD PUSH2 0x2845 SWAP1 PUSH1 0x64 PUSH2 0x5AB6 JUMP JUMPDEST PUSH2 0x284F SWAP2 SWAP1 PUSH2 0x5AE3 JUMP JUMPDEST SWAP6 SWAP5 POP POP POP POP POP JUMP JUMPDEST PUSH1 0x0 DUP1 DUP1 JUMPDEST DUP4 MLOAD DUP2 LT ISZERO PUSH2 0xA4B JUMPI DUP4 DUP2 DUP2 MLOAD DUP2 LT PUSH2 0x2878 JUMPI PUSH2 0x2878 PUSH2 0x5A69 JUMP JUMPDEST PUSH1 0x20 MUL PUSH1 0x20 ADD ADD MLOAD PUSH1 0x0 SUB PUSH2 0x2895 JUMPI DUP1 PUSH2 0x2891 DUP2 PUSH2 0x5A50 JUMP JUMPDEST SWAP2 POP POP JUMPDEST DUP1 PUSH2 0x289F DUP2 PUSH2 0x5A50 JUMP JUMPDEST SWAP2 POP POP PUSH2 0x285D JUMP JUMPDEST PUSH1 0x0 SWAP2 DUP3 MSTORE PUSH1 0x20 DUP3 DUP2 MSTORE PUSH1 0x40 DUP1 DUP5 KECCAK256 PUSH1 0x1 PUSH1 0x1 PUSH1 0xA0 SHL SUB SWAP4 SWAP1 SWAP4 AND DUP5 MSTORE SWAP2 SWAP1 MSTORE SWAP1 KECCAK256 SLOAD PUSH1 0xFF AND SWAP1 JUMP JUMPDEST PUSH1 0x0 DUP1 DUP1 PUSH2 0x28DD DUP5 PUSH2 0x24AB JUMP JUMPDEST SWAP1 POP PUSH1 0x0 JUMPDEST DUP2 MLOAD DUP2 LT ISZERO PUSH2 0x2933 JUMPI PUSH1 0x0 DUP3 DUP3 DUP2 MLOAD DUP2 LT PUSH2 0x28FF JUMPI PUSH2 0x28FF PUSH2 0x5A69 JUMP JUMPDEST PUSH1 0x20 MUL PUSH1 0x20 ADD ADD MLOAD SWAP1 POP PUSH2 0x2913 DUP2 DUP8 PUSH2 0x164E JUMP JUMPDEST PUSH2 0x291D SWAP1 DUP6 PUSH2 0x5A3D JUMP JUMPDEST SWAP4 POP POP DUP1 DUP1 PUSH2 0x292B SWAP1 PUSH2 0x5A50 JUMP JUMPDEST SWAP2 POP POP PUSH2 0x28E2 JUMP JUMPDEST POP SWAP1 SWAP4 SWAP3 POP POP POP JUMP JUMPDEST PUSH1 0x60 PUSH2 0x2957 DUP3 PUSH1 0x0 PUSH1 0x1 DUP6 MLOAD PUSH2 0x2952 SWAP2 SWAP1 PUSH2 0x5AA3 JUMP JUMPDEST PUSH2 0x4C15 JUMP JUMPDEST PUSH2 0xA02 DUP3 PUSH2 0x3562 JUMP JUMPDEST PUSH1 0x0 DUP1 MLOAD PUSH1 0x20 PUSH2 0x5DE5 DUP4 CODECOPY DUP2 MLOAD SWAP2 MSTORE PUSH2 0x2978 DUP2 PUSH2 0x4A69 JUMP JUMPDEST PUSH1 0x0 DUP3 DUP2 MSTORE PUSH1 0x7 PUSH1 0x20 MSTORE PUSH1 0x40 DUP1 DUP3 KECCAK256 DUP1 SLOAD PUSH1 0xFF NOT AND PUSH1 0x1 OR SWAP1 SSTORE MLOAD DUP4 SWAP2 PUSH32 0x2E0E9B40234193C73F072420041B96BC4EA156C24A1AFC4C8549F43879BDF988 SWAP2 LOG2 POP POP JUMP JUMPDEST PUSH2 0x29C4 PUSH2 0x32B7 JUMP JUMPDEST PUSH2 0x1085 JUMPDEST PUSH1 0x0 DUP1 JUMPDEST CALLER PUSH1 0x0 SWAP1 DUP2 MSTORE PUSH1 0x1B PUSH1 0x20 MSTORE PUSH1 0x40 SWAP1 KECCAK256 SLOAD DUP2 LT ISZERO PUSH2 0x325A JUMPI CALLER PUSH1 0x0 SWAP1 DUP2 MSTORE PUSH1 0x1B PUSH1 0x20 MSTORE PUSH1 0x40 DUP2 KECCAK256 DUP1 SLOAD DUP4 SWAP1 DUP2 LT PUSH2 0x2A04 JUMPI PUSH2 0x2A04 PUSH2 0x5A69 JUMP JUMPDEST SWAP1 PUSH1 0x0 MSTORE PUSH1 0x20 PUSH1 0x0 KECCAK256 ADD SLOAD SWAP1 POP PUSH2 0x2A1A DUP2 PUSH2 0xDA0 JUMP JUMPDEST ISZERO PUSH2 0x3004 JUMPI PUSH1 0x0 JUMPDEST CALLER PUSH1 0x0 SWAP1 DUP2 MSTORE PUSH1 0x1C PUSH1 0x20 SWAP1 DUP2 MSTORE PUSH1 0x40 DUP1 DUP4 KECCAK256 DUP6 DUP5 MSTORE SWAP1 SWAP2 MSTORE SWAP1 KECCAK256 SLOAD DUP2 LT ISZERO PUSH2 0x3002 JUMPI CALLER PUSH1 0x0 SWAP1 DUP2 MSTORE PUSH1 0x1C PUSH1 0x20 SWAP1 DUP2 MSTORE PUSH1 0x40 DUP1 DUP4 KECCAK256 DUP6 DUP5 MSTORE SWAP1 SWAP2 MSTORE DUP2 KECCAK256 DUP1 SLOAD DUP4 SWAP1 DUP2 LT PUSH2 0x2A70 JUMPI PUSH2 0x2A70 PUSH2 0x5A69 JUMP JUMPDEST PUSH1 0x0 SWAP2 DUP3 MSTORE PUSH1 0x20 DUP1 DUP4 KECCAK256 SWAP1 SWAP2 ADD SLOAD DUP6 DUP4 MSTORE PUSH1 0x1A DUP3 MSTORE PUSH1 0x40 DUP1 DUP5 KECCAK256 DUP3 DUP6 MSTORE DUP4 MSTORE SWAP3 DUP4 SWAP1 KECCAK256 DUP1 SLOAD DUP5 MLOAD DUP2 DUP6 MUL DUP2 ADD DUP6 ADD SWAP1 SWAP6 MSTORE DUP1 DUP6 MSTORE SWAP2 SWAP5 POP PUSH2 0x2AF1 SWAP4 CALLER SWAP4 SWAP1 SWAP3 SWAP1 DUP4 ADD DUP3 DUP3 DUP1 ISZERO PUSH2 0xBDF JUMPI PUSH1 0x20 MUL DUP3 ADD SWAP2 SWAP1 PUSH1 0x0 MSTORE PUSH1 0x20 PUSH1 0x0 KECCAK256 SWAP1 DUP2 SLOAD PUSH1 0x1 PUSH1 0x1 PUSH1 0xA0 SHL SUB AND DUP2 MSTORE PUSH1 0x1 SWAP1 SWAP2 ADD SWAP1 PUSH1 0x20 ADD DUP1 DUP4 GT PUSH2 0xBC1 JUMPI POP POP POP POP POP PUSH2 0x3AA7 JUMP JUMPDEST PUSH2 0x2FEF JUMPI PUSH1 0x0 DUP4 DUP2 MSTORE PUSH1 0x17 PUSH1 0x20 MSTORE PUSH1 0x40 SWAP1 KECCAK256 DUP1 SLOAD DUP3 SWAP1 DUP2 LT PUSH2 0x2B15 JUMPI PUSH2 0x2B15 PUSH2 0x5A69 JUMP JUMPDEST PUSH1 0x0 SWAP2 DUP3 MSTORE PUSH1 0x20 SWAP1 SWAP2 KECCAK256 PUSH1 0x9 SWAP1 SWAP2 MUL ADD PUSH1 0x1 ADD SLOAD PUSH1 0x1 PUSH1 0x1 PUSH1 0xA0 SHL SUB AND CALLER EQ DUP1 ISZERO PUSH2 0x2B78 JUMPI POP PUSH1 0x0 DUP4 DUP2 MSTORE PUSH1 0x17 PUSH1 0x20 MSTORE PUSH1 0x40 SWAP1 KECCAK256 DUP1 SLOAD DUP3 SWAP1 DUP2 LT PUSH2 0x2B5B JUMPI PUSH2 0x2B5B PUSH2 0x5A69 JUMP JUMPDEST SWAP1 PUSH1 0x0 MSTORE PUSH1 0x20 PUSH1 0x0 KECCAK256 SWAP1 PUSH1 0x9 MUL ADD PUSH1 0x6 ADD SLOAD PUSH2 0x2B76 DUP5 PUSH2 0xEA1 JUMP JUMPDEST EQ JUMPDEST ISZERO PUSH2 0x2CA0 JUMPI PUSH1 0x0 DUP4 DUP2 MSTORE PUSH1 0x1A PUSH1 0x20 SWAP1 DUP2 MSTORE PUSH1 0x40 DUP1 DUP4 KECCAK256 DUP5 DUP5 MSTORE DUP3 MSTORE DUP1 DUP4 KECCAK256 DUP1 SLOAD PUSH1 0x1 DUP2 ADD DUP3 SSTORE SWAP1 DUP5 MSTORE DUP3 DUP5 KECCAK256 ADD DUP1 SLOAD PUSH1 0x1 PUSH1 0x1 PUSH1 0xA0 SHL SUB NOT AND CALLER OR SWAP1 SSTORE DUP6 DUP4 MSTORE PUSH1 0x17 SWAP1 SWAP2 MSTORE DUP2 KECCAK256 DUP1 SLOAD DUP4 SWAP1 DUP2 LT PUSH2 0x2BD1 JUMPI PUSH2 0x2BD1 PUSH2 0x5A69 JUMP JUMPDEST SWAP1 PUSH1 0x0 MSTORE PUSH1 0x20 PUSH1 0x0 KECCAK256 SWAP1 PUSH1 0x9 MUL ADD PUSH1 0x2 ADD SLOAD PUSH1 0x17 PUSH1 0x0 DUP7 DUP2 MSTORE PUSH1 0x20 ADD SWAP1 DUP2 MSTORE PUSH1 0x20 ADD PUSH1 0x0 KECCAK256 DUP4 DUP2 SLOAD DUP2 LT PUSH2 0x2C07 JUMPI PUSH2 0x2C07 PUSH2 0x5A69 JUMP JUMPDEST SWAP1 PUSH1 0x0 MSTORE PUSH1 0x20 PUSH1 0x0 KECCAK256 SWAP1 PUSH1 0x9 MUL ADD PUSH1 0x4 ADD SLOAD PUSH1 0x17 PUSH1 0x0 DUP8 DUP2 MSTORE PUSH1 0x20 ADD SWAP1 DUP2 MSTORE PUSH1 0x20 ADD PUSH1 0x0 KECCAK256 DUP5 DUP2 SLOAD DUP2 LT PUSH2 0x2C3D JUMPI PUSH2 0x2C3D PUSH2 0x5A69 JUMP JUMPDEST SWAP1 PUSH1 0x0 MSTORE PUSH1 0x20 PUSH1 0x0 KECCAK256 SWAP1 PUSH1 0x9 MUL ADD PUSH1 0x3 ADD SLOAD PUSH2 0x2C59 SWAP2 SWAP1 PUSH2 0x5AA3 JUMP JUMPDEST PUSH2 0x2C63 SWAP2 SWAP1 PUSH2 0x5A3D JUMP JUMPDEST SWAP1 POP PUSH2 0x2C6F DUP2 DUP8 PUSH2 0x5A3D JUMP JUMPDEST CALLER PUSH1 0x0 SWAP1 DUP2 MSTORE PUSH1 0x1E PUSH1 0x20 SWAP1 DUP2 MSTORE PUSH1 0x40 DUP1 DUP4 KECCAK256 DUP9 DUP5 MSTORE DUP3 MSTORE DUP1 DUP4 KECCAK256 DUP7 DUP5 MSTORE SWAP1 SWAP2 MSTORE SWAP1 KECCAK256 DUP1 SLOAD PUSH1 0xFF NOT AND PUSH1 0x1 OR SWAP1 SSTORE SWAP6 POP POP JUMPDEST PUSH1 0x0 DUP4 DUP2 MSTORE PUSH1 0x17 PUSH1 0x20 MSTORE PUSH1 0x40 SWAP1 KECCAK256 DUP1 SLOAD DUP3 SWAP1 DUP2 LT PUSH2 0x2CC0 JUMPI PUSH2 0x2CC0 PUSH2 0x5A69 JUMP JUMPDEST PUSH1 0x0 SWAP2 DUP3 MSTORE PUSH1 0x20 SWAP1 SWAP2 KECCAK256 PUSH1 0x9 SWAP1 SWAP2 MUL ADD PUSH1 0x1 ADD SLOAD PUSH1 0x1 PUSH1 0x1 PUSH1 0xA0 SHL SUB AND CALLER EQ DUP1 ISZERO PUSH2 0x2D24 JUMPI POP PUSH1 0x0 DUP4 DUP2 MSTORE PUSH1 0x17 PUSH1 0x20 MSTORE PUSH1 0x40 SWAP1 KECCAK256 DUP1 SLOAD DUP3 SWAP1 DUP2 LT PUSH2 0x2D06 JUMPI PUSH2 0x2D06 PUSH2 0x5A69 JUMP JUMPDEST SWAP1 PUSH1 0x0 MSTORE PUSH1 0x20 PUSH1 0x0 KECCAK256 SWAP1 PUSH1 0x9 MUL ADD PUSH1 0x6 ADD SLOAD PUSH2 0x2D21 DUP5 PUSH2 0xEA1 JUMP JUMPDEST EQ ISZERO JUMPDEST ISZERO PUSH2 0x2E49 JUMPI PUSH1 0x0 DUP4 DUP2 MSTORE PUSH1 0x1A PUSH1 0x20 SWAP1 DUP2 MSTORE PUSH1 0x40 DUP1 DUP4 KECCAK256 DUP5 DUP5 MSTORE DUP3 MSTORE DUP1 DUP4 KECCAK256 DUP1 SLOAD PUSH1 0x1 DUP2 ADD DUP3 SSTORE SWAP1 DUP5 MSTORE DUP3 DUP5 KECCAK256 ADD DUP1 SLOAD PUSH1 0x1 PUSH1 0x1 PUSH1 0xA0 SHL SUB NOT AND CALLER OR SWAP1 SSTORE DUP6 DUP4 MSTORE PUSH1 0x17 SWAP1 SWAP2 MSTORE DUP2 KECCAK256 DUP1 SLOAD DUP4 SWAP1 DUP2 LT PUSH2 0x2D7D JUMPI PUSH2 0x2D7D PUSH2 0x5A69 JUMP JUMPDEST SWAP1 PUSH1 0x0 MSTORE PUSH1 0x20 PUSH1 0x0 KECCAK256 SWAP1 PUSH1 0x9 MUL ADD PUSH1 0x3 ADD SLOAD PUSH1 0x17 PUSH1 0x0 DUP7 DUP2 MSTORE PUSH1 0x20 ADD SWAP1 DUP2 MSTORE PUSH1 0x20 ADD PUSH1 0x0 KECCAK256 DUP4 DUP2 SLOAD DUP2 LT PUSH2 0x2DB3 JUMPI PUSH2 0x2DB3 PUSH2 0x5A69 JUMP JUMPDEST SWAP1 PUSH1 0x0 MSTORE PUSH1 0x20 PUSH1 0x0 KECCAK256 SWAP1 PUSH1 0x9 MUL ADD PUSH1 0x4 ADD SLOAD PUSH1 0x17 PUSH1 0x0 DUP8 DUP2 MSTORE PUSH1 0x20 ADD SWAP1 DUP2 MSTORE PUSH1 0x20 ADD PUSH1 0x0 KECCAK256 DUP5 DUP2 SLOAD DUP2 LT PUSH2 0x2DE9 JUMPI PUSH2 0x2DE9 PUSH2 0x5A69 JUMP JUMPDEST SWAP1 PUSH1 0x0 MSTORE PUSH1 0x20 PUSH1 0x0 KECCAK256 SWAP1 PUSH1 0x9 MUL ADD PUSH1 0x2 ADD SLOAD PUSH2 0x2E05 SWAP2 SWAP1 PUSH2 0x5AB6 JUMP JUMPDEST PUSH2 0x2E0F SWAP2 SWAP1 PUSH2 0x5AE3 JUMP JUMPDEST SWAP1 POP PUSH2 0x2E1B DUP2 DUP8 PUSH2 0x5A3D JUMP JUMPDEST CALLER PUSH1 0x0 SWAP1 DUP2 MSTORE PUSH1 0x1E PUSH1 0x20 SWAP1 DUP2 MSTORE PUSH1 0x40 DUP1 DUP4 KECCAK256 DUP9 DUP5 MSTORE DUP3 MSTORE DUP1 DUP4 KECCAK256 DUP7 DUP5 MSTORE SWAP1 SWAP2 MSTORE SWAP1 KECCAK256 DUP1 SLOAD PUSH1 0xFF NOT AND SWAP1 SSTORE SWAP6 POP POP JUMPDEST PUSH1 0x0 DUP4 DUP2 MSTORE PUSH1 0x19 PUSH1 0x20 SWAP1 DUP2 MSTORE PUSH1 0x40 DUP1 DUP4 KECCAK256 DUP5 DUP5 MSTORE DUP3 MSTORE DUP1 DUP4 KECCAK256 CALLER DUP5 MSTORE SWAP1 SWAP2 MSTORE SWAP1 KECCAK256 SLOAD ISZERO DUP1 ISZERO SWAP1 PUSH2 0x2EB2 JUMPI POP PUSH1 0x0 DUP4 DUP2 MSTORE PUSH1 0x17 PUSH1 0x20 MSTORE PUSH1 0x40 SWAP1 KECCAK256 DUP1 SLOAD DUP3 SWAP1 DUP2 LT PUSH2 0x2E94 JUMPI PUSH2 0x2E94 PUSH2 0x5A69 JUMP JUMPDEST SWAP1 PUSH1 0x0 MSTORE PUSH1 0x20 PUSH1 0x0 KECCAK256 SWAP1 PUSH1 0x9 MUL ADD PUSH1 0x6 ADD SLOAD PUSH2 0x2EAF DUP5 PUSH2 0xEA1 JUMP JUMPDEST EQ ISZERO JUMPDEST ISZERO PUSH2 0x2FEF JUMPI PUSH1 0x0 DUP4 DUP2 MSTORE PUSH1 0x1A PUSH1 0x20 SWAP1 DUP2 MSTORE PUSH1 0x40 DUP1 DUP4 KECCAK256 DUP5 DUP5 MSTORE DUP3 MSTORE DUP1 DUP4 KECCAK256 DUP1 SLOAD PUSH1 0x1 DUP2 ADD DUP3 SSTORE SWAP1 DUP5 MSTORE DUP3 DUP5 KECCAK256 ADD DUP1 SLOAD PUSH1 0x1 PUSH1 0x1 PUSH1 0xA0 SHL SUB NOT AND CALLER OR SWAP1 SSTORE DUP6 DUP4 MSTORE PUSH1 0x17 SWAP1 SWAP2 MSTORE DUP2 KECCAK256 DUP1 SLOAD DUP4 SWAP1 DUP2 LT PUSH2 0x2F0B JUMPI PUSH2 0x2F0B PUSH2 0x5A69 JUMP JUMPDEST PUSH1 0x0 SWAP2 DUP3 MSTORE PUSH1 0x20 DUP1 DUP4 KECCAK256 PUSH1 0x2 PUSH1 0x9 SWAP1 SWAP4 MUL ADD SWAP2 SWAP1 SWAP2 ADD SLOAD DUP7 DUP4 MSTORE PUSH1 0x19 DUP3 MSTORE PUSH1 0x40 DUP1 DUP5 KECCAK256 DUP7 DUP6 MSTORE DUP4 MSTORE DUP1 DUP5 KECCAK256 CALLER DUP6 MSTORE SWAP1 SWAP3 MSTORE SWAP2 KECCAK256 SLOAD PUSH2 0x2F49 SWAP2 SWAP1 PUSH2 0x5AB6 JUMP JUMPDEST PUSH1 0x0 DUP6 DUP2 MSTORE PUSH1 0x19 PUSH1 0x20 SWAP1 DUP2 MSTORE PUSH1 0x40 DUP1 DUP4 KECCAK256 DUP7 DUP5 MSTORE DUP3 MSTORE DUP1 DUP4 KECCAK256 CALLER DUP5 MSTORE DUP3 MSTORE DUP1 DUP4 KECCAK256 SLOAD DUP9 DUP5 MSTORE PUSH1 0x17 SWAP1 SWAP3 MSTORE SWAP1 SWAP2 KECCAK256 DUP1 SLOAD SWAP3 SWAP4 POP SWAP1 SWAP2 DUP5 SWAP1 DUP2 LT PUSH2 0x2F8D JUMPI PUSH2 0x2F8D PUSH2 0x5A69 JUMP JUMPDEST SWAP1 PUSH1 0x0 MSTORE PUSH1 0x20 PUSH1 0x0 KECCAK256 SWAP1 PUSH1 0x9 MUL ADD PUSH1 0x3 ADD SLOAD DUP3 PUSH2 0x2FAA SWAP2 SWAP1 PUSH2 0x5AE3 JUMP JUMPDEST PUSH2 0x2FB4 SWAP2 SWAP1 PUSH2 0x5A3D JUMP JUMPDEST PUSH2 0x2FBE SWAP1 DUP8 PUSH2 0x5A3D JUMP JUMPDEST CALLER PUSH1 0x0 SWAP1 DUP2 MSTORE PUSH1 0x1E PUSH1 0x20 SWAP1 DUP2 MSTORE PUSH1 0x40 DUP1 DUP4 KECCAK256 DUP9 DUP5 MSTORE DUP3 MSTORE DUP1 DUP4 KECCAK256 DUP7 DUP5 MSTORE SWAP1 SWAP2 MSTORE SWAP1 KECCAK256 DUP1 SLOAD PUSH1 0xFF NOT AND PUSH1 0x1 OR SWAP1 SSTORE SWAP6 POP POP JUMPDEST POP DUP1 PUSH2 0x2FFA DUP2 PUSH2 0x5A50 JUMP JUMPDEST SWAP2 POP POP PUSH2 0x2A22 JUMP JUMPDEST POP JUMPDEST PUSH1 0x0 DUP2 DUP2 MSTORE PUSH1 0x9 PUSH1 0x20 MSTORE PUSH1 0x40 SWAP1 KECCAK256 SLOAD PUSH1 0xFF AND ISZERO PUSH2 0x3247 JUMPI PUSH1 0x0 JUMPDEST CALLER PUSH1 0x0 SWAP1 DUP2 MSTORE PUSH1 0x1C PUSH1 0x20 SWAP1 DUP2 MSTORE PUSH1 0x40 DUP1 DUP4 KECCAK256 DUP6 DUP5 MSTORE SWAP1 SWAP2 MSTORE SWAP1 KECCAK256 SLOAD DUP2 LT ISZERO PUSH2 0x3245 JUMPI CALLER PUSH1 0x0 SWAP1 DUP2 MSTORE PUSH1 0x1C PUSH1 0x20 SWAP1 DUP2 MSTORE PUSH1 0x40 DUP1 DUP4 KECCAK256 DUP6 DUP5 MSTORE SWAP1 SWAP2 MSTORE DUP2 KECCAK256 DUP1 SLOAD DUP4 SWAP1 DUP2 LT PUSH2 0x306C JUMPI PUSH2 0x306C PUSH2 0x5A69 JUMP JUMPDEST PUSH1 0x0 SWAP2 DUP3 MSTORE PUSH1 0x20 DUP1 DUP4 KECCAK256 SWAP1 SWAP2 ADD SLOAD DUP6 DUP4 MSTORE PUSH1 0x1A DUP3 MSTORE PUSH1 0x40 DUP1 DUP5 KECCAK256 DUP3 DUP6 MSTORE DUP4 MSTORE SWAP3 DUP4 SWAP1 KECCAK256 DUP1 SLOAD DUP5 MLOAD DUP2 DUP6 MUL DUP2 ADD DUP6 ADD SWAP1 SWAP6 MSTORE DUP1 DUP6 MSTORE SWAP2 SWAP5 POP PUSH2 0x30ED SWAP4 CALLER SWAP4 SWAP1 SWAP3 SWAP1 DUP4 ADD DUP3 DUP3 DUP1 ISZERO PUSH2 0xBDF JUMPI PUSH1 0x20 MUL DUP3 ADD SWAP2 SWAP1 PUSH1 0x0 MSTORE PUSH1 0x20 PUSH1 0x0 KECCAK256 SWAP1 DUP2 SLOAD PUSH1 0x1 PUSH1 0x1 PUSH1 0xA0 SHL SUB AND DUP2 MSTORE PUSH1 0x1 SWAP1 SWAP2 ADD SWAP1 PUSH1 0x20 ADD DUP1 DUP4 GT PUSH2 0xBC1 JUMPI POP POP POP POP POP PUSH2 0x3AA7 JUMP JUMPDEST PUSH2 0x3232 JUMPI PUSH1 0x0 DUP4 DUP2 MSTORE PUSH1 0x17 PUSH1 0x20 MSTORE PUSH1 0x40 SWAP1 KECCAK256 DUP1 SLOAD DUP3 SWAP1 DUP2 LT PUSH2 0x3111 JUMPI PUSH2 0x3111 PUSH2 0x5A69 JUMP JUMPDEST PUSH1 0x0 SWAP2 DUP3 MSTORE PUSH1 0x20 SWAP1 SWAP2 KECCAK256 PUSH1 0x1 PUSH1 0x9 SWAP1 SWAP3 MUL ADD ADD SLOAD PUSH1 0x1 PUSH1 0x1 PUSH1 0xA0 SHL SUB AND CALLER SUB PUSH2 0x31A8 JUMPI PUSH1 0x0 DUP4 DUP2 MSTORE PUSH1 0x1A PUSH1 0x20 SWAP1 DUP2 MSTORE PUSH1 0x40 DUP1 DUP4 KECCAK256 DUP5 DUP5 MSTORE DUP3 MSTORE DUP1 DUP4 KECCAK256 DUP1 SLOAD PUSH1 0x1 DUP2 ADD DUP3 SSTORE SWAP1 DUP5 MSTORE DUP3 DUP5 KECCAK256 ADD DUP1 SLOAD PUSH1 0x1 PUSH1 0x1 PUSH1 0xA0 SHL SUB NOT AND CALLER OR SWAP1 SSTORE DUP6 DUP4 MSTORE PUSH1 0x17 SWAP1 SWAP2 MSTORE SWAP1 KECCAK256 DUP1 SLOAD DUP3 SWAP1 DUP2 LT PUSH2 0x3188 JUMPI PUSH2 0x3188 PUSH2 0x5A69 JUMP JUMPDEST SWAP1 PUSH1 0x0 MSTORE PUSH1 0x20 PUSH1 0x0 KECCAK256 SWAP1 PUSH1 0x9 MUL ADD PUSH1 0x2 ADD SLOAD DUP6 PUSH2 0x31A5 SWAP2 SWAP1 PUSH2 0x5A3D JUMP JUMPDEST SWAP5 POP JUMPDEST PUSH1 0x0 DUP4 DUP2 MSTORE PUSH1 0x19 PUSH1 0x20 SWAP1 DUP2 MSTORE PUSH1 0x40 DUP1 DUP4 KECCAK256 DUP5 DUP5 MSTORE DUP3 MSTORE DUP1 DUP4 KECCAK256 CALLER DUP5 MSTORE SWAP1 SWAP2 MSTORE SWAP1 KECCAK256 SLOAD ISZERO PUSH2 0x3232 JUMPI PUSH1 0x0 DUP4 DUP2 MSTORE PUSH1 0x1A PUSH1 0x20 SWAP1 DUP2 MSTORE PUSH1 0x40 DUP1 DUP4 KECCAK256 DUP5 DUP5 MSTORE DUP3 MSTORE DUP1 DUP4 KECCAK256 DUP1 SLOAD PUSH1 0x1 DUP2 ADD DUP3 SSTORE SWAP1 DUP5 MSTORE DUP3 DUP5 KECCAK256 ADD DUP1 SLOAD PUSH1 0x1 PUSH1 0x1 PUSH1 0xA0 SHL SUB NOT AND CALLER SWAP1 DUP2 OR SWAP1 SWAP2 SSTORE DUP7 DUP5 MSTORE PUSH1 0x19 DUP4 MSTORE DUP2 DUP5 KECCAK256 DUP6 DUP6 MSTORE DUP4 MSTORE DUP2 DUP5 KECCAK256 SWAP1 DUP5 MSTORE SWAP1 SWAP2 MSTORE SWAP1 KECCAK256 SLOAD PUSH2 0x322F SWAP1 DUP7 PUSH2 0x5A3D JUMP JUMPDEST SWAP5 POP JUMPDEST POP DUP1 PUSH2 0x323D DUP2 PUSH2 0x5A50 JUMP JUMPDEST SWAP2 POP POP PUSH2 0x301E JUMP JUMPDEST POP JUMPDEST POP DUP1 PUSH2 0x3252 DUP2 PUSH2 0x5A50 JUMP JUMPDEST SWAP2 POP POP PUSH2 0x29CC JUMP JUMPDEST POP DUP1 ISZERO PUSH2 0x326B JUMPI PUSH2 0x326B CALLER DUP3 PUSH2 0x4D95 JUMP JUMPDEST POP JUMP JUMPDEST PUSH1 0x0 DUP1 JUMPDEST DUP3 MLOAD DUP2 LT ISZERO PUSH2 0x1417 JUMPI DUP4 DUP4 DUP3 DUP2 MLOAD DUP2 LT PUSH2 0x328E JUMPI PUSH2 0x328E PUSH2 0x5A69 JUMP JUMPDEST PUSH1 0x20 MUL PUSH1 0x20 ADD ADD MLOAD SUB PUSH2 0x32A5 JUMPI PUSH1 0x1 SWAP2 POP POP PUSH2 0xA02 JUMP JUMPDEST DUP1 PUSH2 0x32AF DUP2 PUSH2 0x5A50 JUMP JUMPDEST SWAP2 POP POP PUSH2 0x3272 JUMP JUMPDEST PUSH1 0x0 DUP1 JUMPDEST CALLER PUSH1 0x0 SWAP1 DUP2 MSTORE PUSH1 0x10 PUSH1 0x20 MSTORE PUSH1 0x40 SWAP1 KECCAK256 SLOAD DUP2 LT ISZERO PUSH2 0x3557 JUMPI PUSH1 0x0 PUSH2 0x32DD CALLER PUSH2 0x24AB JUMP JUMPDEST DUP3 DUP2 MLOAD DUP2 LT PUSH2 0x32EE JUMPI PUSH2 0x32EE PUSH2 0x5A69 JUMP JUMPDEST PUSH1 0x20 MUL PUSH1 0x20 ADD ADD MLOAD SWAP1 POP DUP1 PUSH1 0x0 EQ PUSH2 0x3544 JUMPI PUSH1 0x0 DUP2 DUP2 MSTORE PUSH1 0xF PUSH1 0x20 SWAP1 DUP2 MSTORE PUSH1 0x40 DUP1 DUP4 KECCAK256 DUP1 SLOAD PUSH1 0x1 DUP2 ADD DUP3 SSTORE SWAP1 DUP5 MSTORE DUP3 DUP5 KECCAK256 ADD DUP1 SLOAD PUSH1 0x1 PUSH1 0x1 PUSH1 0xA0 SHL SUB NOT AND CALLER OR SWAP1 SSTORE DUP4 DUP4 MSTORE PUSH1 0x9 SWAP1 SWAP2 MSTORE DUP2 KECCAK256 SLOAD PUSH1 0xFF AND ISZERO PUSH2 0x33C4 JUMPI PUSH1 0x0 JUMPDEST PUSH1 0x0 DUP4 DUP2 MSTORE PUSH1 0x4 PUSH1 0x20 MSTORE PUSH1 0x40 SWAP1 KECCAK256 SLOAD DUP2 LT ISZERO PUSH2 0x33BE JUMPI PUSH1 0x0 DUP4 DUP2 MSTORE PUSH1 0xB PUSH1 0x20 SWAP1 DUP2 MSTORE PUSH1 0x40 DUP1 DUP4 KECCAK256 DUP5 DUP5 MSTORE DUP3 MSTORE DUP1 DUP4 KECCAK256 CALLER DUP5 MSTORE SWAP1 SWAP2 MSTORE SWAP1 KECCAK256 SLOAD PUSH2 0x3388 SWAP1 DUP4 PUSH2 0x5A3D JUMP JUMPDEST PUSH1 0x0 DUP5 DUP2 MSTORE PUSH1 0xB PUSH1 0x20 SWAP1 DUP2 MSTORE PUSH1 0x40 DUP1 DUP4 KECCAK256 DUP6 DUP5 MSTORE DUP3 MSTORE DUP1 DUP4 KECCAK256 CALLER DUP5 MSTORE SWAP1 SWAP2 MSTORE DUP2 KECCAK256 SSTORE SWAP2 POP DUP1 PUSH2 0x33B6 DUP2 PUSH2 0x5A50 JUMP JUMPDEST SWAP2 POP POP PUSH2 0x3346 JUMP JUMPDEST POP PUSH2 0x3536 JUMP JUMPDEST PUSH1 0x0 DUP3 DUP2 MSTORE PUSH1 0xB PUSH1 0x20 SWAP1 DUP2 MSTORE PUSH1 0x40 DUP1 DUP4 KECCAK256 PUSH1 0xC DUP4 MSTORE DUP2 DUP5 KECCAK256 SLOAD DUP5 MSTORE DUP3 MSTORE DUP1 DUP4 KECCAK256 CALLER DUP5 MSTORE SWAP1 SWAP2 MSTORE DUP2 KECCAK256 SLOAD DUP1 ISZERO PUSH2 0x3419 JUMPI CALLER PUSH1 0x0 SWAP1 DUP2 MSTORE PUSH1 0x1D PUSH1 0x20 SWAP1 DUP2 MSTORE PUSH1 0x40 DUP1 DUP4 KECCAK256 DUP8 DUP5 MSTORE SWAP1 SWAP2 MSTORE SWAP1 KECCAK256 DUP1 SLOAD PUSH1 0xFF NOT AND PUSH1 0x1 OR SWAP1 SSTORE JUMPDEST PUSH1 0x0 DUP5 DUP2 MSTORE PUSH1 0xB PUSH1 0x20 SWAP1 DUP2 MSTORE PUSH1 0x40 DUP1 DUP4 KECCAK256 PUSH1 0xC DUP4 MSTORE DUP2 DUP5 KECCAK256 DUP1 SLOAD DUP6 MSTORE SWAP1 DUP4 MSTORE DUP2 DUP5 KECCAK256 CALLER DUP6 MSTORE DUP4 MSTORE DUP2 DUP5 KECCAK256 DUP5 SWAP1 SSTORE DUP8 DUP5 MSTORE PUSH1 0xA DUP4 MSTORE DUP2 DUP5 KECCAK256 SWAP1 SLOAD DUP5 MSTORE SWAP1 SWAP2 MSTORE SWAP1 KECCAK256 SLOAD PUSH2 0x3464 DUP3 DUP3 PUSH2 0x5AA3 JUMP JUMPDEST PUSH1 0x0 DUP7 DUP2 MSTORE PUSH1 0xA PUSH1 0x20 SWAP1 DUP2 MSTORE PUSH1 0x40 DUP1 DUP4 KECCAK256 PUSH1 0xC DUP4 MSTORE DUP2 DUP5 KECCAK256 SLOAD DUP5 MSTORE DUP3 MSTORE DUP1 DUP4 KECCAK256 SWAP4 SWAP1 SWAP4 SSTORE DUP8 DUP3 MSTORE PUSH1 0x11 SWAP1 MSTORE KECCAK256 SLOAD DUP2 SWAP1 PUSH2 0x349D SWAP1 DUP5 PUSH2 0x5AB6 JUMP JUMPDEST PUSH2 0x34A7 SWAP2 SWAP1 PUSH2 0x5AE3 JUMP JUMPDEST SWAP3 POP PUSH2 0x34B3 DUP3 DUP5 PUSH2 0x5A3D JUMP JUMPDEST PUSH1 0x0 DUP7 DUP2 MSTORE PUSH1 0x11 PUSH1 0x20 MSTORE PUSH1 0x40 SWAP1 KECCAK256 SLOAD SWAP1 SWAP5 POP PUSH2 0x34D0 SWAP1 DUP5 SWAP1 PUSH2 0x5AA3 JUMP JUMPDEST PUSH1 0x0 DUP7 DUP2 MSTORE PUSH1 0x11 PUSH1 0x20 SWAP1 DUP2 MSTORE PUSH1 0x40 DUP1 DUP4 KECCAK256 SWAP4 SWAP1 SWAP4 SSTORE PUSH1 0x12 DUP2 MSTORE DUP3 DUP3 KECCAK256 SLOAD PUSH1 0x13 SWAP1 SWAP2 MSTORE SWAP2 SWAP1 KECCAK256 SLOAD PUSH2 0x3504 SWAP1 PUSH4 0x3B9ACA00 PUSH2 0x5AB6 JUMP JUMPDEST PUSH2 0x350E SWAP2 SWAP1 PUSH2 0x5AE3 JUMP JUMPDEST CALLER PUSH1 0x0 SWAP1 DUP2 MSTORE PUSH1 0x16 PUSH1 0x20 MSTORE PUSH1 0x40 DUP2 KECCAK256 DUP1 SLOAD SWAP1 SWAP2 SWAP1 PUSH2 0x352D SWAP1 DUP5 SWAP1 PUSH2 0x5A3D JUMP JUMPDEST SWAP1 SWAP2 SSTORE POP POP POP POP POP JUMPDEST PUSH2 0x3540 DUP2 DUP6 PUSH2 0x5A3D JUMP JUMPDEST SWAP4 POP POP JUMPDEST POP DUP1 PUSH2 0x354F DUP2 PUSH2 0x5A50 JUMP JUMPDEST SWAP2 POP POP PUSH2 0x32BB JUMP JUMPDEST POP PUSH2 0x326B CALLER DUP3 PUSH2 0x4D95 JUMP JUMPDEST PUSH1 0x60 PUSH1 0x0 DUP3 MLOAD PUSH1 0x1 PUSH1 0x1 PUSH1 0x40 SHL SUB DUP2 GT ISZERO PUSH2 0x357F JUMPI PUSH2 0x357F PUSH2 0x5198 JUMP JUMPDEST PUSH1 0x40 MLOAD SWAP1 DUP1 DUP3 MSTORE DUP1 PUSH1 0x20 MUL PUSH1 0x20 ADD DUP3 ADD PUSH1 0x40 MSTORE DUP1 ISZERO PUSH2 0x35A8 JUMPI DUP2 PUSH1 0x20 ADD PUSH1 0x20 DUP3 MUL DUP1 CALLDATASIZE DUP4 CALLDATACOPY ADD SWAP1 POP JUMPDEST POP DUP4 MLOAD SWAP1 SWAP2 POP PUSH1 0x0 SWAP1 JUMPDEST DUP1 ISZERO PUSH2 0x2933 JUMPI DUP5 DUP3 DUP2 MLOAD DUP2 LT PUSH2 0x35CA JUMPI PUSH2 0x35CA PUSH2 0x5A69 JUMP JUMPDEST PUSH1 0x20 MUL PUSH1 0x20 ADD ADD MLOAD DUP4 PUSH1 0x1 DUP4 PUSH2 0x35E0 SWAP2 SWAP1 PUSH2 0x5AA3 JUMP JUMPDEST DUP2 MLOAD DUP2 LT PUSH2 0x35F0 JUMPI PUSH2 0x35F0 PUSH2 0x5A69 JUMP JUMPDEST PUSH1 0x20 SWAP1 DUP2 MUL SWAP2 SWAP1 SWAP2 ADD ADD MSTORE DUP2 PUSH2 0x3605 DUP2 PUSH2 0x5A50 JUMP JUMPDEST SWAP3 POP POP DUP1 DUP1 PUSH2 0x3613 SWAP1 PUSH2 0x5C60 JUMP JUMPDEST SWAP2 POP POP PUSH2 0x35B2 JUMP JUMPDEST PUSH1 0x0 DUP2 PUSH1 0x40 MLOAD PUSH1 0x20 ADD PUSH2 0x362E SWAP2 SWAP1 PUSH2 0x5B0B JUMP JUMPDEST PUSH1 0x40 MLOAD PUSH1 0x20 DUP2 DUP4 SUB SUB DUP2 MSTORE SWAP1 PUSH1 0x40 MSTORE DUP1 MLOAD SWAP1 PUSH1 0x20 ADD KECCAK256 DUP4 PUSH1 0x40 MLOAD PUSH1 0x20 ADD PUSH2 0x3655 SWAP2 SWAP1 PUSH2 0x5B0B JUMP JUMPDEST PUSH1 0x40 MLOAD PUSH1 0x20 DUP2 DUP4 SUB SUB DUP2 MSTORE SWAP1 PUSH1 0x40 MSTORE DUP1 MLOAD SWAP1 PUSH1 0x20 ADD KECCAK256 EQ SWAP1 POP SWAP3 SWAP2 POP POP JUMP JUMPDEST PUSH1 0x0 DUP1 MLOAD PUSH1 0x20 PUSH2 0x5E05 DUP4 CODECOPY DUP2 MLOAD SWAP2 MSTORE PUSH2 0x368C DUP2 PUSH2 0x4A69 JUMP JUMPDEST DUP2 MLOAD DUP4 MLOAD EQ PUSH2 0x36D8 JUMPI PUSH1 0x40 MLOAD PUSH3 0x461BCD PUSH1 0xE5 SHL DUP2 MSTORE PUSH1 0x20 PUSH1 0x4 DUP3 ADD MSTORE PUSH1 0x18 PUSH1 0x24 DUP3 ADD MSTORE PUSH24 0x6E6F7473616D65616D6F756E746265747377696E6E657273 PUSH1 0x40 SHL PUSH1 0x44 DUP3 ADD MSTORE PUSH1 0x64 ADD PUSH2 0xA91 JUMP JUMPDEST PUSH1 0x0 JUMPDEST DUP4 MLOAD DUP2 LT ISZERO PUSH2 0x3926 JUMPI PUSH1 0x0 DUP5 DUP3 DUP2 MLOAD DUP2 LT PUSH2 0x36F8 JUMPI PUSH2 0x36F8 PUSH2 0x5A69 JUMP JUMPDEST PUSH1 0x20 SWAP1 DUP2 MUL SWAP2 SWAP1 SWAP2 ADD DUP2 ADD MLOAD PUSH1 0x0 DUP2 DUP2 MSTORE PUSH1 0x7 SWAP1 SWAP3 MSTORE PUSH1 0x40 SWAP1 SWAP2 KECCAK256 SLOAD SWAP1 SWAP2 POP PUSH1 0xFF AND ISZERO ISZERO PUSH1 0x1 EQ DUP1 ISZERO PUSH2 0x3753 JUMPI POP PUSH1 0x0 DUP2 DUP2 MSTORE PUSH1 0x4 PUSH1 0x20 MSTORE PUSH1 0x40 SWAP1 KECCAK256 SLOAD DUP5 MLOAD DUP6 SWAP1 DUP5 SWAP1 DUP2 LT PUSH2 0x3749 JUMPI PUSH2 0x3749 PUSH2 0x5A69 JUMP JUMPDEST PUSH1 0x20 MUL PUSH1 0x20 ADD ADD MLOAD LT JUMPDEST ISZERO PUSH2 0x3913 JUMPI PUSH1 0x0 DUP2 DUP2 MSTORE PUSH1 0x8 PUSH1 0x20 MSTORE PUSH1 0x40 SWAP1 KECCAK256 DUP1 SLOAD PUSH1 0xFF NOT AND PUSH1 0x1 OR SWAP1 SSTORE DUP4 MLOAD DUP5 SWAP1 DUP4 SWAP1 DUP2 LT PUSH2 0x3785 JUMPI PUSH2 0x3785 PUSH2 0x5A69 JUMP JUMPDEST PUSH1 0x20 SWAP1 DUP2 MUL SWAP2 SWAP1 SWAP2 ADD DUP2 ADD MLOAD PUSH1 0x0 DUP4 DUP2 MSTORE PUSH1 0xC SWAP1 SWAP3 MSTORE PUSH1 0x40 DUP3 KECCAK256 SSTORE DUP1 JUMPDEST PUSH1 0x0 DUP4 DUP2 MSTORE PUSH1 0x4 PUSH1 0x20 MSTORE PUSH1 0x40 SWAP1 KECCAK256 SLOAD DUP2 LT ISZERO PUSH2 0x386F JUMPI PUSH1 0x0 DUP7 DUP6 DUP2 MLOAD DUP2 LT PUSH2 0x37CC JUMPI PUSH2 0x37CC PUSH2 0x5A69 JUMP JUMPDEST PUSH1 0x20 MUL PUSH1 0x20 ADD ADD MLOAD DUP3 EQ PUSH2 0x385C JUMPI PUSH1 0xD SLOAD PUSH1 0x0 DUP6 DUP2 MSTORE PUSH1 0xA PUSH1 0x20 SWAP1 DUP2 MSTORE PUSH1 0x40 DUP1 DUP4 KECCAK256 DUP7 DUP5 MSTORE SWAP1 SWAP2 MSTORE SWAP1 KECCAK256 SLOAD PUSH1 0x64 SWAP2 PUSH2 0x3803 SWAP2 PUSH2 0x5AB6 JUMP JUMPDEST PUSH2 0x380D SWAP2 SWAP1 PUSH2 0x5AE3 JUMP JUMPDEST SWAP1 POP PUSH2 0x3819 DUP2 DUP5 PUSH2 0x5A3D JUMP JUMPDEST PUSH1 0x0 DUP6 DUP2 MSTORE PUSH1 0xA PUSH1 0x20 SWAP1 DUP2 MSTORE PUSH1 0x40 DUP1 DUP4 KECCAK256 DUP7 DUP5 MSTORE SWAP1 SWAP2 MSTORE SWAP1 KECCAK256 SLOAD SWAP1 SWAP4 POP PUSH2 0x3841 SWAP1 DUP3 SWAP1 PUSH2 0x5AA3 JUMP JUMPDEST PUSH1 0x0 DUP6 DUP2 MSTORE PUSH1 0xA PUSH1 0x20 SWAP1 DUP2 MSTORE PUSH1 0x40 DUP1 DUP4 KECCAK256 DUP7 DUP5 MSTORE SWAP1 SWAP2 MSTORE SWAP1 KECCAK256 SSTORE JUMPDEST POP DUP1 PUSH2 0x3867 DUP2 PUSH2 0x5A50 JUMP JUMPDEST SWAP2 POP POP PUSH2 0x37A2 JUMP JUMPDEST POP DUP1 PUSH1 0xE SLOAD PUSH2 0x387E SWAP2 SWAP1 PUSH2 0x5A3D JUMP JUMPDEST PUSH1 0xE SSTORE PUSH2 0x388A DUP3 PUSH2 0x4B66 JUMP JUMPDEST PUSH1 0x0 DUP4 DUP2 MSTORE PUSH1 0x11 PUSH1 0x20 SWAP1 DUP2 MSTORE PUSH1 0x40 DUP1 DUP4 KECCAK256 SWAP4 SWAP1 SWAP4 SSTORE PUSH1 0xA DUP2 MSTORE DUP3 DUP3 KECCAK256 PUSH1 0xC DUP3 MSTORE DUP4 DUP4 KECCAK256 SLOAD DUP4 MSTORE DUP2 MSTORE DUP3 DUP3 KECCAK256 SLOAD DUP6 DUP4 MSTORE PUSH1 0x12 SWAP1 SWAP2 MSTORE SWAP2 SWAP1 KECCAK256 SSTORE PUSH2 0x38CB DUP3 PUSH2 0x4B66 JUMP JUMPDEST PUSH1 0x0 DUP4 DUP2 MSTORE PUSH1 0x13 PUSH1 0x20 MSTORE PUSH1 0x40 SWAP1 KECCAK256 SSTORE DUP5 MLOAD DUP6 SWAP1 DUP5 SWAP1 DUP2 LT PUSH2 0x38EE JUMPI PUSH2 0x38EE PUSH2 0x5A69 JUMP JUMPDEST PUSH1 0x20 MUL PUSH1 0x20 ADD ADD MLOAD DUP3 PUSH1 0x0 DUP1 MLOAD PUSH1 0x20 PUSH2 0x5E45 DUP4 CODECOPY DUP2 MLOAD SWAP2 MSTORE PUSH1 0x40 MLOAD PUSH1 0x40 MLOAD DUP1 SWAP2 SUB SWAP1 LOG3 POP JUMPDEST POP DUP1 PUSH2 0x391E DUP2 PUSH2 0x5A50 JUMP JUMPDEST SWAP2 POP POP PUSH2 0x36DB JUMP JUMPDEST POP POP POP POP JUMP JUMPDEST PUSH1 0x0 DUP3 DUP2 MSTORE PUSH1 0x1A PUSH1 0x20 SWAP1 DUP2 MSTORE PUSH1 0x40 DUP1 DUP4 KECCAK256 DUP5 DUP5 MSTORE DUP3 MSTORE SWAP2 DUP3 SWAP1 KECCAK256 DUP1 SLOAD DUP4 MLOAD DUP2 DUP5 MUL DUP2 ADD DUP5 ADD SWAP1 SWAP5 MSTORE DUP1 DUP5 MSTORE PUSH1 0x60 SWAP4 SWAP3 DUP4 ADD DUP3 DUP3 DUP1 ISZERO PUSH2 0x15E3 JUMPI PUSH1 0x20 MUL DUP3 ADD SWAP2 SWAP1 PUSH1 0x0 MSTORE PUSH1 0x20 PUSH1 0x0 KECCAK256 SWAP1 JUMPDEST DUP2 SLOAD PUSH1 0x1 PUSH1 0x1 PUSH1 0xA0 SHL SUB AND DUP2 MSTORE PUSH1 0x1 SWAP1 SWAP2 ADD SWAP1 PUSH1 0x20 ADD DUP1 DUP4 GT PUSH2 0x3976 JUMPI POP POP POP POP POP SWAP1 POP SWAP3 SWAP2 POP POP JUMP JUMPDEST PUSH1 0x1 PUSH1 0x1 PUSH1 0xA0 SHL SUB DUP2 AND PUSH1 0x0 SWAP1 DUP2 MSTORE PUSH1 0x1B PUSH1 0x20 SWAP1 DUP2 MSTORE PUSH1 0x40 SWAP2 DUP3 SWAP1 KECCAK256 DUP1 SLOAD DUP4 MLOAD DUP2 DUP5 MUL DUP2 ADD DUP5 ADD SWAP1 SWAP5 MSTORE DUP1 DUP5 MSTORE PUSH1 0x60 SWAP4 SWAP3 DUP4 ADD DUP3 DUP3 DUP1 ISZERO PUSH2 0xF13 JUMPI PUSH1 0x20 MUL DUP3 ADD SWAP2 SWAP1 PUSH1 0x0 MSTORE PUSH1 0x20 PUSH1 0x0 KECCAK256 SWAP1 DUP2 SLOAD DUP2 MSTORE PUSH1 0x20 ADD SWAP1 PUSH1 0x1 ADD SWAP1 DUP1 DUP4 GT PUSH2 0xEFF JUMPI POP POP POP POP POP SWAP1 POP SWAP2 SWAP1 POP JUMP JUMPDEST PUSH1 0x0 DUP3 DUP2 MSTORE PUSH1 0xF PUSH1 0x20 SWAP1 DUP2 MSTORE PUSH1 0x40 DUP1 DUP4 KECCAK256 DUP1 SLOAD DUP3 MLOAD DUP2 DUP6 MUL DUP2 ADD DUP6 ADD SWAP1 SWAP4 MSTORE DUP1 DUP4 MSTORE PUSH2 0x1766 SWAP4 DUP7 SWAP4 SWAP3 SWAP2 SWAP1 DUP4 ADD DUP3 DUP3 DUP1 ISZERO PUSH2 0xBDF JUMPI PUSH1 0x20 MUL DUP3 ADD SWAP2 SWAP1 PUSH1 0x0 MSTORE PUSH1 0x20 PUSH1 0x0 KECCAK256 SWAP1 DUP2 SLOAD PUSH1 0x1 PUSH1 0x1 PUSH1 0xA0 SHL SUB AND DUP2 MSTORE PUSH1 0x1 SWAP1 SWAP2 ADD SWAP1 PUSH1 0x20 ADD DUP1 DUP4 GT PUSH2 0xBC1 JUMPI POP POP POP POP POP PUSH2 0x3AA7 JUMP JUMPDEST PUSH2 0x3A7F DUP3 PUSH2 0xD8B JUMP JUMPDEST PUSH2 0x3A88 DUP2 PUSH2 0x4A69 JUMP JUMPDEST PUSH2 0xD86 DUP4 DUP4 PUSH2 0x4AF7 JUMP JUMPDEST PUSH1 0x0 SWAP1 DUP2 MSTORE PUSH1 0x7 PUSH1 0x20 MSTORE PUSH1 0x40 SWAP1 KECCAK256 SLOAD PUSH1 0xFF AND SWAP1 JUMP JUMPDEST PUSH1 0x0 DUP1 JUMPDEST DUP3 MLOAD DUP2 LT ISZERO PUSH2 0x1417 JUMPI DUP4 PUSH1 0x1 PUSH1 0x1 PUSH1 0xA0 SHL SUB AND DUP4 DUP3 DUP2 MLOAD DUP2 LT PUSH2 0x3AD0 JUMPI PUSH2 0x3AD0 PUSH2 0x5A69 JUMP JUMPDEST PUSH1 0x20 MUL PUSH1 0x20 ADD ADD MLOAD PUSH1 0x1 PUSH1 0x1 PUSH1 0xA0 SHL SUB AND SUB PUSH2 0x3AF0 JUMPI PUSH1 0x1 SWAP2 POP POP PUSH2 0xA02 JUMP JUMPDEST DUP1 PUSH2 0x3AFA DUP2 PUSH2 0x5A50 JUMP JUMPDEST SWAP2 POP POP PUSH2 0x3AAB JUMP JUMPDEST PUSH1 0x60 PUSH1 0x0 PUSH1 0x1 DUP4 MLOAD PUSH2 0x3B14 SWAP2 SWAP1 PUSH2 0x5AA3 JUMP JUMPDEST PUSH1 0x1 PUSH1 0x1 PUSH1 0x40 SHL SUB DUP2 GT ISZERO PUSH2 0x3B2B JUMPI PUSH2 0x3B2B PUSH2 0x5198 JUMP JUMPDEST PUSH1 0x40 MLOAD SWAP1 DUP1 DUP3 MSTORE DUP1 PUSH1 0x20 MUL PUSH1 0x20 ADD DUP3 ADD PUSH1 0x40 MSTORE DUP1 ISZERO PUSH2 0x3B54 JUMPI DUP2 PUSH1 0x20 ADD PUSH1 0x20 DUP3 MUL DUP1 CALLDATASIZE DUP4 CALLDATACOPY ADD SWAP1 POP JUMPDEST POP SWAP1 POP PUSH1 0x0 JUMPDEST DUP5 DUP2 LT ISZERO PUSH2 0x3BAB JUMPI DUP4 DUP2 DUP2 MLOAD DUP2 LT PUSH2 0x3B74 JUMPI PUSH2 0x3B74 PUSH2 0x5A69 JUMP JUMPDEST PUSH1 0x20 MUL PUSH1 0x20 ADD ADD MLOAD DUP3 DUP3 DUP2 MLOAD DUP2 LT PUSH2 0x3B8E JUMPI PUSH2 0x3B8E PUSH2 0x5A69 JUMP JUMPDEST PUSH1 0x20 SWAP1 DUP2 MUL SWAP2 SWAP1 SWAP2 ADD ADD MSTORE DUP1 PUSH2 0x3BA3 DUP2 PUSH2 0x5A50 JUMP JUMPDEST SWAP2 POP POP PUSH2 0x3B5A JUMP JUMPDEST POP DUP4 JUMPDEST PUSH1 0x1 DUP5 MLOAD PUSH2 0x3BBC SWAP2 SWAP1 PUSH2 0x5AA3 JUMP JUMPDEST DUP2 LT ISZERO PUSH2 0x3C16 JUMPI DUP4 PUSH2 0x3BCF DUP3 PUSH1 0x1 PUSH2 0x5A3D JUMP JUMPDEST DUP2 MLOAD DUP2 LT PUSH2 0x3BDF JUMPI PUSH2 0x3BDF PUSH2 0x5A69 JUMP JUMPDEST PUSH1 0x20 MUL PUSH1 0x20 ADD ADD MLOAD DUP3 DUP3 DUP2 MLOAD DUP2 LT PUSH2 0x3BF9 JUMPI PUSH2 0x3BF9 PUSH2 0x5A69 JUMP JUMPDEST PUSH1 0x20 SWAP1 DUP2 MUL SWAP2 SWAP1 SWAP2 ADD ADD MSTORE DUP1 PUSH2 0x3C0E DUP2 PUSH2 0x5A50 JUMP JUMPDEST SWAP2 POP POP PUSH2 0x3BAE JUMP JUMPDEST POP SWAP4 SWAP3 POP POP POP JUMP JUMPDEST PUSH1 0x0 DUP1 MLOAD PUSH1 0x20 PUSH2 0x5DE5 DUP4 CODECOPY DUP2 MLOAD SWAP2 MSTORE PUSH2 0x3C36 DUP2 PUSH2 0x4A69 JUMP JUMPDEST PUSH1 0x0 JUMPDEST DUP3 MLOAD DUP2 LT ISZERO PUSH2 0xD86 JUMPI PUSH1 0x1 PUSH1 0x7 PUSH1 0x0 DUP6 DUP5 DUP2 MLOAD DUP2 LT PUSH2 0x3C5A JUMPI PUSH2 0x3C5A PUSH2 0x5A69 JUMP JUMPDEST PUSH1 0x20 MUL PUSH1 0x20 ADD ADD MLOAD DUP2 MSTORE PUSH1 0x20 ADD SWAP1 DUP2 MSTORE PUSH1 0x20 ADD PUSH1 0x0 KECCAK256 PUSH1 0x0 PUSH2 0x100 EXP DUP2 SLOAD DUP2 PUSH1 0xFF MUL NOT AND SWAP1 DUP4 ISZERO ISZERO MUL OR SWAP1 SSTORE POP DUP1 DUP1 PUSH2 0x3C92 SWAP1 PUSH2 0x5A50 JUMP JUMPDEST SWAP2 POP POP PUSH2 0x3C39 JUMP JUMPDEST PUSH1 0x0 DUP3 DUP2 MSTORE PUSH1 0x8 PUSH1 0x20 MSTORE PUSH1 0x40 DUP2 KECCAK256 SLOAD PUSH1 0xFF AND ISZERO DUP1 ISZERO PUSH2 0x3CC8 JUMPI POP PUSH1 0x0 DUP4 DUP2 MSTORE PUSH1 0x9 PUSH1 0x20 MSTORE PUSH1 0x40 SWAP1 KECCAK256 SLOAD PUSH1 0xFF AND ISZERO JUMPDEST ISZERO PUSH2 0x3CD5 JUMPI POP PUSH1 0x0 PUSH2 0xA02 JUMP JUMPDEST PUSH1 0x0 DUP4 DUP2 MSTORE PUSH1 0x9 PUSH1 0x20 MSTORE PUSH1 0x40 SWAP1 KECCAK256 SLOAD PUSH1 0xFF AND ISZERO ISZERO PUSH1 0x1 SUB PUSH2 0x3D5F JUMPI PUSH1 0x0 JUMPDEST PUSH1 0x0 DUP5 DUP2 MSTORE PUSH1 0x4 PUSH1 0x20 MSTORE PUSH1 0x40 SWAP1 KECCAK256 SLOAD DUP2 LT ISZERO PUSH2 0x3D55 JUMPI PUSH1 0x0 DUP5 DUP2 MSTORE PUSH1 0xB PUSH1 0x20 SWAP1 DUP2 MSTORE PUSH1 0x40 DUP1 DUP4 KECCAK256 DUP5 DUP5 MSTORE DUP3 MSTORE DUP1 DUP4 KECCAK256 PUSH1 0x1 PUSH1 0x1 PUSH1 0xA0 SHL SUB DUP8 AND DUP5 MSTORE SWAP1 SWAP2 MSTORE SWAP1 KECCAK256 SLOAD ISZERO PUSH2 0x3D43 JUMPI PUSH1 0x1 SWAP2 POP POP PUSH2 0xA02 JUMP JUMPDEST DUP1 PUSH2 0x3D4D DUP2 PUSH2 0x5A50 JUMP JUMPDEST SWAP2 POP POP PUSH2 0x3CF3 JUMP JUMPDEST POP PUSH1 0x0 SWAP1 POP PUSH2 0xA02 JUMP JUMPDEST PUSH1 0x0 DUP4 DUP2 MSTORE PUSH1 0xB PUSH1 0x20 SWAP1 DUP2 MSTORE PUSH1 0x40 DUP1 DUP4 KECCAK256 PUSH1 0xC DUP4 MSTORE DUP2 DUP5 KECCAK256 SLOAD DUP5 MSTORE DUP3 MSTORE DUP1 DUP4 KECCAK256 PUSH1 0x1 PUSH1 0x1 PUSH1 0xA0 SHL SUB DUP7 AND DUP5 MSTORE SWAP1 SWAP2 MSTORE SWAP1 KECCAK256 SLOAD ISZERO DUP1 ISZERO SWAP1 PUSH2 0x1766 JUMPI POP PUSH2 0x3E0D DUP3 PUSH1 0xF PUSH1 0x0 DUP7 DUP2 MSTORE PUSH1 0x20 ADD SWAP1 DUP2 MSTORE PUSH1 0x20 ADD PUSH1 0x0 KECCAK256 DUP1 SLOAD DUP1 PUSH1 0x20 MUL PUSH1 0x20 ADD PUSH1 0x40 MLOAD SWAP1 DUP2 ADD PUSH1 0x40 MSTORE DUP1 SWAP3 SWAP2 SWAP1 DUP2 DUP2 MSTORE PUSH1 0x20 ADD DUP3 DUP1 SLOAD DUP1 ISZERO PUSH2 0xBDF JUMPI PUSH1 0x20 MUL DUP3 ADD SWAP2 SWAP1 PUSH1 0x0 MSTORE PUSH1 0x20 PUSH1 0x0 KECCAK256 SWAP1 DUP2 SLOAD PUSH1 0x1 PUSH1 0x1 PUSH1 0xA0 SHL SUB AND DUP2 MSTORE PUSH1 0x1 SWAP1 SWAP2 ADD SWAP1 PUSH1 0x20 ADD DUP1 DUP4 GT PUSH2 0xBC1 JUMPI POP POP POP POP POP PUSH2 0x3AA7 JUMP JUMPDEST ISZERO SWAP4 SWAP3 POP POP POP JUMP JUMPDEST PUSH1 0x0 DUP1 DUP1 PUSH2 0x3E22 DUP5 PUSH2 0x39A0 JUMP JUMPDEST MLOAD SWAP1 POP PUSH1 0x0 DUP1 PUSH1 0x0 DUP4 PUSH1 0x1 PUSH1 0x1 PUSH1 0x40 SHL SUB DUP2 GT ISZERO PUSH2 0x3E42 JUMPI PUSH2 0x3E42 PUSH2 0x5198 JUMP JUMPDEST PUSH1 0x40 MLOAD SWAP1 DUP1 DUP3 MSTORE DUP1 PUSH1 0x20 MUL PUSH1 0x20 ADD DUP3 ADD PUSH1 0x40 MSTORE DUP1 ISZERO PUSH2 0x3E7B JUMPI DUP2 PUSH1 0x20 ADD JUMPDEST PUSH2 0x3E68 PUSH2 0x5032 JUMP JUMPDEST DUP2 MSTORE PUSH1 0x20 ADD SWAP1 PUSH1 0x1 SWAP1 SUB SWAP1 DUP2 PUSH2 0x3E60 JUMPI SWAP1 POP JUMPDEST POP SWAP1 POP PUSH1 0x0 JUMPDEST DUP5 DUP2 LT ISZERO PUSH2 0x3ECE JUMPI PUSH1 0x40 MLOAD DUP1 PUSH1 0x40 ADD PUSH1 0x40 MSTORE DUP1 DUP5 DUP2 MSTORE PUSH1 0x20 ADD DUP5 DUP2 MSTORE POP DUP3 DUP3 DUP2 MLOAD DUP2 LT PUSH2 0x3EB0 JUMPI PUSH2 0x3EB0 PUSH2 0x5A69 JUMP JUMPDEST PUSH1 0x20 MUL PUSH1 0x20 ADD ADD DUP2 SWAP1 MSTORE POP DUP1 DUP1 PUSH2 0x3EC6 SWAP1 PUSH2 0x5A50 JUMP JUMPDEST SWAP2 POP POP PUSH2 0x3E81 JUMP JUMPDEST POP PUSH1 0x0 JUMPDEST PUSH1 0x1 PUSH1 0x1 PUSH1 0xA0 SHL SUB DUP9 AND PUSH1 0x0 SWAP1 DUP2 MSTORE PUSH1 0x1B PUSH1 0x20 MSTORE PUSH1 0x40 SWAP1 KECCAK256 SLOAD DUP2 LT ISZERO PUSH2 0x4847 JUMPI PUSH1 0x1 PUSH1 0x1 PUSH1 0xA0 SHL SUB DUP9 AND PUSH1 0x0 SWAP1 DUP2 MSTORE PUSH1 0x1B PUSH1 0x20 MSTORE PUSH1 0x40 DUP2 KECCAK256 DUP1 SLOAD DUP4 SWAP1 DUP2 LT PUSH2 0x3F1C JUMPI PUSH2 0x3F1C PUSH2 0x5A69 JUMP JUMPDEST SWAP1 PUSH1 0x0 MSTORE PUSH1 0x20 PUSH1 0x0 KECCAK256 ADD SLOAD SWAP1 POP PUSH2 0x3F32 DUP2 PUSH2 0xDA0 JUMP JUMPDEST ISZERO PUSH2 0x4568 JUMPI PUSH1 0x0 JUMPDEST PUSH1 0x1 PUSH1 0x1 PUSH1 0xA0 SHL SUB DUP11 AND PUSH1 0x0 SWAP1 DUP2 MSTORE PUSH1 0x1C PUSH1 0x20 SWAP1 DUP2 MSTORE PUSH1 0x40 DUP1 DUP4 KECCAK256 DUP6 DUP5 MSTORE SWAP1 SWAP2 MSTORE SWAP1 KECCAK256 SLOAD DUP2 LT ISZERO PUSH2 0x4566 JUMPI PUSH1 0x1 PUSH1 0x1 PUSH1 0xA0 SHL SUB DUP11 AND PUSH1 0x0 SWAP1 DUP2 MSTORE PUSH1 0x1C PUSH1 0x20 SWAP1 DUP2 MSTORE PUSH1 0x40 DUP1 DUP4 KECCAK256 DUP6 DUP5 MSTORE SWAP1 SWAP2 MSTORE DUP2 KECCAK256 DUP1 SLOAD DUP4 SWAP1 DUP2 LT PUSH2 0x3F9A JUMPI PUSH2 0x3F9A PUSH2 0x5A69 JUMP JUMPDEST PUSH1 0x0 SWAP2 DUP3 MSTORE PUSH1 0x20 DUP1 DUP4 KECCAK256 SWAP1 SWAP2 ADD SLOAD DUP6 DUP4 MSTORE PUSH1 0x1A DUP3 MSTORE PUSH1 0x40 DUP1 DUP5 KECCAK256 DUP3 DUP6 MSTORE DUP4 MSTORE SWAP3 DUP4 SWAP1 KECCAK256 DUP1 SLOAD DUP5 MLOAD DUP2 DUP6 MUL DUP2 ADD DUP6 ADD SWAP1 SWAP6 MSTORE DUP1 DUP6 MSTORE SWAP2 SWAP5 POP PUSH2 0x401B SWAP4 DUP16 SWAP4 SWAP1 SWAP3 SWAP1 DUP4 ADD DUP3 DUP3 DUP1 ISZERO PUSH2 0xBDF JUMPI PUSH1 0x20 MUL DUP3 ADD SWAP2 SWAP1 PUSH1 0x0 MSTORE PUSH1 0x20 PUSH1 0x0 KECCAK256 SWAP1 DUP2 SLOAD PUSH1 0x1 PUSH1 0x1 PUSH1 0xA0 SHL SUB AND DUP2 MSTORE PUSH1 0x1 SWAP1 SWAP2 ADD SWAP1 PUSH1 0x20 ADD DUP1 DUP4 GT PUSH2 0xBC1 JUMPI POP POP POP POP POP PUSH2 0x3AA7 JUMP JUMPDEST ISZERO DUP1 ISZERO PUSH2 0x4043 JUMPI POP PUSH2 0x4041 PUSH1 0x40 MLOAD DUP1 PUSH1 0x40 ADD PUSH1 0x40 MSTORE DUP1 DUP6 DUP2 MSTORE PUSH1 0x20 ADD DUP4 DUP2 MSTORE POP DUP7 PUSH2 0x1371 JUMP JUMPDEST ISZERO JUMPDEST ISZERO PUSH2 0x4553 JUMPI PUSH1 0x0 DUP4 DUP2 MSTORE PUSH1 0x17 PUSH1 0x20 MSTORE PUSH1 0x40 SWAP1 KECCAK256 DUP1 SLOAD DUP3 SWAP1 DUP2 LT PUSH2 0x4068 JUMPI PUSH2 0x4068 PUSH2 0x5A69 JUMP JUMPDEST PUSH1 0x0 SWAP2 DUP3 MSTORE PUSH1 0x20 SWAP1 SWAP2 KECCAK256 PUSH1 0x1 PUSH1 0x9 SWAP1 SWAP3 MUL ADD ADD SLOAD PUSH1 0x1 PUSH1 0x1 PUSH1 0xA0 SHL SUB DUP13 DUP2 AND SWAP2 AND EQ DUP1 ISZERO PUSH2 0x40CE JUMPI POP PUSH1 0x0 DUP4 DUP2 MSTORE PUSH1 0x17 PUSH1 0x20 MSTORE PUSH1 0x40 SWAP1 KECCAK256 DUP1 SLOAD DUP3 SWAP1 DUP2 LT PUSH2 0x40B1 JUMPI PUSH2 0x40B1 PUSH2 0x5A69 JUMP JUMPDEST SWAP1 PUSH1 0x0 MSTORE PUSH1 0x20 PUSH1 0x0 KECCAK256 SWAP1 PUSH1 0x9 MUL ADD PUSH1 0x6 ADD SLOAD PUSH2 0x40CC DUP5 PUSH2 0xEA1 JUMP JUMPDEST EQ JUMPDEST ISZERO PUSH2 0x41DB JUMPI PUSH1 0x40 MLOAD DUP1 PUSH1 0x40 ADD PUSH1 0x40 MSTORE DUP1 DUP5 DUP2 MSTORE PUSH1 0x20 ADD DUP3 DUP2 MSTORE POP DUP6 DUP9 DUP2 MLOAD DUP2 LT PUSH2 0x40FA JUMPI PUSH2 0x40FA PUSH2 0x5A69 JUMP JUMPDEST PUSH1 0x20 MUL PUSH1 0x20 ADD ADD DUP2 SWAP1 MSTORE POP DUP7 DUP1 PUSH2 0x4110 SWAP1 PUSH2 0x5A50 JUMP JUMPDEST SWAP8 POP POP PUSH1 0x0 PUSH1 0x17 PUSH1 0x0 DUP6 DUP2 MSTORE PUSH1 0x20 ADD SWAP1 DUP2 MSTORE PUSH1 0x20 ADD PUSH1 0x0 KECCAK256 DUP3 DUP2 SLOAD DUP2 LT PUSH2 0x4139 JUMPI PUSH2 0x4139 PUSH2 0x5A69 JUMP JUMPDEST SWAP1 PUSH1 0x0 MSTORE PUSH1 0x20 PUSH1 0x0 KECCAK256 SWAP1 PUSH1 0x9 MUL ADD PUSH1 0x2 ADD SLOAD PUSH1 0x17 PUSH1 0x0 DUP7 DUP2 MSTORE PUSH1 0x20 ADD SWAP1 DUP2 MSTORE PUSH1 0x20 ADD PUSH1 0x0 KECCAK256 DUP4 DUP2 SLOAD DUP2 LT PUSH2 0x416F JUMPI PUSH2 0x416F PUSH2 0x5A69 JUMP JUMPDEST SWAP1 PUSH1 0x0 MSTORE PUSH1 0x20 PUSH1 0x0 KECCAK256 SWAP1 PUSH1 0x9 MUL ADD PUSH1 0x4 ADD SLOAD PUSH1 0x17 PUSH1 0x0 DUP8 DUP2 MSTORE PUSH1 0x20 ADD SWAP1 DUP2 MSTORE PUSH1 0x20 ADD PUSH1 0x0 KECCAK256 DUP5 DUP2 SLOAD DUP2 LT PUSH2 0x41A5 JUMPI PUSH2 0x41A5 PUSH2 0x5A69 JUMP JUMPDEST SWAP1 PUSH1 0x0 MSTORE PUSH1 0x20 PUSH1 0x0 KECCAK256 SWAP1 PUSH1 0x9 MUL ADD PUSH1 0x3 ADD SLOAD PUSH2 0x41C1 SWAP2 SWAP1 PUSH2 0x5AA3 JUMP JUMPDEST PUSH2 0x41CB SWAP2 SWAP1 PUSH2 0x5A3D JUMP JUMPDEST SWAP1 POP PUSH2 0x41D7 DUP2 DUP12 PUSH2 0x5A3D JUMP JUMPDEST SWAP10 POP POP JUMPDEST PUSH1 0x0 DUP4 DUP2 MSTORE PUSH1 0x17 PUSH1 0x20 MSTORE PUSH1 0x40 SWAP1 KECCAK256 DUP1 SLOAD DUP3 SWAP1 DUP2 LT PUSH2 0x41FB JUMPI PUSH2 0x41FB PUSH2 0x5A69 JUMP JUMPDEST PUSH1 0x0 SWAP2 DUP3 MSTORE PUSH1 0x20 SWAP1 SWAP2 KECCAK256 PUSH1 0x1 PUSH1 0x9 SWAP1 SWAP3 MUL ADD ADD SLOAD PUSH1 0x1 PUSH1 0x1 PUSH1 0xA0 SHL SUB DUP13 DUP2 AND SWAP2 AND EQ DUP1 ISZERO PUSH2 0x4262 JUMPI POP PUSH1 0x0 DUP4 DUP2 MSTORE PUSH1 0x17 PUSH1 0x20 MSTORE PUSH1 0x40 SWAP1 KECCAK256 DUP1 SLOAD DUP3 SWAP1 DUP2 LT PUSH2 0x4244 JUMPI PUSH2 0x4244 PUSH2 0x5A69 JUMP JUMPDEST SWAP1 PUSH1 0x0 MSTORE PUSH1 0x20 PUSH1 0x0 KECCAK256 SWAP1 PUSH1 0x9 MUL ADD PUSH1 0x6 ADD SLOAD PUSH2 0x425F DUP5 PUSH2 0xEA1 JUMP JUMPDEST EQ ISZERO JUMPDEST ISZERO PUSH2 0x436F JUMPI PUSH1 0x40 MLOAD DUP1 PUSH1 0x40 ADD PUSH1 0x40 MSTORE DUP1 DUP5 DUP2 MSTORE PUSH1 0x20 ADD DUP3 DUP2 MSTORE POP DUP6 DUP9 DUP2 MLOAD DUP2 LT PUSH2 0x428E JUMPI PUSH2 0x428E PUSH2 0x5A69 JUMP JUMPDEST PUSH1 0x20 MUL PUSH1 0x20 ADD ADD DUP2 SWAP1 MSTORE POP DUP7 DUP1 PUSH2 0x42A4 SWAP1 PUSH2 0x5A50 JUMP JUMPDEST SWAP8 POP POP PUSH1 0x0 PUSH1 0x17 PUSH1 0x0 DUP6 DUP2 MSTORE PUSH1 0x20 ADD SWAP1 DUP2 MSTORE PUSH1 0x20 ADD PUSH1 0x0 KECCAK256 DUP3 DUP2 SLOAD DUP2 LT PUSH2 0x42CD JUMPI PUSH2 0x42CD PUSH2 0x5A69 JUMP JUMPDEST SWAP1 PUSH1 0x0 MSTORE PUSH1 0x20 PUSH1 0x0 KECCAK256 SWAP1 PUSH1 0x9 MUL ADD PUSH1 0x3 ADD SLOAD PUSH1 0x17 PUSH1 0x0 DUP7 DUP2 MSTORE PUSH1 0x20 ADD SWAP1 DUP2 MSTORE PUSH1 0x20 ADD PUSH1 0x0 KECCAK256 DUP4 DUP2 SLOAD DUP2 LT PUSH2 0x4303 JUMPI PUSH2 0x4303 PUSH2 0x5A69 JUMP JUMPDEST SWAP1 PUSH1 0x0 MSTORE PUSH1 0x20 PUSH1 0x0 KECCAK256 SWAP1 PUSH1 0x9 MUL ADD PUSH1 0x4 ADD SLOAD PUSH1 0x17 PUSH1 0x0 DUP8 DUP2 MSTORE PUSH1 0x20 ADD SWAP1 DUP2 MSTORE PUSH1 0x20 ADD PUSH1 0x0 KECCAK256 DUP5 DUP2 SLOAD DUP2 LT PUSH2 0x4339 JUMPI PUSH2 0x4339 PUSH2 0x5A69 JUMP JUMPDEST SWAP1 PUSH1 0x0 MSTORE PUSH1 0x20 PUSH1 0x0 KECCAK256 SWAP1 PUSH1 0x9 MUL ADD PUSH1 0x2 ADD SLOAD PUSH2 0x4355 SWAP2 SWAP1 PUSH2 0x5AB6 JUMP JUMPDEST PUSH2 0x435F SWAP2 SWAP1 PUSH2 0x5AE3 JUMP JUMPDEST SWAP1 POP PUSH2 0x436B DUP2 DUP12 PUSH2 0x5A3D JUMP JUMPDEST SWAP10 POP POP JUMPDEST PUSH1 0x0 DUP4 DUP2 MSTORE PUSH1 0x19 PUSH1 0x20 SWAP1 DUP2 MSTORE PUSH1 0x40 DUP1 DUP4 KECCAK256 DUP5 DUP5 MSTORE DUP3 MSTORE DUP1 DUP4 KECCAK256 PUSH1 0x1 PUSH1 0x1 PUSH1 0xA0 SHL SUB DUP16 AND DUP5 MSTORE SWAP1 SWAP2 MSTORE SWAP1 KECCAK256 SLOAD ISZERO DUP1 ISZERO SWAP1 PUSH2 0x43E1 JUMPI POP PUSH1 0x0 DUP4 DUP2 MSTORE PUSH1 0x17 PUSH1 0x20 MSTORE PUSH1 0x40 SWAP1 KECCAK256 DUP1 SLOAD DUP3 SWAP1 DUP2 LT PUSH2 0x43C3 JUMPI PUSH2 0x43C3 PUSH2 0x5A69 JUMP JUMPDEST SWAP1 PUSH1 0x0 MSTORE PUSH1 0x20 PUSH1 0x0 KECCAK256 SWAP1 PUSH1 0x9 MUL ADD PUSH1 0x6 ADD SLOAD PUSH2 0x43DE DUP5 PUSH2 0xEA1 JUMP JUMPDEST EQ ISZERO JUMPDEST ISZERO PUSH2 0x4553 JUMPI PUSH1 0x40 MLOAD DUP1 PUSH1 0x40 ADD PUSH1 0x40 MSTORE DUP1 DUP5 DUP2 MSTORE PUSH1 0x20 ADD DUP3 DUP2 MSTORE POP DUP6 DUP9 DUP2 MLOAD DUP2 LT PUSH2 0x440D JUMPI PUSH2 0x440D PUSH2 0x5A69 JUMP JUMPDEST PUSH1 0x20 MUL PUSH1 0x20 ADD ADD DUP2 SWAP1 MSTORE POP DUP7 DUP1 PUSH2 0x4423 SWAP1 PUSH2 0x5A50 JUMP JUMPDEST SWAP8 POP POP PUSH1 0x0 PUSH1 0x17 PUSH1 0x0 DUP6 DUP2 MSTORE PUSH1 0x20 ADD SWAP1 DUP2 MSTORE PUSH1 0x20 ADD PUSH1 0x0 KECCAK256 DUP3 DUP2 SLOAD DUP2 LT PUSH2 0x444C JUMPI PUSH2 0x444C PUSH2 0x5A69 JUMP JUMPDEST SWAP1 PUSH1 0x0 MSTORE PUSH1 0x20 PUSH1 0x0 KECCAK256 SWAP1 PUSH1 0x9 MUL ADD PUSH1 0x2 ADD SLOAD PUSH1 0x19 PUSH1 0x0 DUP7 DUP2 MSTORE PUSH1 0x20 ADD SWAP1 DUP2 MSTORE PUSH1 0x20 ADD PUSH1 0x0 KECCAK256 PUSH1 0x0 DUP5 DUP2 MSTORE PUSH1 0x20 ADD SWAP1 DUP2 MSTORE PUSH1 0x20 ADD PUSH1 0x0 KECCAK256 PUSH1 0x0 DUP15 PUSH1 0x1 PUSH1 0x1 PUSH1 0xA0 SHL SUB AND PUSH1 0x1 PUSH1 0x1 PUSH1 0xA0 SHL SUB AND DUP2 MSTORE PUSH1 0x20 ADD SWAP1 DUP2 MSTORE PUSH1 0x20 ADD PUSH1 0x0 KECCAK256 SLOAD PUSH2 0x44B0 SWAP2 SWAP1 PUSH2 0x5AB6 JUMP JUMPDEST SWAP1 POP PUSH1 0x19 PUSH1 0x0 DUP6 DUP2 MSTORE PUSH1 0x20 ADD SWAP1 DUP2 MSTORE PUSH1 0x20 ADD PUSH1 0x0 KECCAK256 PUSH1 0x0 DUP4 DUP2 MSTORE PUSH1 0x20 ADD SWAP1 DUP2 MSTORE PUSH1 0x20 ADD PUSH1 0x0 KECCAK256 PUSH1 0x0 DUP14 PUSH1 0x1 PUSH1 0x1 PUSH1 0xA0 SHL SUB AND PUSH1 0x1 PUSH1 0x1 PUSH1 0xA0 SHL SUB AND DUP2 MSTORE PUSH1 0x20 ADD SWAP1 DUP2 MSTORE PUSH1 0x20 ADD PUSH1 0x0 KECCAK256 SLOAD PUSH1 0x17 PUSH1 0x0 DUP7 DUP2 MSTORE PUSH1 0x20 ADD SWAP1 DUP2 MSTORE PUSH1 0x20 ADD PUSH1 0x0 KECCAK256 DUP4 DUP2 SLOAD DUP2 LT PUSH2 0x451E JUMPI PUSH2 0x451E PUSH2 0x5A69 JUMP JUMPDEST SWAP1 PUSH1 0x0 MSTORE PUSH1 0x20 PUSH1 0x0 KECCAK256 SWAP1 PUSH1 0x9 MUL ADD PUSH1 0x3 ADD SLOAD DUP3 PUSH2 0x453B SWAP2 SWAP1 PUSH2 0x5AE3 JUMP JUMPDEST PUSH2 0x4545 SWAP2 SWAP1 PUSH2 0x5A3D JUMP JUMPDEST PUSH2 0x454F SWAP1 DUP12 PUSH2 0x5A3D JUMP JUMPDEST SWAP10 POP POP JUMPDEST POP DUP1 PUSH2 0x455E DUP2 PUSH2 0x5A50 JUMP JUMPDEST SWAP2 POP POP PUSH2 0x3F3A JUMP JUMPDEST POP JUMPDEST PUSH1 0x0 DUP2 DUP2 MSTORE PUSH1 0x9 PUSH1 0x20 MSTORE PUSH1 0x40 SWAP1 KECCAK256 SLOAD PUSH1 0xFF AND ISZERO PUSH2 0x4834 JUMPI PUSH1 0x0 JUMPDEST PUSH1 0x1 PUSH1 0x1 PUSH1 0xA0 SHL SUB DUP11 AND PUSH1 0x0 SWAP1 DUP2 MSTORE PUSH1 0x1C PUSH1 0x20 SWAP1 DUP2 MSTORE PUSH1 0x40 DUP1 DUP4 KECCAK256 DUP6 DUP5 MSTORE SWAP1 SWAP2 MSTORE SWAP1 KECCAK256 SLOAD DUP2 LT ISZERO PUSH2 0x4832 JUMPI PUSH1 0x1 PUSH1 0x1 PUSH1 0xA0 SHL SUB DUP11 AND PUSH1 0x0 SWAP1 DUP2 MSTORE PUSH1 0x1C PUSH1 0x20 SWAP1 DUP2 MSTORE PUSH1 0x40 DUP1 DUP4 KECCAK256 DUP6 DUP5 MSTORE SWAP1 SWAP2 MSTORE DUP2 KECCAK256 DUP1 SLOAD DUP4 SWAP1 DUP2 LT PUSH2 0x45E2 JUMPI PUSH2 0x45E2 PUSH2 0x5A69 JUMP JUMPDEST PUSH1 0x0 SWAP2 DUP3 MSTORE PUSH1 0x20 DUP1 DUP4 KECCAK256 SWAP1 SWAP2 ADD SLOAD DUP6 DUP4 MSTORE PUSH1 0x1A DUP3 MSTORE PUSH1 0x40 DUP1 DUP5 KECCAK256 DUP3 DUP6 MSTORE DUP4 MSTORE SWAP3 DUP4 SWAP1 KECCAK256 DUP1 SLOAD DUP5 MLOAD DUP2 DUP6 MUL DUP2 ADD DUP6 ADD SWAP1 SWAP6 MSTORE DUP1 DUP6 MSTORE SWAP2 SWAP5 POP PUSH2 0x4663 SWAP4 DUP16 SWAP4 SWAP1 SWAP3 SWAP1 DUP4 ADD DUP3 DUP3 DUP1 ISZERO PUSH2 0xBDF JUMPI PUSH1 0x20 MUL DUP3 ADD SWAP2 SWAP1 PUSH1 0x0 MSTORE PUSH1 0x20 PUSH1 0x0 KECCAK256 SWAP1 DUP2 SLOAD PUSH1 0x1 PUSH1 0x1 PUSH1 0xA0 SHL SUB AND DUP2 MSTORE PUSH1 0x1 SWAP1 SWAP2 ADD SWAP1 PUSH1 0x20 ADD DUP1 DUP4 GT PUSH2 0xBC1 JUMPI POP POP POP POP POP PUSH2 0x3AA7 JUMP JUMPDEST ISZERO DUP1 ISZERO PUSH2 0x468B JUMPI POP PUSH2 0x4689 PUSH1 0x40 MLOAD DUP1 PUSH1 0x40 ADD PUSH1 0x40 MSTORE DUP1 DUP6 DUP2 MSTORE PUSH1 0x20 ADD DUP4 DUP2 MSTORE POP DUP7 PUSH2 0x1371 JUMP JUMPDEST ISZERO JUMPDEST ISZERO PUSH2 0x481F JUMPI PUSH1 0x0 DUP4 DUP2 MSTORE PUSH1 0x17 PUSH1 0x20 MSTORE PUSH1 0x40 SWAP1 KECCAK256 DUP1 SLOAD DUP3 SWAP1 DUP2 LT PUSH2 0x46B0 JUMPI PUSH2 0x46B0 PUSH2 0x5A69 JUMP JUMPDEST PUSH1 0x0 SWAP2 DUP3 MSTORE PUSH1 0x20 SWAP1 SWAP2 KECCAK256 PUSH1 0x1 PUSH1 0x9 SWAP1 SWAP3 MUL ADD ADD SLOAD PUSH1 0x1 PUSH1 0x1 PUSH1 0xA0 SHL SUB SWAP1 DUP2 AND SWAP1 DUP13 AND SUB PUSH2 0x4759 JUMPI PUSH1 0x40 MLOAD DUP1 PUSH1 0x40 ADD PUSH1 0x40 MSTORE DUP1 DUP5 DUP2 MSTORE PUSH1 0x20 ADD DUP3 DUP2 MSTORE POP DUP6 DUP9 DUP2 MLOAD DUP2 LT PUSH2 0x46FE JUMPI PUSH2 0x46FE PUSH2 0x5A69 JUMP JUMPDEST PUSH1 0x20 MUL PUSH1 0x20 ADD ADD DUP2 SWAP1 MSTORE POP DUP7 DUP1 PUSH2 0x4714 SWAP1 PUSH2 0x5A50 JUMP JUMPDEST PUSH1 0x0 DUP6 DUP2 MSTORE PUSH1 0x17 PUSH1 0x20 MSTORE PUSH1 0x40 SWAP1 KECCAK256 DUP1 SLOAD SWAP2 SWAP10 POP SWAP2 POP DUP3 SWAP1 DUP2 LT PUSH2 0x4739 JUMPI PUSH2 0x4739 PUSH2 0x5A69 JUMP JUMPDEST SWAP1 PUSH1 0x0 MSTORE PUSH1 0x20 PUSH1 0x0 KECCAK256 SWAP1 PUSH1 0x9 MUL ADD PUSH1 0x2 ADD SLOAD DUP10 PUSH2 0x4756 SWAP2 SWAP1 PUSH2 0x5A3D JUMP JUMPDEST SWAP9 POP JUMPDEST PUSH1 0x0 DUP4 DUP2 MSTORE PUSH1 0x19 PUSH1 0x20 SWAP1 DUP2 MSTORE PUSH1 0x40 DUP1 DUP4 KECCAK256 DUP5 DUP5 MSTORE DUP3 MSTORE DUP1 DUP4 KECCAK256 PUSH1 0x1 PUSH1 0x1 PUSH1 0xA0 SHL SUB DUP16 AND DUP5 MSTORE SWAP1 SWAP2 MSTORE SWAP1 KECCAK256 SLOAD ISZERO PUSH2 0x481F JUMPI PUSH1 0x40 MLOAD DUP1 PUSH1 0x40 ADD PUSH1 0x40 MSTORE DUP1 DUP5 DUP2 MSTORE PUSH1 0x20 ADD DUP3 DUP2 MSTORE POP DUP6 DUP9 DUP2 MLOAD DUP2 LT PUSH2 0x47B0 JUMPI PUSH2 0x47B0 PUSH2 0x5A69 JUMP JUMPDEST PUSH1 0x20 MUL PUSH1 0x20 ADD ADD DUP2 SWAP1 MSTORE POP DUP7 DUP1 PUSH2 0x47C6 SWAP1 PUSH2 0x5A50 JUMP JUMPDEST SWAP8 POP POP PUSH1 0x19 PUSH1 0x0 DUP5 DUP2 MSTORE PUSH1 0x20 ADD SWAP1 DUP2 MSTORE PUSH1 0x20 ADD PUSH1 0x0 KECCAK256 PUSH1 0x0 DUP3 DUP2 MSTORE PUSH1 0x20 ADD SWAP1 DUP2 MSTORE PUSH1 0x20 ADD PUSH1 0x0 KECCAK256 PUSH1 0x0 DUP13 PUSH1 0x1 PUSH1 0x1 PUSH1 0xA0 SHL SUB AND PUSH1 0x1 PUSH1 0x1 PUSH1 0xA0 SHL SUB AND DUP2 MSTORE PUSH1 0x20 ADD SWAP1 DUP2 MSTORE PUSH1 0x20 ADD PUSH1 0x0 KECCAK256 SLOAD DUP10 PUSH2 0x481C SWAP2 SWAP1 PUSH2 0x5A3D JUMP JUMPDEST SWAP9 POP JUMPDEST POP DUP1 PUSH2 0x482A DUP2 PUSH2 0x5A50 JUMP JUMPDEST SWAP2 POP POP PUSH2 0x4582 JUMP JUMPDEST POP JUMPDEST POP DUP1 PUSH2 0x483F DUP2 PUSH2 0x5A50 JUMP JUMPDEST SWAP2 POP POP PUSH2 0x3ED2 JUMP JUMPDEST POP SWAP4 SWAP7 SWAP6 POP POP POP POP POP POP JUMP JUMPDEST PUSH1 0x0 DUP2 DUP2 MSTORE PUSH1 0x2 PUSH1 0x20 MSTORE PUSH1 0x40 SWAP1 KECCAK256 DUP1 SLOAD PUSH1 0x60 SWAP2 SWAP1 PUSH2 0x4870 SWAP1 PUSH2 0x5B27 JUMP JUMPDEST DUP1 PUSH1 0x1F ADD PUSH1 0x20 DUP1 SWAP2 DIV MUL PUSH1 0x20 ADD PUSH1 0x40 MLOAD SWAP1 DUP2 ADD PUSH1 0x40 MSTORE DUP1 SWAP3 SWAP2 SWAP1 DUP2 DUP2 MSTORE PUSH1 0x20 ADD DUP3 DUP1 SLOAD PUSH2 0x489C SWAP1 PUSH2 0x5B27 JUMP JUMPDEST DUP1 ISZERO PUSH2 0xF13 JUMPI DUP1 PUSH1 0x1F LT PUSH2 0x48BE JUMPI PUSH2 0x100 DUP1 DUP4 SLOAD DIV MUL DUP4 MSTORE SWAP2 PUSH1 0x20 ADD SWAP2 PUSH2 0xF13 JUMP JUMPDEST DUP3 ADD SWAP2 SWAP1 PUSH1 0x0 MSTORE PUSH1 0x20 PUSH1 0x0 KECCAK256 SWAP1 JUMPDEST DUP2 SLOAD DUP2 MSTORE SWAP1 PUSH1 0x1 ADD SWAP1 PUSH1 0x20 ADD DUP1 DUP4 GT PUSH2 0x48CC JUMPI POP SWAP4 SWAP7 SWAP6 POP POP POP POP POP POP JUMP JUMPDEST PUSH1 0x5 SLOAD PUSH1 0xE SLOAD PUSH1 0x40 MLOAD PUSH4 0xA9059CBB PUSH1 0xE0 SHL DUP2 MSTORE PUSH20 0xF89CA523F78C323A950C6CF2E997C1BED13A7CDE SWAP3 PUSH1 0x1 PUSH1 0x1 PUSH1 0xA0 SHL SUB AND SWAP2 PUSH4 0xA9059CBB SWAP2 PUSH2 0x4932 SWAP2 DUP6 SWAP2 PUSH1 0x4 ADD PUSH2 0x5C77 JUMP JUMPDEST PUSH1 0x20 PUSH1 0x40 MLOAD DUP1 DUP4 SUB DUP2 PUSH1 0x0 DUP8 GAS CALL ISZERO DUP1 ISZERO PUSH2 0x4951 JUMPI RETURNDATASIZE PUSH1 0x0 DUP1 RETURNDATACOPY RETURNDATASIZE PUSH1 0x0 REVERT JUMPDEST POP POP POP POP PUSH1 0x40 MLOAD RETURNDATASIZE PUSH1 0x1F NOT PUSH1 0x1F DUP3 ADD AND DUP3 ADD DUP1 PUSH1 0x40 MSTORE POP DUP2 ADD SWAP1 PUSH2 0x4975 SWAP2 SWAP1 PUSH2 0x5C90 JUMP JUMPDEST POP PUSH32 0xC38EE457F9F4FB5FD6C7B2B8B3173E48924E9625BE2B0D01FC7DD98B6548DFC2 PUSH1 0xE SLOAD PUSH1 0x40 MLOAD PUSH2 0x49A9 SWAP2 DUP2 MSTORE PUSH1 0x20 ADD SWAP1 JUMP JUMPDEST PUSH1 0x40 MLOAD DUP1 SWAP2 SUB SWAP1 LOG1 POP PUSH1 0x0 PUSH1 0xE SSTORE JUMP JUMPDEST PUSH1 0x6 SLOAD PUSH1 0x40 MLOAD PUSH4 0xA9059CBB PUSH1 0xE0 SHL DUP2 MSTORE PUSH1 0x1 PUSH1 0x1 PUSH1 0xA0 SHL SUB SWAP1 SWAP2 AND SWAP1 PUSH4 0xA9059CBB SWAP1 PUSH2 0x49EB SWAP1 DUP6 SWAP1 DUP6 SWAP1 PUSH1 0x4 ADD PUSH2 0x5C77 JUMP JUMPDEST PUSH1 0x20 PUSH1 0x40 MLOAD DUP1 DUP4 SUB DUP2 PUSH1 0x0 DUP8 GAS CALL ISZERO DUP1 ISZERO PUSH2 0x4A0A JUMPI RETURNDATASIZE PUSH1 0x0 DUP1 RETURNDATACOPY RETURNDATASIZE PUSH1 0x0 REVERT JUMPDEST POP POP POP POP PUSH1 0x40 MLOAD RETURNDATASIZE PUSH1 0x1F NOT PUSH1 0x1F DUP3 ADD AND DUP3 ADD DUP1 PUSH1 0x40 MSTORE POP DUP2 ADD SWAP1 PUSH2 0x4A2E SWAP2 SWAP1 PUSH2 0x5C90 JUMP JUMPDEST POP PUSH1 0x40 MLOAD DUP2 SWAP1 PUSH1 0x1 PUSH1 0x1 PUSH1 0xA0 SHL SUB DUP5 AND SWAP1 PUSH32 0x67A09C23C04687B083F6E04B4FD9AA1A7DAD9797EB4D30766FB4E938D02FDA54 SWAP1 PUSH1 0x0 SWAP1 LOG3 POP POP JUMP JUMPDEST PUSH2 0x326B DUP2 CALLER PUSH2 0x4DC7 JUMP JUMPDEST PUSH2 0x4A7D DUP3 DUP3 PUSH2 0x28A7 JUMP JUMPDEST PUSH2 0xE7F JUMPI PUSH1 0x0 DUP3 DUP2 MSTORE PUSH1 0x20 DUP2 DUP2 MSTORE PUSH1 0x40 DUP1 DUP4 KECCAK256 PUSH1 0x1 PUSH1 0x1 PUSH1 0xA0 SHL SUB DUP6 AND DUP5 MSTORE SWAP1 SWAP2 MSTORE SWAP1 KECCAK256 DUP1 SLOAD PUSH1 0xFF NOT AND PUSH1 0x1 OR SWAP1 SSTORE PUSH2 0x4AB3 CALLER SWAP1 JUMP JUMPDEST PUSH1 0x1 PUSH1 0x1 PUSH1 0xA0 SHL SUB AND DUP2 PUSH1 0x1 PUSH1 0x1 PUSH1 0xA0 SHL SUB AND DUP4 PUSH32 0x2F8788117E7EFF1D82E926EC794901D17C78024A50270940304540A733656F0D PUSH1 0x40 MLOAD PUSH1 0x40 MLOAD DUP1 SWAP2 SUB SWAP1 LOG4 POP POP JUMP JUMPDEST PUSH2 0x4B01 DUP3 DUP3 PUSH2 0x28A7 JUMP JUMPDEST ISZERO PUSH2 0xE7F JUMPI PUSH1 0x0 DUP3 DUP2 MSTORE PUSH1 0x20 DUP2 DUP2 MSTORE PUSH1 0x40 DUP1 DUP4 KECCAK256 PUSH1 0x1 PUSH1 0x1 PUSH1 0xA0 SHL SUB DUP6 AND DUP1 DUP6 MSTORE SWAP3 MSTORE DUP1 DUP4 KECCAK256 DUP1 SLOAD PUSH1 0xFF NOT AND SWAP1 SSTORE MLOAD CALLER SWAP3 DUP6 SWAP2 PUSH32 0xF6391F5C32D9C69D2A47EA670B442974B53935D1EDC7FD64EB21E047A839171B SWAP2 SWAP1 LOG4 POP POP JUMP JUMPDEST PUSH2 0xE7F DUP3 DUP3 PUSH2 0x4A73 JUMP JUMPDEST PUSH1 0x0 DUP2 DUP2 MSTORE PUSH1 0x8 PUSH1 0x20 MSTORE PUSH1 0x40 DUP2 KECCAK256 SLOAD PUSH1 0xFF AND PUSH2 0x4BAD JUMPI PUSH1 0x40 MLOAD PUSH3 0x461BCD PUSH1 0xE5 SHL DUP2 MSTORE PUSH1 0x20 PUSH1 0x4 DUP3 ADD MSTORE PUSH1 0x6 PUSH1 0x24 DUP3 ADD MSTORE PUSH6 0x626574697665 PUSH1 0xD0 SHL PUSH1 0x44 DUP3 ADD MSTORE PUSH1 0x64 ADD PUSH2 0xA91 JUMP JUMPDEST PUSH1 0x0 DUP1 JUMPDEST PUSH1 0x0 DUP5 DUP2 MSTORE PUSH1 0x4 PUSH1 0x20 MSTORE PUSH1 0x40 SWAP1 KECCAK256 SLOAD DUP2 LT ISZERO PUSH2 0xA4B JUMPI PUSH1 0x0 DUP5 DUP2 MSTORE PUSH1 0xC PUSH1 0x20 MSTORE PUSH1 0x40 SWAP1 KECCAK256 SLOAD DUP2 EQ PUSH2 0x4C03 JUMPI PUSH1 0x0 DUP5 DUP2 MSTORE PUSH1 0xA PUSH1 0x20 SWAP1 DUP2 MSTORE PUSH1 0x40 DUP1 DUP4 KECCAK256 DUP5 DUP5 MSTORE SWAP1 SWAP2 MSTORE SWAP1 KECCAK256 SLOAD PUSH2 0x4C00 SWAP1 DUP4 PUSH2 0x5A3D JUMP JUMPDEST SWAP2 POP JUMPDEST DUP1 PUSH2 0x4C0D DUP2 PUSH2 0x5A50 JUMP JUMPDEST SWAP2 POP POP PUSH2 0x4BB1 JUMP JUMPDEST DUP2 DUP2 DUP1 DUP3 SUB PUSH2 0x4C25 JUMPI POP POP POP POP POP JUMP JUMPDEST PUSH1 0x0 DUP6 PUSH1 0x2 PUSH2 0x4C34 DUP8 DUP8 PUSH2 0x5CB2 JUMP JUMPDEST PUSH2 0x4C3E SWAP2 SWAP1 PUSH2 0x5CD2 JUMP JUMPDEST PUSH2 0x4C48 SWAP1 DUP8 PUSH2 0x5D00 JUMP JUMPDEST DUP2 MLOAD DUP2 LT PUSH2 0x4C58 JUMPI PUSH2 0x4C58 PUSH2 0x5A69 JUMP JUMPDEST PUSH1 0x20 MUL PUSH1 0x20 ADD ADD MLOAD SWAP1 POP JUMPDEST DUP2 DUP4 SGT PUSH2 0x4D67 JUMPI JUMPDEST DUP1 DUP7 DUP5 DUP2 MLOAD DUP2 LT PUSH2 0x4C7E JUMPI PUSH2 0x4C7E PUSH2 0x5A69 JUMP JUMPDEST PUSH1 0x20 MUL PUSH1 0x20 ADD ADD MLOAD LT ISZERO PUSH2 0x4C9E JUMPI DUP3 PUSH2 0x4C96 DUP2 PUSH2 0x5D28 JUMP JUMPDEST SWAP4 POP POP PUSH2 0x4C6B JUMP JUMPDEST DUP6 DUP3 DUP2 MLOAD DUP2 LT PUSH2 0x4CB0 JUMPI PUSH2 0x4CB0 PUSH2 0x5A69 JUMP JUMPDEST PUSH1 0x20 MUL PUSH1 0x20 ADD ADD MLOAD DUP2 LT ISZERO PUSH2 0x4CD1 JUMPI DUP2 PUSH2 0x4CC9 DUP2 PUSH2 0x5D40 JUMP JUMPDEST SWAP3 POP POP PUSH2 0x4C9E JUMP JUMPDEST DUP2 DUP4 SGT PUSH2 0x4D62 JUMPI DUP6 DUP3 DUP2 MLOAD DUP2 LT PUSH2 0x4CEA JUMPI PUSH2 0x4CEA PUSH2 0x5A69 JUMP JUMPDEST PUSH1 0x20 MUL PUSH1 0x20 ADD ADD MLOAD DUP7 DUP5 DUP2 MLOAD DUP2 LT PUSH2 0x4D04 JUMPI PUSH2 0x4D04 PUSH2 0x5A69 JUMP JUMPDEST PUSH1 0x20 MUL PUSH1 0x20 ADD ADD MLOAD DUP8 DUP6 DUP2 MLOAD DUP2 LT PUSH2 0x4D1E JUMPI PUSH2 0x4D1E PUSH2 0x5A69 JUMP JUMPDEST PUSH1 0x20 MUL PUSH1 0x20 ADD ADD DUP9 DUP6 DUP2 MLOAD DUP2 LT PUSH2 0x4D37 JUMPI PUSH2 0x4D37 PUSH2 0x5A69 JUMP JUMPDEST PUSH1 0x20 SWAP1 DUP2 MUL SWAP2 SWAP1 SWAP2 ADD ADD SWAP2 SWAP1 SWAP2 MSTORE MSTORE DUP3 PUSH2 0x4D50 DUP2 PUSH2 0x5D28 JUMP JUMPDEST SWAP4 POP POP DUP2 DUP1 PUSH2 0x4D5E SWAP1 PUSH2 0x5D40 JUMP JUMPDEST SWAP3 POP POP JUMPDEST PUSH2 0x4C63 JUMP JUMPDEST DUP2 DUP6 SLT ISZERO PUSH2 0x4D7A JUMPI PUSH2 0x4D7A DUP7 DUP7 DUP5 PUSH2 0x4C15 JUMP JUMPDEST DUP4 DUP4 SLT ISZERO PUSH2 0x4D8D JUMPI PUSH2 0x4D8D DUP7 DUP5 DUP7 PUSH2 0x4C15 JUMP JUMPDEST POP POP POP POP POP POP JUMP JUMPDEST PUSH1 0x5 SLOAD PUSH1 0x40 MLOAD PUSH4 0xA9059CBB PUSH1 0xE0 SHL DUP2 MSTORE PUSH1 0x1 PUSH1 0x1 PUSH1 0xA0 SHL SUB SWAP1 SWAP2 AND SWAP1 PUSH4 0xA9059CBB SWAP1 PUSH2 0x49EB SWAP1 DUP6 SWAP1 DUP6 SWAP1 PUSH1 0x4 ADD PUSH2 0x5C77 JUMP JUMPDEST PUSH2 0x4DD1 DUP3 DUP3 PUSH2 0x28A7 JUMP JUMPDEST PUSH2 0xE7F JUMPI PUSH2 0x4DDE DUP2 PUSH2 0x4E20 JUMP JUMPDEST PUSH2 0x4DE9 DUP4 PUSH1 0x20 PUSH2 0x4E32 JUMP JUMPDEST PUSH1 0x40 MLOAD PUSH1 0x20 ADD PUSH2 0x4DFA SWAP3 SWAP2 SWAP1 PUSH2 0x5D55 JUMP JUMPDEST PUSH1 0x40 DUP1 MLOAD PUSH1 0x1F NOT DUP2 DUP5 SUB ADD DUP2 MSTORE SWAP1 DUP3 SWAP1 MSTORE PUSH3 0x461BCD PUSH1 0xE5 SHL DUP3 MSTORE PUSH2 0xA91 SWAP2 PUSH1 0x4 ADD PUSH2 0x59F4 JUMP JUMPDEST PUSH1 0x60 PUSH2 0xA02 PUSH1 0x1 PUSH1 0x1 PUSH1 0xA0 SHL SUB DUP4 AND PUSH1 0x14 JUMPDEST PUSH1 0x60 PUSH1 0x0 PUSH2 0x4E41 DUP4 PUSH1 0x2 PUSH2 0x5AB6 JUMP JUMPDEST PUSH2 0x4E4C SWAP1 PUSH1 0x2 PUSH2 0x5A3D JUMP JUMPDEST PUSH1 0x1 PUSH1 0x1 PUSH1 0x40 SHL SUB DUP2 GT ISZERO PUSH2 0x4E63 JUMPI PUSH2 0x4E63 PUSH2 0x5198 JUMP JUMPDEST PUSH1 0x40 MLOAD SWAP1 DUP1 DUP3 MSTORE DUP1 PUSH1 0x1F ADD PUSH1 0x1F NOT AND PUSH1 0x20 ADD DUP3 ADD PUSH1 0x40 MSTORE DUP1 ISZERO PUSH2 0x4E8D JUMPI PUSH1 0x20 DUP3 ADD DUP2 DUP1 CALLDATASIZE DUP4 CALLDATACOPY ADD SWAP1 POP JUMPDEST POP SWAP1 POP PUSH1 0x3 PUSH1 0xFC SHL DUP2 PUSH1 0x0 DUP2 MLOAD DUP2 LT PUSH2 0x4EA8 JUMPI PUSH2 0x4EA8 PUSH2 0x5A69 JUMP JUMPDEST PUSH1 0x20 ADD ADD SWAP1 PUSH1 0x1 PUSH1 0x1 PUSH1 0xF8 SHL SUB NOT AND SWAP1 DUP2 PUSH1 0x0 BYTE SWAP1 MSTORE8 POP PUSH1 0xF PUSH1 0xFB SHL DUP2 PUSH1 0x1 DUP2 MLOAD DUP2 LT PUSH2 0x4ED7 JUMPI PUSH2 0x4ED7 PUSH2 0x5A69 JUMP JUMPDEST PUSH1 0x20 ADD ADD SWAP1 PUSH1 0x1 PUSH1 0x1 PUSH1 0xF8 SHL SUB NOT AND SWAP1 DUP2 PUSH1 0x0 BYTE SWAP1 MSTORE8 POP PUSH1 0x0 PUSH2 0x4EFB DUP5 PUSH1 0x2 PUSH2 0x5AB6 JUMP JUMPDEST PUSH2 0x4F06 SWAP1 PUSH1 0x1 PUSH2 0x5A3D JUMP JUMPDEST SWAP1 POP JUMPDEST PUSH1 0x1 DUP2 GT ISZERO PUSH2 0x4F7E JUMPI PUSH16 0x181899199A1A9B1B9C1CB0B131B232B3 PUSH1 0x81 SHL DUP6 PUSH1 0xF AND PUSH1 0x10 DUP2 LT PUSH2 0x4F3A JUMPI PUSH2 0x4F3A PUSH2 0x5A69 JUMP JUMPDEST BYTE PUSH1 0xF8 SHL DUP3 DUP3 DUP2 MLOAD DUP2 LT PUSH2 0x4F50 JUMPI PUSH2 0x4F50 PUSH2 0x5A69 JUMP JUMPDEST PUSH1 0x20 ADD ADD SWAP1 PUSH1 0x1 PUSH1 0x1 PUSH1 0xF8 SHL SUB NOT AND SWAP1 DUP2 PUSH1 0x0 BYTE SWAP1 MSTORE8 POP PUSH1 0x4 SWAP5 SWAP1 SWAP5 SHR SWAP4 PUSH2 0x4F77 DUP2 PUSH2 0x5C60 JUMP JUMPDEST SWAP1 POP PUSH2 0x4F09 JUMP JUMPDEST POP DUP4 ISZERO PUSH2 0x1766 JUMPI PUSH1 0x40 MLOAD PUSH3 0x461BCD PUSH1 0xE5 SHL DUP2 MSTORE PUSH1 0x20 PUSH1 0x4 DUP3 ADD DUP2 SWAP1 MSTORE PUSH1 0x24 DUP3 ADD MSTORE PUSH32 0x537472696E67733A20686578206C656E67746820696E73756666696369656E74 PUSH1 0x44 DUP3 ADD MSTORE PUSH1 0x64 ADD PUSH2 0xA91 JUMP JUMPDEST DUP3 DUP1 SLOAD DUP3 DUP3 SSTORE SWAP1 PUSH1 0x0 MSTORE PUSH1 0x20 PUSH1 0x0 KECCAK256 SWAP1 DUP2 ADD SWAP3 DUP3 ISZERO PUSH2 0x5022 JUMPI SWAP2 PUSH1 0x20 MUL DUP3 ADD JUMPDEST DUP3 DUP2 GT ISZERO PUSH2 0x5022 JUMPI DUP3 MLOAD DUP3 SLOAD PUSH1 0x1 PUSH1 0x1 PUSH1 0xA0 SHL SUB NOT AND PUSH1 0x1 PUSH1 0x1 PUSH1 0xA0 SHL SUB SWAP1 SWAP2 AND OR DUP3 SSTORE PUSH1 0x20 SWAP1 SWAP3 ADD SWAP2 PUSH1 0x1 SWAP1 SWAP2 ADD SWAP1 PUSH2 0x4FED JUMP JUMPDEST POP PUSH2 0x502E SWAP3 SWAP2 POP PUSH2 0x5050 JUMP JUMPDEST POP SWAP1 JUMP JUMPDEST PUSH1 0x40 MLOAD DUP1 PUSH1 0x40 ADD PUSH1 0x40 MSTORE DUP1 PUSH1 0x2 SWAP1 PUSH1 0x20 DUP3 MUL DUP1 CALLDATASIZE DUP4 CALLDATACOPY POP SWAP2 SWAP3 SWAP2 POP POP JUMP JUMPDEST JUMPDEST DUP1 DUP3 GT ISZERO PUSH2 0x502E JUMPI PUSH1 0x0 DUP2 SSTORE PUSH1 0x1 ADD PUSH2 0x5051 JUMP JUMPDEST PUSH1 0x0 PUSH1 0x20 DUP3 DUP5 SUB SLT ISZERO PUSH2 0x5077 JUMPI PUSH1 0x0 DUP1 REVERT JUMPDEST DUP2 CALLDATALOAD PUSH1 0x1 PUSH1 0x1 PUSH1 0xE0 SHL SUB NOT DUP2 AND DUP2 EQ PUSH2 0x1766 JUMPI PUSH1 0x0 DUP1 REVERT JUMPDEST PUSH1 0x0 PUSH1 0x20 DUP3 DUP5 SUB SLT ISZERO PUSH2 0x50A1 JUMPI PUSH1 0x0 DUP1 REVERT JUMPDEST POP CALLDATALOAD SWAP2 SWAP1 POP JUMP JUMPDEST PUSH1 0x0 DUP1 PUSH1 0x0 PUSH1 0x60 DUP5 DUP7 SUB SLT ISZERO PUSH2 0x50BD JUMPI PUSH1 0x0 DUP1 REVERT JUMPDEST POP POP DUP2 CALLDATALOAD SWAP4 PUSH1 0x20 DUP4 ADD CALLDATALOAD SWAP4 POP PUSH1 0x40 SWAP1 SWAP3 ADD CALLDATALOAD SWAP2 SWAP1 POP JUMP JUMPDEST DUP1 CALLDATALOAD PUSH1 0x1 PUSH1 0x1 PUSH1 0xA0 SHL SUB DUP2 AND DUP2 EQ PUSH2 0x1BE9 JUMPI PUSH1 0x0 DUP1 REVERT JUMPDEST PUSH1 0x0 DUP1 PUSH1 0x40 DUP4 DUP6 SUB SLT ISZERO PUSH2 0x50FE JUMPI PUSH1 0x0 DUP1 REVERT JUMPDEST DUP3 CALLDATALOAD SWAP2 POP PUSH2 0x510E PUSH1 0x20 DUP5 ADD PUSH2 0x50D4 JUMP JUMPDEST SWAP1 POP SWAP3 POP SWAP3 SWAP1 POP JUMP JUMPDEST PUSH1 0x0 PUSH1 0x20 DUP3 DUP5 SUB SLT ISZERO PUSH2 0x5129 JUMPI PUSH1 0x0 DUP1 REVERT JUMPDEST PUSH2 0x1766 DUP3 PUSH2 0x50D4 JUMP JUMPDEST PUSH1 0x20 DUP1 DUP3 MSTORE DUP3 MLOAD DUP3 DUP3 ADD DUP2 SWAP1 MSTORE PUSH1 0x0 SWAP2 SWAP1 DUP5 DUP3 ADD SWAP1 PUSH1 0x40 DUP6 ADD SWAP1 DUP5 JUMPDEST DUP2 DUP2 LT ISZERO PUSH2 0x516A JUMPI DUP4 MLOAD DUP4 MSTORE SWAP3 DUP5 ADD SWAP3 SWAP2 DUP5 ADD SWAP2 PUSH1 0x1 ADD PUSH2 0x514E JUMP JUMPDEST POP SWAP1 SWAP7 SWAP6 POP POP POP POP POP POP JUMP JUMPDEST PUSH1 0x0 DUP1 PUSH1 0x40 DUP4 DUP6 SUB SLT ISZERO PUSH2 0x5189 JUMPI PUSH1 0x0 DUP1 REVERT JUMPDEST POP POP DUP1 CALLDATALOAD SWAP3 PUSH1 0x20 SWAP1 SWAP2 ADD CALLDATALOAD SWAP2 POP JUMP JUMPDEST PUSH4 0x4E487B71 PUSH1 0xE0 SHL PUSH1 0x0 MSTORE PUSH1 0x41 PUSH1 0x4 MSTORE PUSH1 0x24 PUSH1 0x0 REVERT JUMPDEST PUSH1 0x40 MLOAD PUSH1 0x1F DUP3 ADD PUSH1 0x1F NOT AND DUP2 ADD PUSH1 0x1 PUSH1 0x1 PUSH1 0x40 SHL SUB DUP2 GT DUP3 DUP3 LT OR ISZERO PUSH2 0x51D6 JUMPI PUSH2 0x51D6 PUSH2 0x5198 JUMP JUMPDEST PUSH1 0x40 MSTORE SWAP2 SWAP1 POP JUMP JUMPDEST PUSH1 0x0 PUSH1 0x1 PUSH1 0x1 PUSH1 0x40 SHL SUB DUP3 GT ISZERO PUSH2 0x51F7 JUMPI PUSH2 0x51F7 PUSH2 0x5198 JUMP JUMPDEST POP PUSH1 0x5 SHL PUSH1 0x20 ADD SWAP1 JUMP JUMPDEST PUSH1 0x0 DUP3 PUSH1 0x1F DUP4 ADD SLT PUSH2 0x5212 JUMPI PUSH1 0x0 DUP1 REVERT JUMPDEST DUP2 CALLDATALOAD PUSH1 0x20 PUSH2 0x5227 PUSH2 0x5222 DUP4 PUSH2 0x51DE JUMP JUMPDEST PUSH2 0x51AE JUMP JUMPDEST DUP3 DUP2 MSTORE PUSH1 0x5 SWAP3 SWAP1 SWAP3 SHL DUP5 ADD DUP2 ADD SWAP2 DUP2 DUP2 ADD SWAP1 DUP7 DUP5 GT ISZERO PUSH2 0x5246 JUMPI PUSH1 0x0 DUP1 REVERT JUMPDEST DUP3 DUP7 ADD JUMPDEST DUP5 DUP2 LT ISZERO PUSH2 0x5268 JUMPI PUSH2 0x525B DUP2 PUSH2 0x50D4 JUMP JUMPDEST DUP4 MSTORE SWAP2 DUP4 ADD SWAP2 DUP4 ADD PUSH2 0x524A JUMP JUMPDEST POP SWAP7 SWAP6 POP POP POP POP POP POP JUMP JUMPDEST PUSH1 0x0 DUP1 PUSH1 0x0 DUP1 PUSH1 0x0 PUSH1 0xA0 DUP7 DUP9 SUB SLT ISZERO PUSH2 0x528B JUMPI PUSH1 0x0 DUP1 REVERT JUMPDEST DUP6 CALLDATALOAD SWAP5 POP PUSH1 0x20 DUP7 ADD CALLDATALOAD SWAP4 POP PUSH1 0x40 DUP7 ADD CALLDATALOAD SWAP3 POP PUSH1 0x60 DUP7 ADD CALLDATALOAD SWAP2 POP PUSH1 0x80 DUP7 ADD CALLDATALOAD PUSH1 0x1 PUSH1 0x1 PUSH1 0x40 SHL SUB DUP2 GT ISZERO PUSH2 0x52BD JUMPI PUSH1 0x0 DUP1 REVERT JUMPDEST PUSH2 0x52C9 DUP9 DUP3 DUP10 ADD PUSH2 0x5201 JUMP JUMPDEST SWAP2 POP POP SWAP3 SWAP6 POP SWAP3 SWAP6 SWAP1 SWAP4 POP JUMP JUMPDEST PUSH1 0x0 DUP3 PUSH1 0x1F DUP4 ADD SLT PUSH2 0x52E7 JUMPI PUSH1 0x0 DUP1 REVERT JUMPDEST PUSH1 0x40 DUP1 MLOAD SWAP1 DUP2 ADD PUSH1 0x1 PUSH1 0x1 PUSH1 0x40 SHL SUB DUP2 GT DUP3 DUP3 LT OR ISZERO PUSH2 0x5309 JUMPI PUSH2 0x5309 PUSH2 0x5198 JUMP JUMPDEST DUP1 PUSH1 0x40 MSTORE POP DUP1 PUSH1 0x40 DUP5 ADD DUP6 DUP2 GT ISZERO PUSH2 0x5320 JUMPI PUSH1 0x0 DUP1 REVERT JUMPDEST DUP5 JUMPDEST DUP2 DUP2 LT ISZERO PUSH2 0x533A JUMPI DUP1 CALLDATALOAD DUP4 MSTORE PUSH1 0x20 SWAP3 DUP4 ADD SWAP3 ADD PUSH2 0x5322 JUMP JUMPDEST POP SWAP2 SWAP6 SWAP5 POP POP POP POP POP JUMP JUMPDEST PUSH1 0x0 DUP1 PUSH1 0x60 DUP4 DUP6 SUB SLT ISZERO PUSH2 0x5358 JUMPI PUSH1 0x0 DUP1 REVERT JUMPDEST PUSH2 0x5362 DUP5 DUP5 PUSH2 0x52D6 JUMP JUMPDEST SWAP2 POP PUSH1 0x40 DUP4 DUP2 ADD CALLDATALOAD PUSH1 0x1 PUSH1 0x1 PUSH1 0x40 SHL SUB DUP2 GT ISZERO PUSH2 0x537E JUMPI PUSH1 0x0 DUP1 REVERT JUMPDEST DUP5 ADD PUSH1 0x1F DUP2 ADD DUP7 SGT PUSH2 0x538F JUMPI PUSH1 0x0 DUP1 REVERT JUMPDEST DUP1 CALLDATALOAD PUSH1 0x20 PUSH2 0x539F PUSH2 0x5222 DUP4 PUSH2 0x51DE JUMP JUMPDEST DUP3 DUP2 MSTORE PUSH1 0x6 SWAP3 SWAP1 SWAP3 SHL DUP4 ADD DUP2 ADD SWAP2 DUP2 DUP2 ADD SWAP1 DUP10 DUP5 GT ISZERO PUSH2 0x53BE JUMPI PUSH1 0x0 DUP1 REVERT JUMPDEST SWAP4 DUP3 ADD SWAP4 JUMPDEST DUP4 DUP6 LT ISZERO PUSH2 0x53E4 JUMPI PUSH2 0x53D5 DUP11 DUP7 PUSH2 0x52D6 JUMP JUMPDEST DUP3 MSTORE SWAP4 DUP6 ADD SWAP4 SWAP1 DUP3 ADD SWAP1 PUSH2 0x53C3 JUMP JUMPDEST DUP1 SWAP7 POP POP POP POP POP POP POP SWAP3 POP SWAP3 SWAP1 POP JUMP JUMPDEST PUSH1 0x0 DUP2 MLOAD DUP1 DUP5 MSTORE PUSH1 0x20 DUP1 DUP6 ADD SWAP5 POP DUP1 DUP5 ADD PUSH1 0x0 JUMPDEST DUP4 DUP2 LT ISZERO PUSH2 0x542D JUMPI DUP2 MLOAD PUSH1 0x1 PUSH1 0x1 PUSH1 0xA0 SHL SUB AND DUP8 MSTORE SWAP6 DUP3 ADD SWAP6 SWAP1 DUP3 ADD SWAP1 PUSH1 0x1 ADD PUSH2 0x5408 JUMP JUMPDEST POP SWAP5 SWAP6 SWAP5 POP POP POP POP POP JUMP JUMPDEST PUSH1 0x0 PUSH2 0x120 DUP12 DUP4 MSTORE PUSH1 0x1 DUP1 PUSH1 0xA0 SHL SUB DUP12 AND PUSH1 0x20 DUP5 ADD MSTORE DUP10 PUSH1 0x40 DUP5 ADD MSTORE DUP9 PUSH1 0x60 DUP5 ADD MSTORE DUP8 PUSH1 0x80 DUP5 ADD MSTORE DUP7 PUSH1 0xA0 DUP5 ADD MSTORE DUP6 PUSH1 0xC0 DUP5 ADD MSTORE DUP5 ISZERO ISZERO PUSH1 0xE0 DUP5 ADD MSTORE DUP1 PUSH2 0x100 DUP5 ADD MSTORE PUSH2 0x5487 DUP2 DUP5 ADD DUP6 PUSH2 0x53F4 JUMP JUMPDEST SWAP13 SWAP12 POP POP POP POP POP POP POP POP POP POP POP POP JUMP JUMPDEST PUSH1 0x0 DUP1 PUSH1 0x40 DUP4 DUP6 SUB SLT ISZERO PUSH2 0x54AA JUMPI PUSH1 0x0 DUP1 REVERT JUMPDEST PUSH2 0x54B3 DUP4 PUSH2 0x50D4 JUMP JUMPDEST SWAP5 PUSH1 0x20 SWAP4 SWAP1 SWAP4 ADD CALLDATALOAD SWAP4 POP POP POP JUMP JUMPDEST PUSH1 0x0 DUP3 PUSH1 0x1F DUP4 ADD SLT PUSH2 0x54D2 JUMPI PUSH1 0x0 DUP1 REVERT JUMPDEST DUP2 CALLDATALOAD PUSH1 0x20 PUSH2 0x54E2 PUSH2 0x5222 DUP4 PUSH2 0x51DE JUMP JUMPDEST DUP3 DUP2 MSTORE PUSH1 0x5 SWAP3 SWAP1 SWAP3 SHL DUP5 ADD DUP2 ADD SWAP2 DUP2 DUP2 ADD SWAP1 DUP7 DUP5 GT ISZERO PUSH2 0x5501 JUMPI PUSH1 0x0 DUP1 REVERT JUMPDEST DUP3 DUP7 ADD JUMPDEST DUP5 DUP2 LT ISZERO PUSH2 0x5268 JUMPI DUP1 CALLDATALOAD DUP4 MSTORE SWAP2 DUP4 ADD SWAP2 DUP4 ADD PUSH2 0x5505 JUMP JUMPDEST PUSH1 0x0 PUSH1 0x20 DUP3 DUP5 SUB SLT ISZERO PUSH2 0x552E JUMPI PUSH1 0x0 DUP1 REVERT JUMPDEST DUP2 CALLDATALOAD PUSH1 0x1 PUSH1 0x1 PUSH1 0x40 SHL SUB DUP2 GT ISZERO PUSH2 0x5544 JUMPI PUSH1 0x0 DUP1 REVERT JUMPDEST PUSH2 0x5550 DUP5 DUP3 DUP6 ADD PUSH2 0x54C1 JUMP JUMPDEST SWAP5 SWAP4 POP POP POP POP JUMP JUMPDEST PUSH1 0x0 DUP1 PUSH1 0x0 PUSH1 0x60 DUP5 DUP7 SUB SLT ISZERO PUSH2 0x556D JUMPI PUSH1 0x0 DUP1 REVERT JUMPDEST DUP4 CALLDATALOAD SWAP3 POP PUSH2 0x557D PUSH1 0x20 DUP6 ADD PUSH2 0x50D4 JUMP JUMPDEST SWAP2 POP PUSH1 0x40 DUP5 ADD CALLDATALOAD SWAP1 POP SWAP3 POP SWAP3 POP SWAP3 JUMP JUMPDEST PUSH1 0x0 DUP3 PUSH1 0x1F DUP4 ADD SLT PUSH2 0x559E JUMPI PUSH1 0x0 DUP1 REVERT JUMPDEST DUP2 CALLDATALOAD PUSH1 0x1 PUSH1 0x1 PUSH1 0x40 SHL SUB DUP2 GT ISZERO PUSH2 0x55B7 JUMPI PUSH2 0x55B7 PUSH2 0x5198 JUMP JUMPDEST PUSH2 0x55CA PUSH1 0x1F DUP3 ADD PUSH1 0x1F NOT AND PUSH1 0x20 ADD PUSH2 0x51AE JUMP JUMPDEST DUP2 DUP2 MSTORE DUP5 PUSH1 0x20 DUP4 DUP7 ADD ADD GT ISZERO PUSH2 0x55DF JUMPI PUSH1 0x0 DUP1 REVERT JUMPDEST DUP2 PUSH1 0x20 DUP6 ADD PUSH1 0x20 DUP4 ADD CALLDATACOPY PUSH1 0x0 SWAP2 DUP2 ADD PUSH1 0x20 ADD SWAP2 SWAP1 SWAP2 MSTORE SWAP4 SWAP3 POP POP POP JUMP JUMPDEST PUSH1 0x0 PUSH1 0x20 DUP3 DUP5 SUB SLT ISZERO PUSH2 0x560E JUMPI PUSH1 0x0 DUP1 REVERT JUMPDEST DUP2 CALLDATALOAD PUSH1 0x1 PUSH1 0x1 PUSH1 0x40 SHL SUB DUP2 GT ISZERO PUSH2 0x5624 JUMPI PUSH1 0x0 DUP1 REVERT JUMPDEST PUSH2 0x5550 DUP5 DUP3 DUP6 ADD PUSH2 0x558D JUMP JUMPDEST PUSH1 0x0 PUSH1 0x20 DUP1 DUP4 ADD DUP2 DUP5 MSTORE DUP1 DUP6 MLOAD DUP1 DUP4 MSTORE PUSH1 0x40 SWAP3 POP DUP3 DUP7 ADD SWAP2 POP DUP3 DUP2 PUSH1 0x5 SHL DUP8 ADD ADD DUP5 DUP9 ADD PUSH1 0x0 JUMPDEST DUP4 DUP2 LT ISZERO PUSH2 0x56EC JUMPI PUSH1 0x3F NOT DUP10 DUP5 SUB ADD DUP6 MSTORE DUP2 MLOAD DUP1 MLOAD DUP5 MSTORE DUP8 DUP2 ADD MLOAD PUSH1 0x1 PUSH1 0x1 PUSH1 0xA0 SHL SUB AND DUP9 DUP6 ADD MSTORE DUP7 DUP2 ADD MLOAD DUP8 DUP6 ADD MSTORE PUSH1 0x60 DUP1 DUP3 ADD MLOAD SWAP1 DUP6 ADD MSTORE PUSH1 0x80 DUP1 DUP3 ADD MLOAD SWAP1 DUP6 ADD MSTORE PUSH1 0xA0 DUP1 DUP3 ADD MLOAD SWAP1 DUP6 ADD MSTORE PUSH1 0xC0 DUP1 DUP3 ADD MLOAD SWAP1 DUP6 ADD MSTORE PUSH1 0xE0 DUP1 DUP3 ADD MLOAD ISZERO ISZERO SWAP1 DUP6 ADD MSTORE PUSH2 0x100 SWAP1 DUP2 ADD MLOAD PUSH2 0x120 SWAP2 DUP6 ADD DUP3 SWAP1 MSTORE SWAP1 PUSH2 0x56D8 DUP2 DUP7 ADD DUP4 PUSH2 0x53F4 JUMP JUMPDEST SWAP7 DUP10 ADD SWAP7 SWAP5 POP POP POP SWAP1 DUP7 ADD SWAP1 PUSH1 0x1 ADD PUSH2 0x5657 JUMP JUMPDEST POP SWAP1 SWAP9 SWAP8 POP POP POP POP POP POP POP POP JUMP JUMPDEST PUSH1 0x0 DUP1 PUSH1 0x40 DUP4 DUP6 SUB SLT ISZERO PUSH2 0x570D JUMPI PUSH1 0x0 DUP1 REVERT JUMPDEST DUP3 CALLDATALOAD PUSH1 0x1 PUSH1 0x1 PUSH1 0x40 SHL SUB DUP2 GT ISZERO PUSH2 0x5723 JUMPI PUSH1 0x0 DUP1 REVERT JUMPDEST PUSH2 0x572F DUP6 DUP3 DUP7 ADD PUSH2 0x558D JUMP JUMPDEST SWAP6 PUSH1 0x20 SWAP5 SWAP1 SWAP5 ADD CALLDATALOAD SWAP5 POP POP POP POP JUMP JUMPDEST PUSH1 0x0 DUP1 PUSH1 0x0 PUSH1 0x60 DUP5 DUP7 SUB SLT ISZERO PUSH2 0x5753 JUMPI PUSH1 0x0 DUP1 REVERT JUMPDEST DUP4 CALLDATALOAD PUSH1 0x1 PUSH1 0x1 PUSH1 0x40 SHL SUB DUP1 DUP3 GT ISZERO PUSH2 0x576A JUMPI PUSH1 0x0 DUP1 REVERT JUMPDEST DUP2 DUP7 ADD SWAP2 POP DUP7 PUSH1 0x1F DUP4 ADD SLT PUSH2 0x577E JUMPI PUSH1 0x0 DUP1 REVERT JUMPDEST DUP2 CALLDATALOAD PUSH1 0x20 PUSH2 0x578E PUSH2 0x5222 DUP4 PUSH2 0x51DE JUMP JUMPDEST DUP3 DUP2 MSTORE PUSH1 0x5 SWAP3 SWAP1 SWAP3 SHL DUP5 ADD DUP2 ADD SWAP2 DUP2 DUP2 ADD SWAP1 DUP11 DUP5 GT ISZERO PUSH2 0x57AD JUMPI PUSH1 0x0 DUP1 REVERT JUMPDEST DUP3 DUP7 ADD JUMPDEST DUP5 DUP2 LT ISZERO PUSH2 0x57E5 JUMPI DUP1 CALLDATALOAD DUP7 DUP2 GT ISZERO PUSH2 0x57C9 JUMPI PUSH1 0x0 DUP1 DUP2 REVERT JUMPDEST PUSH2 0x57D7 DUP14 DUP7 DUP4 DUP12 ADD ADD PUSH2 0x558D JUMP JUMPDEST DUP5 MSTORE POP SWAP2 DUP4 ADD SWAP2 DUP4 ADD PUSH2 0x57B1 JUMP JUMPDEST POP SWAP8 POP POP DUP8 ADD CALLDATALOAD SWAP3 POP POP DUP1 DUP3 GT ISZERO PUSH2 0x57FC JUMPI PUSH1 0x0 DUP1 REVERT JUMPDEST POP PUSH2 0x5809 DUP7 DUP3 DUP8 ADD PUSH2 0x54C1 JUMP JUMPDEST SWAP3 POP POP PUSH1 0x40 DUP5 ADD CALLDATALOAD SWAP1 POP SWAP3 POP SWAP3 POP SWAP3 JUMP JUMPDEST PUSH1 0x0 DUP1 PUSH1 0x0 PUSH1 0x60 DUP5 DUP7 SUB SLT ISZERO PUSH2 0x582F JUMPI PUSH1 0x0 DUP1 REVERT JUMPDEST DUP4 CALLDATALOAD SWAP3 POP PUSH1 0x20 DUP5 ADD CALLDATALOAD SWAP2 POP PUSH2 0x5846 PUSH1 0x40 DUP6 ADD PUSH2 0x50D4 JUMP JUMPDEST SWAP1 POP SWAP3 POP SWAP3 POP SWAP3 JUMP JUMPDEST PUSH1 0x0 DUP1 PUSH1 0x40 DUP4 DUP6 SUB SLT ISZERO PUSH2 0x5862 JUMPI PUSH1 0x0 DUP1 REVERT JUMPDEST DUP3 CALLDATALOAD SWAP2 POP PUSH1 0x20 DUP4 ADD CALLDATALOAD PUSH1 0x1 PUSH1 0x1 PUSH1 0x40 SHL SUB DUP2 GT ISZERO PUSH2 0x587F JUMPI PUSH1 0x0 DUP1 REVERT JUMPDEST PUSH2 0x588B DUP6 DUP3 DUP7 ADD PUSH2 0x54C1 JUMP JUMPDEST SWAP2 POP POP SWAP3 POP SWAP3 SWAP1 POP JUMP JUMPDEST PUSH1 0x0 DUP1 PUSH1 0x40 DUP4 DUP6 SUB SLT ISZERO PUSH2 0x58A8 JUMPI PUSH1 0x0 DUP1 REVERT JUMPDEST DUP3 CALLDATALOAD PUSH1 0x1 PUSH1 0x1 PUSH1 0x40 SHL SUB DUP1 DUP3 GT ISZERO PUSH2 0x58BF JUMPI PUSH1 0x0 DUP1 REVERT JUMPDEST PUSH2 0x58CB DUP7 DUP4 DUP8 ADD PUSH2 0x558D JUMP JUMPDEST SWAP4 POP PUSH1 0x20 DUP6 ADD CALLDATALOAD SWAP2 POP DUP1 DUP3 GT ISZERO PUSH2 0x58E1 JUMPI PUSH1 0x0 DUP1 REVERT JUMPDEST POP PUSH2 0x588B DUP6 DUP3 DUP7 ADD PUSH2 0x558D JUMP JUMPDEST PUSH1 0x0 DUP1 PUSH1 0x40 DUP4 DUP6 SUB SLT ISZERO PUSH2 0x5901 JUMPI PUSH1 0x0 DUP1 REVERT JUMPDEST DUP3 CALLDATALOAD PUSH1 0x1 PUSH1 0x1 PUSH1 0x40 SHL SUB DUP1 DUP3 GT ISZERO PUSH2 0x5918 JUMPI PUSH1 0x0 DUP1 REVERT JUMPDEST PUSH2 0x5924 DUP7 DUP4 DUP8 ADD PUSH2 0x54C1 JUMP JUMPDEST SWAP4 POP PUSH1 0x20 DUP6 ADD CALLDATALOAD SWAP2 POP DUP1 DUP3 GT ISZERO PUSH2 0x593A JUMPI PUSH1 0x0 DUP1 REVERT JUMPDEST POP PUSH2 0x588B DUP6 DUP3 DUP7 ADD PUSH2 0x54C1 JUMP JUMPDEST PUSH1 0x20 DUP2 MSTORE PUSH1 0x0 PUSH2 0x1766 PUSH1 0x20 DUP4 ADD DUP5 PUSH2 0x53F4 JUMP JUMPDEST PUSH1 0x0 DUP1 PUSH1 0x40 DUP4 DUP6 SUB SLT ISZERO PUSH2 0x596D JUMPI PUSH1 0x0 DUP1 REVERT JUMPDEST PUSH2 0x5976 DUP4 PUSH2 0x50D4 JUMP JUMPDEST SWAP2 POP PUSH1 0x20 DUP4 ADD CALLDATALOAD PUSH1 0x1 PUSH1 0x1 PUSH1 0x40 SHL SUB DUP2 GT ISZERO PUSH2 0x5991 JUMPI PUSH1 0x0 DUP1 REVERT JUMPDEST PUSH2 0x588B DUP6 DUP3 DUP7 ADD PUSH2 0x5201 JUMP JUMPDEST PUSH1 0x0 DUP1 PUSH1 0x0 PUSH1 0x60 DUP5 DUP7 SUB SLT ISZERO PUSH2 0x59B2 JUMPI PUSH1 0x0 DUP1 REVERT JUMPDEST PUSH2 0x59BB DUP5 PUSH2 0x50D4 JUMP JUMPDEST SWAP6 PUSH1 0x20 DUP6 ADD CALLDATALOAD SWAP6 POP PUSH1 0x40 SWAP1 SWAP5 ADD CALLDATALOAD SWAP4 SWAP3 POP POP POP JUMP JUMPDEST PUSH1 0x0 JUMPDEST DUP4 DUP2 LT ISZERO PUSH2 0x59EB JUMPI DUP2 DUP2 ADD MLOAD DUP4 DUP3 ADD MSTORE PUSH1 0x20 ADD PUSH2 0x59D3 JUMP JUMPDEST POP POP PUSH1 0x0 SWAP2 ADD MSTORE JUMP JUMPDEST PUSH1 0x20 DUP2 MSTORE PUSH1 0x0 DUP3 MLOAD DUP1 PUSH1 0x20 DUP5 ADD MSTORE PUSH2 0x5A13 DUP2 PUSH1 0x40 DUP6 ADD PUSH1 0x20 DUP8 ADD PUSH2 0x59D0 JUMP JUMPDEST PUSH1 0x1F ADD PUSH1 0x1F NOT AND SWAP2 SWAP1 SWAP2 ADD PUSH1 0x40 ADD SWAP3 SWAP2 POP POP JUMP JUMPDEST PUSH4 0x4E487B71 PUSH1 0xE0 SHL PUSH1 0x0 MSTORE PUSH1 0x11 PUSH1 0x4 MSTORE PUSH1 0x24 PUSH1 0x0 REVERT JUMPDEST DUP1 DUP3 ADD DUP1 DUP3 GT ISZERO PUSH2 0xA02 JUMPI PUSH2 0xA02 PUSH2 0x5A27 JUMP JUMPDEST PUSH1 0x0 PUSH1 0x1 DUP3 ADD PUSH2 0x5A62 JUMPI PUSH2 0x5A62 PUSH2 0x5A27 JUMP JUMPDEST POP PUSH1 0x1 ADD SWAP1 JUMP JUMPDEST PUSH4 0x4E487B71 PUSH1 0xE0 SHL PUSH1 0x0 MSTORE PUSH1 0x32 PUSH1 0x4 MSTORE PUSH1 0x24 PUSH1 0x0 REVERT JUMPDEST PUSH1 0x1 PUSH1 0x1 PUSH1 0xA0 SHL SUB SWAP4 DUP5 AND DUP2 MSTORE SWAP2 SWAP1 SWAP3 AND PUSH1 0x20 DUP3 ADD MSTORE PUSH1 0x40 DUP2 ADD SWAP2 SWAP1 SWAP2 MSTORE PUSH1 0x60 ADD SWAP1 JUMP JUMPDEST DUP2 DUP2 SUB DUP2 DUP2 GT ISZERO PUSH2 0xA02 JUMPI PUSH2 0xA02 PUSH2 0x5A27 JUMP JUMPDEST DUP1 DUP3 MUL DUP2 ISZERO DUP3 DUP3 DIV DUP5 EQ OR PUSH2 0xA02 JUMPI PUSH2 0xA02 PUSH2 0x5A27 JUMP JUMPDEST PUSH4 0x4E487B71 PUSH1 0xE0 SHL PUSH1 0x0 MSTORE PUSH1 0x12 PUSH1 0x4 MSTORE PUSH1 0x24 PUSH1 0x0 REVERT JUMPDEST PUSH1 0x0 DUP3 PUSH2 0x5AF2 JUMPI PUSH2 0x5AF2 PUSH2 0x5ACD JUMP JUMPDEST POP DIV SWAP1 JUMP JUMPDEST PUSH1 0x0 DUP3 PUSH2 0x5B06 JUMPI PUSH2 0x5B06 PUSH2 0x5ACD JUMP JUMPDEST POP MOD SWAP1 JUMP JUMPDEST PUSH1 0x0 DUP3 MLOAD PUSH2 0x5B1D DUP2 DUP5 PUSH1 0x20 DUP8 ADD PUSH2 0x59D0 JUMP JUMPDEST SWAP2 SWAP1 SWAP2 ADD SWAP3 SWAP2 POP POP JUMP JUMPDEST PUSH1 0x1 DUP2 DUP2 SHR SWAP1 DUP3 AND DUP1 PUSH2 0x5B3B JUMPI PUSH1 0x7F DUP3 AND SWAP2 POP JUMPDEST PUSH1 0x20 DUP3 LT DUP2 SUB PUSH2 0x1BB9 JUMPI PUSH4 0x4E487B71 PUSH1 0xE0 SHL PUSH1 0x0 MSTORE PUSH1 0x22 PUSH1 0x4 MSTORE PUSH1 0x24 PUSH1 0x0 REVERT JUMPDEST PUSH1 0x1F DUP3 GT ISZERO PUSH2 0xD86 JUMPI PUSH1 0x0 DUP2 DUP2 MSTORE PUSH1 0x20 DUP2 KECCAK256 PUSH1 0x1F DUP6 ADD PUSH1 0x5 SHR DUP2 ADD PUSH1 0x20 DUP7 LT ISZERO PUSH2 0x5B82 JUMPI POP DUP1 JUMPDEST PUSH1 0x1F DUP6 ADD PUSH1 0x5 SHR DUP3 ADD SWAP2 POP JUMPDEST DUP2 DUP2 LT ISZERO PUSH2 0x4D8D JUMPI DUP3 DUP2 SSTORE PUSH1 0x1 ADD PUSH2 0x5B8E JUMP JUMPDEST DUP2 MLOAD PUSH1 0x1 PUSH1 0x1 PUSH1 0x40 SHL SUB DUP2 GT ISZERO PUSH2 0x5BBA JUMPI PUSH2 0x5BBA PUSH2 0x5198 JUMP JUMPDEST PUSH2 0x5BCE DUP2 PUSH2 0x5BC8 DUP5 SLOAD PUSH2 0x5B27 JUMP JUMPDEST DUP5 PUSH2 0x5B5B JUMP JUMPDEST PUSH1 0x20 DUP1 PUSH1 0x1F DUP4 GT PUSH1 0x1 DUP2 EQ PUSH2 0x5C03 JUMPI PUSH1 0x0 DUP5 ISZERO PUSH2 0x5BEB JUMPI POP DUP6 DUP4 ADD MLOAD JUMPDEST PUSH1 0x0 NOT PUSH1 0x3 DUP7 SWAP1 SHL SHR NOT AND PUSH1 0x1 DUP6 SWAP1 SHL OR DUP6 SSTORE PUSH2 0x4D8D JUMP JUMPDEST PUSH1 0x0 DUP6 DUP2 MSTORE PUSH1 0x20 DUP2 KECCAK256 PUSH1 0x1F NOT DUP7 AND SWAP2 JUMPDEST DUP3 DUP2 LT ISZERO PUSH2 0x5C32 JUMPI DUP9 DUP7 ADD MLOAD DUP3 SSTORE SWAP5 DUP5 ADD SWAP5 PUSH1 0x1 SWAP1 SWAP2 ADD SWAP1 DUP5 ADD PUSH2 0x5C13 JUMP JUMPDEST POP DUP6 DUP3 LT ISZERO PUSH2 0x5C50 JUMPI DUP8 DUP6 ADD MLOAD PUSH1 0x0 NOT PUSH1 0x3 DUP9 SWAP1 SHL PUSH1 0xF8 AND SHR NOT AND DUP2 SSTORE JUMPDEST POP POP POP POP POP PUSH1 0x1 SWAP1 DUP2 SHL ADD SWAP1 SSTORE POP JUMP JUMPDEST PUSH1 0x0 DUP2 PUSH2 0x5C6F JUMPI PUSH2 0x5C6F PUSH2 0x5A27 JUMP JUMPDEST POP PUSH1 0x0 NOT ADD SWAP1 JUMP JUMPDEST PUSH1 0x1 PUSH1 0x1 PUSH1 0xA0 SHL SUB SWAP3 SWAP1 SWAP3 AND DUP3 MSTORE PUSH1 0x20 DUP3 ADD MSTORE PUSH1 0x40 ADD SWAP1 JUMP JUMPDEST PUSH1 0x0 PUSH1 0x20 DUP3 DUP5 SUB SLT ISZERO PUSH2 0x5CA2 JUMPI PUSH1 0x0 DUP1 REVERT JUMPDEST DUP2 MLOAD DUP1 ISZERO ISZERO DUP2 EQ PUSH2 0x1766 JUMPI PUSH1 0x0 DUP1 REVERT JUMPDEST DUP2 DUP2 SUB PUSH1 0x0 DUP4 SLT DUP1 ISZERO DUP4 DUP4 SGT AND DUP4 DUP4 SLT DUP3 AND OR ISZERO PUSH2 0xA4B JUMPI PUSH2 0xA4B PUSH2 0x5A27 JUMP JUMPDEST PUSH1 0x0 DUP3 PUSH2 0x5CE1 JUMPI PUSH2 0x5CE1 PUSH2 0x5ACD JUMP JUMPDEST PUSH1 0x1 PUSH1 0xFF SHL DUP3 EQ PUSH1 0x0 NOT DUP5 EQ AND ISZERO PUSH2 0x5CFB JUMPI PUSH2 0x5CFB PUSH2 0x5A27 JUMP JUMPDEST POP SDIV SWAP1 JUMP JUMPDEST DUP1 DUP3 ADD DUP3 DUP2 SLT PUSH1 0x0 DUP4 SLT DUP1 ISZERO DUP3 AND DUP3 ISZERO DUP3 AND OR ISZERO PUSH2 0x5D20 JUMPI PUSH2 0x5D20 PUSH2 0x5A27 JUMP JUMPDEST POP POP SWAP3 SWAP2 POP POP JUMP JUMPDEST PUSH1 0x0 PUSH1 0x1 PUSH1 0x1 PUSH1 0xFF SHL ADD DUP3 ADD PUSH2 0x5A62 JUMPI PUSH2 0x5A62 PUSH2 0x5A27 JUMP JUMPDEST PUSH1 0x0 PUSH1 0x1 PUSH1 0xFF SHL DUP3 ADD PUSH2 0x5C6F JUMPI PUSH2 0x5C6F PUSH2 0x5A27 JUMP JUMPDEST PUSH23 0x20B1B1B2B9B9A1B7B73A3937B61D1030B1B1B7BAB73A1 PUSH1 0x4D SHL DUP2 MSTORE PUSH1 0x0 DUP4 MLOAD PUSH2 0x5D87 DUP2 PUSH1 0x17 DUP6 ADD PUSH1 0x20 DUP9 ADD PUSH2 0x59D0 JUMP JUMPDEST PUSH17 0x1034B99036B4B9B9B4B733903937B6329 PUSH1 0x7D SHL PUSH1 0x17 SWAP2 DUP5 ADD SWAP2 DUP3 ADD MSTORE DUP4 MLOAD PUSH2 0x5DB8 DUP2 PUSH1 0x28 DUP5 ADD PUSH1 0x20 DUP9 ADD PUSH2 0x59D0 JUMP JUMPDEST ADD PUSH1 0x28 ADD SWAP5 SWAP4 POP POP POP POP JUMP INVALID 0x24 0xEC 0x28 0x2D AND 0xD2 SWAP13 PUSH8 0x56F2923C564106BB DUP8 0xF9 0xB9 MSIZE BALANCE 0xE0 SWAP13 0x49 ORIGIN 0x2D 0xAE DUP7 SDIV PUSH17 0xDF0C828634D95E775031B9FF576B159A85 MULMOD 0xD3 SDIV CALLDATALOAD DUP2 0xA8 0xC9 0xC4 0xD7 0xD8 PUSH9 0x99E0AFCD882F25FF74 0xF7 0xCE SWAP2 0xD8 MULMOD 0x49 CREATE 0x2D 0xC1 0xBD STATICCALL 0x25 0x21 SHR BYTE 0xB2 CALLVALUE PUSH11 0x88F482F11B4CAD97D14054 PUSH6 0xD7A28E3265B3 PUSH27 0x6474929F336521B332C1681B933F6CB9F3376673440D862A56E8A2 0xB6 0x1E 0xC2 0xFC CALLDATACOPY SSTORE ADDRESS 0x22 ADDMOD 0xBE RETURNDATASIZE OR DUP12 PUSH10 0x91F8EFF695785FF8B3E2 PUSH15 0xB3FFA138A2646970667358221220C6 PUSH8 0x28000D345A442AC7 LOG1 EXTCODESIZE 0xDE PC EXP EXTCODECOPY DUP8 0xB7 0xDC 0xD4 EXTCODECOPY 0x5D PUSH25 0x4B50D945A9D878B81464736F6C634300081200330000000000 "
		},
		"gasEstimates": {
			"creation": {
				"codeDepositCost": "4843600",
				"executionCost": "5712",
				"totalCost": "4849312"
			},
			"external": {
				"CREATOR_ROLE()": "infinite",
				"DEFAULT_ADMIN_ROLE()": "1053",
				"ENDER_ROLE()": "infinite",
				"PAUSER_ROLE()": "infinite",
				"arrayReverser(uint256[])": "infinite",
				"betOn(uint256,uint256,uint256)": "infinite",
				"cancelBet(uint256)": "infinite",
				"checkEven(uint256)": "822",
				"claimFeesMoney()": "infinite",
				"closeBet(uint256)": "infinite",
				"closeBets(uint256[])": "infinite",
				"compareStrings(string,string)": "infinite",
				"constructor1()": "infinite",
				"countZeros(uint256[])": "infinite",
				"createNewBet(string,uint256)": "infinite",
				"createNewBets(string[],uint256[],uint256)": "infinite",
				"createP2PBet(uint256,uint256,uint256,uint256,address[])": "infinite",
				"deleteIndexFromUint256Array(uint256,uint256[])": "infinite",
				"didIWinSmth(uint256,address)": "infinite",
				"didIWinSmthP2P(uint256,address,uint256)": "infinite",
				"endBet(uint256,uint256)": "infinite",
				"endBets(uint256[],uint256[])": "infinite",
				"getAmountBetted(uint256,uint256,address)": "4217",
				"getFees()": "3634",
				"getFeesRewards()": "3744",
				"getHasUserWon(address,uint256)": "3583",
				"getHasUserWonP2P(address,uint256,uint256)": "4134",
				"getLastBet()": "3370",
				"getLowerIndexMinimum(uint256[])": "infinite",
				"getMaxCote(uint256,uint256,uint256)": "infinite",
				"getMiseBettersOnEnd(uint256,uint256,address)": "4038",
				"getMoneyInPoolEnd(uint256,uint256)": "3501",
				"getMoneyLosedOnBet(uint256)": "5136",
				"getMyBetsUnpaid(address)": "infinite",
				"getNameToNumber(string)": "infinite",
				"getNumberOfOptions(uint256)": "3252",
				"getNumberToName(uint256)": "infinite",
				"getOptionMoney(uint256,uint256)": "2809",
				"getPayedP2P(uint256,uint256)": "infinite",
				"getRoleAdmin(bytes32)": "2503",
				"getScore(address)": "3747",
				"getTotalMoney(uint256)": "infinite",
				"getWinner(uint256)": "2648",
				"getbetNumberToLastBetPP(uint256)": "3186",
				"grantRole(bytes32,address)": "infinite",
				"hasRole(bytes32,address)": "3377",
				"haveIBeenPaid(uint256,address)": "infinite",
				"howMuchIGotOnAnOption(uint256,uint256,address)": "3711",
				"howMuchIWon(uint256,address)": "infinite",
				"howMuchIWonP2P(address)": "infinite",
				"isCanceled(uint256)": "2593",
				"isClosed(uint256)": "3705",
				"isDead(uint256)": "2517",
				"isInArrayAddress(address,address[])": "infinite",
				"isInArrayArray(uint256[2],uint256[2][])": "infinite",
				"isInArrayUint256(uint256,uint256[])": "infinite",
				"joinP2PBet(uint256,uint256,uint256)": "infinite",
				"myPourcentageOnOption(uint256,uint256,address)": "8075",
				"recupAllGains()": "infinite",
				"recupAllP2PWin()": "infinite",
				"recupAllWin()": "infinite",
				"renounceRole(bytes32,address)": "29127",
				"revokeRole(bytes32,address)": "infinite",
				"seeMyBets(address)": "infinite",
				"seeMyP2PBets(address)": "infinite",
				"seeMyP2PBetsDetail(address,uint256)": "infinite",
				"seeP2PBet(uint256,uint256)": "infinite",
				"seeP2PBets(uint256)": "infinite",
				"setFees(uint256)": "infinite",
				"sort(uint256[])": "infinite",
				"supportsInterface(bytes4)": "404",
				"toClaimTotal(address)": "infinite"
			},
			"internal": {
				"moneyLosed(uint256)": "infinite",
				"payMBToken(address,uint256)": "infinite",
				"payWinner(address,uint256)": "infinite"
			}
		},
		"methodIdentifiers": {
			"CREATOR_ROLE()": "8aeda25a",
			"DEFAULT_ADMIN_ROLE()": "a217fddf",
			"ENDER_ROLE()": "9c3ea3a6",
			"PAUSER_ROLE()": "e63ab1e9",
			"arrayReverser(uint256[])": "ba02a680",
			"betOn(uint256,uint256,uint256)": "5d19d4dd",
			"cancelBet(uint256)": "357401f5",
			"checkEven(uint256)": "6ffb5c0a",
			"claimFeesMoney()": "fe88bdf1",
			"closeBet(uint256)": "a24beff7",
			"closeBets(uint256[])": "e06232ca",
			"compareStrings(string,string)": "bed34bba",
			"constructor1()": "473be604",
			"countZeros(uint256[])": "9190e0c7",
			"createNewBet(string,uint256)": "81b5e9f6",
			"createNewBets(string[],uint256[],uint256)": "8e5cc02f",
			"createP2PBet(uint256,uint256,uint256,uint256,address[])": "54b1bb07",
			"deleteIndexFromUint256Array(uint256,uint256[])": "d798299d",
			"didIWinSmth(uint256,address)": "edb40ef6",
			"didIWinSmthP2P(uint256,address,uint256)": "77e895f3",
			"endBet(uint256,uint256)": "75e600e4",
			"endBets(uint256[],uint256[])": "c3756e03",
			"getAmountBetted(uint256,uint256,address)": "f95cb71e",
			"getFees()": "db8d55f1",
			"getFeesRewards()": "f0592289",
			"getHasUserWon(address,uint256)": "acd818e2",
			"getHasUserWonP2P(address,uint256,uint256)": "e6edff51",
			"getLastBet()": "bbce3fc2",
			"getLowerIndexMinimum(uint256[])": "59ea2f25",
			"getMaxCote(uint256,uint256,uint256)": "7f8c78f4",
			"getMiseBettersOnEnd(uint256,uint256,address)": "d80493b5",
			"getMoneyInPoolEnd(uint256,uint256)": "ad2bf797",
			"getMoneyLosedOnBet(uint256)": "72093f50",
			"getMyBetsUnpaid(address)": "8d385f89",
			"getNameToNumber(string)": "7944dca2",
			"getNumberOfOptions(uint256)": "9ec71358",
			"getNumberToName(uint256)": "fbc707ef",
			"getOptionMoney(uint256,uint256)": "51d1850b",
			"getPayedP2P(uint256,uint256)": "c5a8d32e",
			"getRoleAdmin(bytes32)": "248a9ca3",
			"getScore(address)": "d47875d0",
			"getTotalMoney(uint256)": "0453f812",
			"getWinner(uint256)": "4129b2c9",
			"getbetNumberToLastBetPP(uint256)": "9507c061",
			"grantRole(bytes32,address)": "2f2ff15d",
			"hasRole(bytes32,address)": "91d14854",
			"haveIBeenPaid(uint256,address)": "cb0f9ccd",
			"howMuchIGotOnAnOption(uint256,uint256,address)": "b339fb35",
			"howMuchIWon(uint256,address)": "5a626339",
			"howMuchIWonP2P(address)": "f7f38188",
			"isCanceled(uint256)": "39e3af9b",
			"isClosed(uint256)": "d5c78a28",
			"isDead(uint256)": "2dfd8ffe",
			"isInArrayAddress(address,address[])": "d72c9fea",
			"isInArrayArray(uint256[2],uint256[2][])": "572a1be0",
			"isInArrayUint256(uint256,uint256[])": "b64b8ff2",
			"joinP2PBet(uint256,uint256,uint256)": "169cd29f",
			"myPourcentageOnOption(uint256,uint256,address)": "8ed99d8c",
			"recupAllGains()": "a89a47cf",
			"recupAllP2PWin()": "ac662986",
			"recupAllWin()": "b7700811",
			"renounceRole(bytes32,address)": "36568abe",
			"revokeRole(bytes32,address)": "d547741f",
			"seeMyBets(address)": "43969ec2",
			"seeMyP2PBets(address)": "cafc5d24",
			"seeMyP2PBetsDetail(address,uint256)": "59b63e58",
			"seeP2PBet(uint256,uint256)": "5755147d",
			"seeP2PBets(uint256)": "7cd4ba49",
			"setFees(uint256)": "3d18678e",
			"sort(uint256[])": "9ec8b026",
			"supportsInterface(bytes4)": "01ffc9a7",
			"toClaimTotal(address)": "9e2cedbe"
		}
	},
	"abi": [
		{
			"anonymous": false,
			"inputs": [
				{
					"indexed": true,
					"internalType": "bytes32",
					"name": "role",
					"type": "bytes32"
				},
				{
					"indexed": true,
					"internalType": "bytes32",
					"name": "previousAdminRole",
					"type": "bytes32"
				},
				{
					"indexed": true,
					"internalType": "bytes32",
					"name": "newAdminRole",
					"type": "bytes32"
				}
			],
			"name": "RoleAdminChanged",
			"type": "event"
		},
		{
			"anonymous": false,
			"inputs": [
				{
					"indexed": true,
					"internalType": "bytes32",
					"name": "role",
					"type": "bytes32"
				},
				{
					"indexed": true,
					"internalType": "address",
					"name": "account",
					"type": "address"
				},
				{
					"indexed": true,
					"internalType": "address",
					"name": "sender",
					"type": "address"
				}
			],
			"name": "RoleGranted",
			"type": "event"
		},
		{
			"anonymous": false,
			"inputs": [
				{
					"indexed": true,
					"internalType": "bytes32",
					"name": "role",
					"type": "bytes32"
				},
				{
					"indexed": true,
					"internalType": "address",
					"name": "account",
					"type": "address"
				},
				{
					"indexed": true,
					"internalType": "address",
					"name": "sender",
					"type": "address"
				}
			],
			"name": "RoleRevoked",
			"type": "event"
		},
		{
			"anonymous": false,
			"inputs": [
				{
					"indexed": true,
					"internalType": "uint256",
					"name": "betNumber",
					"type": "uint256"
				}
			],
			"name": "betClosed",
			"type": "event"
		},
		{
			"anonymous": false,
			"inputs": [
				{
					"indexed": true,
					"internalType": "uint256",
					"name": "betNumber",
					"type": "uint256"
				},
				{
					"indexed": true,
					"internalType": "uint256",
					"name": "winner",
					"type": "uint256"
				}
			],
			"name": "betDead",
			"type": "event"
		},
		{
			"anonymous": false,
			"inputs": [
				{
					"indexed": true,
					"internalType": "address",
					"name": "better",
					"type": "address"
				},
				{
					"indexed": true,
					"internalType": "uint256",
					"name": "numberBet",
					"type": "uint256"
				},
				{
					"indexed": false,
					"internalType": "uint256",
					"name": "option",
					"type": "uint256"
				},
				{
					"indexed": true,
					"internalType": "uint256",
					"name": "amount",
					"type": "uint256"
				}
			],
			"name": "betting",
			"type": "event"
		},
		{
			"anonymous": false,
			"inputs": [
				{
					"indexed": true,
					"internalType": "uint256",
					"name": "betNumber",
					"type": "uint256"
				},
				{
					"indexed": true,
					"internalType": "string",
					"name": "nameBet",
					"type": "string"
				}
			],
			"name": "newBetCreated",
			"type": "event"
		},
		{
			"anonymous": false,
			"inputs": [
				{
					"indexed": false,
					"internalType": "uint256",
					"name": "amount",
					"type": "uint256"
				}
			],
			"name": "ownerPayed",
			"type": "event"
		},
		{
			"anonymous": false,
			"inputs": [
				{
					"indexed": true,
					"internalType": "address",
					"name": "payed",
					"type": "address"
				},
				{
					"indexed": true,
					"internalType": "uint256",
					"name": "amount",
					"type": "uint256"
				}
			],
			"name": "payment",
			"type": "event"
		},
		{
			"inputs": [],
			"name": "CREATOR_ROLE",
			"outputs": [
				{
					"internalType": "bytes32",
					"name": "",
					"type": "bytes32"
				}
			],
			"stateMutability": "view",
			"type": "function"
		},
		{
			"inputs": [],
			"name": "DEFAULT_ADMIN_ROLE",
			"outputs": [
				{
					"internalType": "bytes32",
					"name": "",
					"type": "bytes32"
				}
			],
			"stateMutability": "view",
			"type": "function"
		},
		{
			"inputs": [],
			"name": "ENDER_ROLE",
			"outputs": [
				{
					"internalType": "bytes32",
					"name": "",
					"type": "bytes32"
				}
			],
			"stateMutability": "view",
			"type": "function"
		},
		{
			"inputs": [],
			"name": "PAUSER_ROLE",
			"outputs": [
				{
					"internalType": "bytes32",
					"name": "",
					"type": "bytes32"
				}
			],
			"stateMutability": "view",
			"type": "function"
		},
		{
			"inputs": [
				{
					"internalType": "uint256[]",
					"name": "arr",
					"type": "uint256[]"
				}
			],
			"name": "arrayReverser",
			"outputs": [
				{
					"internalType": "uint256[]",
					"name": "",
					"type": "uint256[]"
				}
			],
			"stateMutability": "pure",
			"type": "function"
		},
		{
			"inputs": [
				{
					"internalType": "uint256",
					"name": "betNumber",
					"type": "uint256"
				},
				{
					"internalType": "uint256",
					"name": "option",
					"type": "uint256"
				},
				{
					"internalType": "uint256",
					"name": "amount",
					"type": "uint256"
				}
			],
			"name": "betOn",
			"outputs": [],
			"stateMutability": "nonpayable",
			"type": "function"
		},
		{
			"inputs": [
				{
					"internalType": "uint256",
					"name": "betNumber",
					"type": "uint256"
				}
			],
			"name": "cancelBet",
			"outputs": [],
			"stateMutability": "nonpayable",
			"type": "function"
		},
		{
			"inputs": [
				{
					"internalType": "uint256",
					"name": "testNo",
					"type": "uint256"
				}
			],
			"name": "checkEven",
			"outputs": [
				{
					"internalType": "bool",
					"name": "",
					"type": "bool"
				}
			],
			"stateMutability": "pure",
			"type": "function"
		},
		{
			"inputs": [],
			"name": "claimFeesMoney",
			"outputs": [],
			"stateMutability": "nonpayable",
			"type": "function"
		},
		{
			"inputs": [
				{
					"internalType": "uint256",
					"name": "betNumber",
					"type": "uint256"
				}
			],
			"name": "closeBet",
			"outputs": [],
			"stateMutability": "nonpayable",
			"type": "function"
		},
		{
			"inputs": [
				{
					"internalType": "uint256[]",
					"name": "betsToClose",
					"type": "uint256[]"
				}
			],
			"name": "closeBets",
			"outputs": [],
			"stateMutability": "nonpayable",
			"type": "function"
		},
		{
			"inputs": [
				{
					"internalType": "string",
					"name": "a",
					"type": "string"
				},
				{
					"internalType": "string",
					"name": "b",
					"type": "string"
				}
			],
			"name": "compareStrings",
			"outputs": [
				{
					"internalType": "bool",
					"name": "",
					"type": "bool"
				}
			],
			"stateMutability": "pure",
			"type": "function"
		},
		{
			"inputs": [],
			"name": "constructor1",
			"outputs": [],
			"stateMutability": "nonpayable",
			"type": "function"
		},
		{
			"inputs": [
				{
					"internalType": "uint256[]",
					"name": "list",
					"type": "uint256[]"
				}
			],
			"name": "countZeros",
			"outputs": [
				{
					"internalType": "uint256",
					"name": "",
					"type": "uint256"
				}
			],
			"stateMutability": "pure",
			"type": "function"
		},
		{
			"inputs": [
				{
					"internalType": "string",
					"name": "name",
					"type": "string"
				},
				{
					"internalType": "uint256",
					"name": "optionsNumber",
					"type": "uint256"
				}
			],
			"name": "createNewBet",
			"outputs": [],
			"stateMutability": "nonpayable",
			"type": "function"
		},
		{
			"inputs": [
				{
					"internalType": "string[]",
					"name": "names",
					"type": "string[]"
				},
				{
					"internalType": "uint256[]",
					"name": "optionsNumbers",
					"type": "uint256[]"
				},
				{
					"internalType": "uint256",
					"name": "numberOfBetsToAdd",
					"type": "uint256"
				}
			],
			"name": "createNewBets",
			"outputs": [],
			"stateMutability": "nonpayable",
			"type": "function"
		},
		{
			"inputs": [
				{
					"internalType": "uint256",
					"name": "amountToBet",
					"type": "uint256"
				},
				{
					"internalType": "uint256",
					"name": "amountToEnter",
					"type": "uint256"
				},
				{
					"internalType": "uint256",
					"name": "betNumber",
					"type": "uint256"
				},
				{
					"internalType": "uint256",
					"name": "optionToBet",
					"type": "uint256"
				},
				{
					"internalType": "address[]",
					"name": "authorized",
					"type": "address[]"
				}
			],
			"name": "createP2PBet",
			"outputs": [],
			"stateMutability": "nonpayable",
			"type": "function"
		},
		{
			"inputs": [
				{
					"internalType": "uint256",
					"name": "index",
					"type": "uint256"
				},
				{
					"internalType": "uint256[]",
					"name": "list",
					"type": "uint256[]"
				}
			],
			"name": "deleteIndexFromUint256Array",
			"outputs": [
				{
					"internalType": "uint256[]",
					"name": "",
					"type": "uint256[]"
				}
			],
			"stateMutability": "pure",
			"type": "function"
		},
		{
			"inputs": [
				{
					"internalType": "uint256",
					"name": "betNumber",
					"type": "uint256"
				},
				{
					"internalType": "address",
					"name": "msgsender",
					"type": "address"
				}
			],
			"name": "didIWinSmth",
			"outputs": [
				{
					"internalType": "bool",
					"name": "",
					"type": "bool"
				}
			],
			"stateMutability": "view",
			"type": "function"
		},
		{
			"inputs": [
				{
					"internalType": "uint256",
					"name": "betNumber",
					"type": "uint256"
				},
				{
					"internalType": "address",
					"name": "msgsender",
					"type": "address"
				},
				{
					"internalType": "uint256",
					"name": "p2pNumber",
					"type": "uint256"
				}
			],
			"name": "didIWinSmthP2P",
			"outputs": [
				{
					"internalType": "bool",
					"name": "",
					"type": "bool"
				}
			],
			"stateMutability": "view",
			"type": "function"
		},
		{
			"inputs": [
				{
					"internalType": "uint256",
					"name": "betNumber",
					"type": "uint256"
				},
				{
					"internalType": "uint256",
					"name": "poolWin",
					"type": "uint256"
				}
			],
			"name": "endBet",
			"outputs": [],
			"stateMutability": "nonpayable",
			"type": "function"
		},
		{
			"inputs": [
				{
					"internalType": "uint256[]",
					"name": "betNumbers",
					"type": "uint256[]"
				},
				{
					"internalType": "uint256[]",
					"name": "poolwinners",
					"type": "uint256[]"
				}
			],
			"name": "endBets",
			"outputs": [],
			"stateMutability": "nonpayable",
			"type": "function"
		},
		{
			"inputs": [
				{
					"internalType": "uint256",
					"name": "betNumber",
					"type": "uint256"
				},
				{
					"internalType": "uint256",
					"name": "p2pNumber",
					"type": "uint256"
				},
				{
					"internalType": "address",
					"name": "msgsender",
					"type": "address"
				}
			],
			"name": "getAmountBetted",
			"outputs": [
				{
					"internalType": "uint256",
					"name": "",
					"type": "uint256"
				}
			],
			"stateMutability": "view",
			"type": "function"
		},
		{
			"inputs": [],
			"name": "getFees",
			"outputs": [
				{
					"internalType": "uint256",
					"name": "",
					"type": "uint256"
				}
			],
			"stateMutability": "view",
			"type": "function"
		},
		{
			"inputs": [],
			"name": "getFeesRewards",
			"outputs": [
				{
					"internalType": "uint256",
					"name": "",
					"type": "uint256"
				}
			],
			"stateMutability": "view",
			"type": "function"
		},
		{
			"inputs": [
				{
					"internalType": "address",
					"name": "msgsender",
					"type": "address"
				},
				{
					"internalType": "uint256",
					"name": "betNumber",
					"type": "uint256"
				}
			],
			"name": "getHasUserWon",
			"outputs": [
				{
					"internalType": "bool",
					"name": "",
					"type": "bool"
				}
			],
			"stateMutability": "view",
			"type": "function"
		},
		{
			"inputs": [
				{
					"internalType": "address",
					"name": "msgsender",
					"type": "address"
				},
				{
					"internalType": "uint256",
					"name": "betNumber",
					"type": "uint256"
				},
				{
					"internalType": "uint256",
					"name": "p2pBetNumber",
					"type": "uint256"
				}
			],
			"name": "getHasUserWonP2P",
			"outputs": [
				{
					"internalType": "bool",
					"name": "",
					"type": "bool"
				}
			],
			"stateMutability": "view",
			"type": "function"
		},
		{
			"inputs": [],
			"name": "getLastBet",
			"outputs": [
				{
					"internalType": "uint256",
					"name": "",
					"type": "uint256"
				}
			],
			"stateMutability": "view",
			"type": "function"
		},
		{
			"inputs": [
				{
					"internalType": "uint256[]",
					"name": "list",
					"type": "uint256[]"
				}
			],
			"name": "getLowerIndexMinimum",
			"outputs": [
				{
					"internalType": "uint256",
					"name": "",
					"type": "uint256"
				}
			],
			"stateMutability": "pure",
			"type": "function"
		},
		{
			"inputs": [
				{
					"internalType": "uint256",
					"name": "betNumber",
					"type": "uint256"
				},
				{
					"internalType": "uint256",
					"name": "optionAgainst",
					"type": "uint256"
				},
				{
					"internalType": "uint256",
					"name": "minToEnter",
					"type": "uint256"
				}
			],
			"name": "getMaxCote",
			"outputs": [
				{
					"internalType": "uint256",
					"name": "",
					"type": "uint256"
				}
			],
			"stateMutability": "view",
			"type": "function"
		},
		{
			"inputs": [
				{
					"internalType": "uint256",
					"name": "betNumber",
					"type": "uint256"
				},
				{
					"internalType": "uint256",
					"name": "option",
					"type": "uint256"
				},
				{
					"internalType": "address",
					"name": "msgsender",
					"type": "address"
				}
			],
			"name": "getMiseBettersOnEnd",
			"outputs": [
				{
					"internalType": "uint256",
					"name": "",
					"type": "uint256"
				}
			],
			"stateMutability": "view",
			"type": "function"
		},
		{
			"inputs": [
				{
					"internalType": "uint256",
					"name": "betNumber",
					"type": "uint256"
				},
				{
					"internalType": "uint256",
					"name": "option",
					"type": "uint256"
				}
			],
			"name": "getMoneyInPoolEnd",
			"outputs": [
				{
					"internalType": "uint256",
					"name": "",
					"type": "uint256"
				}
			],
			"stateMutability": "view",
			"type": "function"
		},
		{
			"inputs": [
				{
					"internalType": "uint256",
					"name": "betNumber",
					"type": "uint256"
				}
			],
			"name": "getMoneyLosedOnBet",
			"outputs": [
				{
					"internalType": "uint256",
					"name": "",
					"type": "uint256"
				}
			],
			"stateMutability": "view",
			"type": "function"
		},
		{
			"inputs": [
				{
					"internalType": "address",
					"name": "msgsender",
					"type": "address"
				}
			],
			"name": "getMyBetsUnpaid",
			"outputs": [
				{
					"internalType": "uint256[]",
					"name": "",
					"type": "uint256[]"
				}
			],
			"stateMutability": "view",
			"type": "function"
		},
		{
			"inputs": [
				{
					"internalType": "string",
					"name": "name",
					"type": "string"
				}
			],
			"name": "getNameToNumber",
			"outputs": [
				{
					"internalType": "uint256",
					"name": "",
					"type": "uint256"
				}
			],
			"stateMutability": "view",
			"type": "function"
		},
		{
			"inputs": [
				{
					"internalType": "uint256",
					"name": "betNumber",
					"type": "uint256"
				}
			],
			"name": "getNumberOfOptions",
			"outputs": [
				{
					"internalType": "uint256",
					"name": "",
					"type": "uint256"
				}
			],
			"stateMutability": "view",
			"type": "function"
		},
		{
			"inputs": [
				{
					"internalType": "uint256",
					"name": "number",
					"type": "uint256"
				}
			],
			"name": "getNumberToName",
			"outputs": [
				{
					"internalType": "string",
					"name": "",
					"type": "string"
				}
			],
			"stateMutability": "view",
			"type": "function"
		},
		{
			"inputs": [
				{
					"internalType": "uint256",
					"name": "betNumber",
					"type": "uint256"
				},
				{
					"internalType": "uint256",
					"name": "option",
					"type": "uint256"
				}
			],
			"name": "getOptionMoney",
			"outputs": [
				{
					"internalType": "uint256",
					"name": "",
					"type": "uint256"
				}
			],
			"stateMutability": "view",
			"type": "function"
		},
		{
			"inputs": [
				{
					"internalType": "uint256",
					"name": "betNumber",
					"type": "uint256"
				},
				{
					"internalType": "uint256",
					"name": "p2pNumber",
					"type": "uint256"
				}
			],
			"name": "getPayedP2P",
			"outputs": [
				{
					"internalType": "address[]",
					"name": "",
					"type": "address[]"
				}
			],
			"stateMutability": "view",
			"type": "function"
		},
		{
			"inputs": [
				{
					"internalType": "bytes32",
					"name": "role",
					"type": "bytes32"
				}
			],
			"name": "getRoleAdmin",
			"outputs": [
				{
					"internalType": "bytes32",
					"name": "",
					"type": "bytes32"
				}
			],
			"stateMutability": "view",
			"type": "function"
		},
		{
			"inputs": [
				{
					"internalType": "address",
					"name": "msgsender",
					"type": "address"
				}
			],
			"name": "getScore",
			"outputs": [
				{
					"internalType": "uint256",
					"name": "",
					"type": "uint256"
				}
			],
			"stateMutability": "view",
			"type": "function"
		},
		{
			"inputs": [
				{
					"internalType": "uint256",
					"name": "betNumber",
					"type": "uint256"
				}
			],
			"name": "getTotalMoney",
			"outputs": [
				{
					"internalType": "uint256",
					"name": "",
					"type": "uint256"
				}
			],
			"stateMutability": "view",
			"type": "function"
		},
		{
			"inputs": [
				{
					"internalType": "uint256",
					"name": "betNumber",
					"type": "uint256"
				}
			],
			"name": "getWinner",
			"outputs": [
				{
					"internalType": "uint256",
					"name": "",
					"type": "uint256"
				}
			],
			"stateMutability": "view",
			"type": "function"
		},
		{
			"inputs": [
				{
					"internalType": "uint256",
					"name": "betNumber",
					"type": "uint256"
				}
			],
			"name": "getbetNumberToLastBetPP",
			"outputs": [
				{
					"internalType": "uint256",
					"name": "",
					"type": "uint256"
				}
			],
			"stateMutability": "view",
			"type": "function"
		},
		{
			"inputs": [
				{
					"internalType": "bytes32",
					"name": "role",
					"type": "bytes32"
				},
				{
					"internalType": "address",
					"name": "account",
					"type": "address"
				}
			],
			"name": "grantRole",
			"outputs": [],
			"stateMutability": "nonpayable",
			"type": "function"
		},
		{
			"inputs": [
				{
					"internalType": "bytes32",
					"name": "role",
					"type": "bytes32"
				},
				{
					"internalType": "address",
					"name": "account",
					"type": "address"
				}
			],
			"name": "hasRole",
			"outputs": [
				{
					"internalType": "bool",
					"name": "",
					"type": "bool"
				}
			],
			"stateMutability": "view",
			"type": "function"
		},
		{
			"inputs": [
				{
					"internalType": "uint256",
					"name": "betNumber",
					"type": "uint256"
				},
				{
					"internalType": "address",
					"name": "addressToTest",
					"type": "address"
				}
			],
			"name": "haveIBeenPaid",
			"outputs": [
				{
					"internalType": "bool",
					"name": "",
					"type": "bool"
				}
			],
			"stateMutability": "view",
			"type": "function"
		},
		{
			"inputs": [
				{
					"internalType": "uint256",
					"name": "betNumber",
					"type": "uint256"
				},
				{
					"internalType": "uint256",
					"name": "option",
					"type": "uint256"
				},
				{
					"internalType": "address",
					"name": "msgsender",
					"type": "address"
				}
			],
			"name": "howMuchIGotOnAnOption",
			"outputs": [
				{
					"internalType": "uint256",
					"name": "",
					"type": "uint256"
				}
			],
			"stateMutability": "view",
			"type": "function"
		},
		{
			"inputs": [
				{
					"internalType": "uint256",
					"name": "betNumber",
					"type": "uint256"
				},
				{
					"internalType": "address",
					"name": "msgsender",
					"type": "address"
				}
			],
			"name": "howMuchIWon",
			"outputs": [
				{
					"internalType": "uint256",
					"name": "",
					"type": "uint256"
				}
			],
			"stateMutability": "view",
			"type": "function"
		},
		{
			"inputs": [
				{
					"internalType": "address",
					"name": "msgsender",
					"type": "address"
				}
			],
			"name": "howMuchIWonP2P",
			"outputs": [
				{
					"internalType": "uint256",
					"name": "",
					"type": "uint256"
				}
			],
			"stateMutability": "view",
			"type": "function"
		},
		{
			"inputs": [
				{
					"internalType": "uint256",
					"name": "betNumber",
					"type": "uint256"
				}
			],
			"name": "isCanceled",
			"outputs": [
				{
					"internalType": "bool",
					"name": "",
					"type": "bool"
				}
			],
			"stateMutability": "view",
			"type": "function"
		},
		{
			"inputs": [
				{
					"internalType": "uint256",
					"name": "betNumber",
					"type": "uint256"
				}
			],
			"name": "isClosed",
			"outputs": [
				{
					"internalType": "bool",
					"name": "",
					"type": "bool"
				}
			],
			"stateMutability": "view",
			"type": "function"
		},
		{
			"inputs": [
				{
					"internalType": "uint256",
					"name": "betNumber",
					"type": "uint256"
				}
			],
			"name": "isDead",
			"outputs": [
				{
					"internalType": "bool",
					"name": "",
					"type": "bool"
				}
			],
			"stateMutability": "view",
			"type": "function"
		},
		{
			"inputs": [
				{
					"internalType": "address",
					"name": "element",
					"type": "address"
				},
				{
					"internalType": "address[]",
					"name": "list",
					"type": "address[]"
				}
			],
			"name": "isInArrayAddress",
			"outputs": [
				{
					"internalType": "bool",
					"name": "",
					"type": "bool"
				}
			],
			"stateMutability": "pure",
			"type": "function"
		},
		{
			"inputs": [
				{
					"internalType": "uint256[2]",
					"name": "element",
					"type": "uint256[2]"
				},
				{
					"internalType": "uint256[2][]",
					"name": "list",
					"type": "uint256[2][]"
				}
			],
			"name": "isInArrayArray",
			"outputs": [
				{
					"internalType": "bool",
					"name": "",
					"type": "bool"
				}
			],
			"stateMutability": "pure",
			"type": "function"
		},
		{
			"inputs": [
				{
					"internalType": "uint256",
					"name": "element",
					"type": "uint256"
				},
				{
					"internalType": "uint256[]",
					"name": "list",
					"type": "uint256[]"
				}
			],
			"name": "isInArrayUint256",
			"outputs": [
				{
					"internalType": "bool",
					"name": "",
					"type": "bool"
				}
			],
			"stateMutability": "pure",
			"type": "function"
		},
		{
			"inputs": [
				{
					"internalType": "uint256",
					"name": "betNumber",
					"type": "uint256"
				},
				{
					"internalType": "uint256",
					"name": "p2pNumber",
					"type": "uint256"
				},
				{
					"internalType": "uint256",
					"name": "amountToBet",
					"type": "uint256"
				}
			],
			"name": "joinP2PBet",
			"outputs": [],
			"stateMutability": "nonpayable",
			"type": "function"
		},
		{
			"inputs": [
				{
					"internalType": "uint256",
					"name": "betNumber",
					"type": "uint256"
				},
				{
					"internalType": "uint256",
					"name": "option",
					"type": "uint256"
				},
				{
					"internalType": "address",
					"name": "msgsender",
					"type": "address"
				}
			],
			"name": "myPourcentageOnOption",
			"outputs": [
				{
					"internalType": "uint256",
					"name": "",
					"type": "uint256"
				}
			],
			"stateMutability": "view",
			"type": "function"
		},
		{
			"inputs": [],
			"name": "recupAllGains",
			"outputs": [],
			"stateMutability": "nonpayable",
			"type": "function"
		},
		{
			"inputs": [],
			"name": "recupAllP2PWin",
			"outputs": [],
			"stateMutability": "nonpayable",
			"type": "function"
		},
		{
			"inputs": [],
			"name": "recupAllWin",
			"outputs": [],
			"stateMutability": "nonpayable",
			"type": "function"
		},
		{
			"inputs": [
				{
					"internalType": "bytes32",
					"name": "role",
					"type": "bytes32"
				},
				{
					"internalType": "address",
					"name": "account",
					"type": "address"
				}
			],
			"name": "renounceRole",
			"outputs": [],
			"stateMutability": "nonpayable",
			"type": "function"
		},
		{
			"inputs": [
				{
					"internalType": "bytes32",
					"name": "role",
					"type": "bytes32"
				},
				{
					"internalType": "address",
					"name": "account",
					"type": "address"
				}
			],
			"name": "revokeRole",
			"outputs": [],
			"stateMutability": "nonpayable",
			"type": "function"
		},
		{
			"inputs": [
				{
					"internalType": "address",
					"name": "msgsender",
					"type": "address"
				}
			],
			"name": "seeMyBets",
			"outputs": [
				{
					"internalType": "uint256[]",
					"name": "",
					"type": "uint256[]"
				}
			],
			"stateMutability": "view",
			"type": "function"
		},
		{
			"inputs": [
				{
					"internalType": "address",
					"name": "msgsender",
					"type": "address"
				}
			],
			"name": "seeMyP2PBets",
			"outputs": [
				{
					"internalType": "uint256[]",
					"name": "",
					"type": "uint256[]"
				}
			],
			"stateMutability": "view",
			"type": "function"
		},
		{
			"inputs": [
				{
					"internalType": "address",
					"name": "msgsender",
					"type": "address"
				},
				{
					"internalType": "uint256",
					"name": "betNumber",
					"type": "uint256"
				}
			],
			"name": "seeMyP2PBetsDetail",
			"outputs": [
				{
					"internalType": "uint256[]",
					"name": "",
					"type": "uint256[]"
				}
			],
			"stateMutability": "view",
			"type": "function"
		},
		{
			"inputs": [
				{
					"internalType": "uint256",
					"name": "betNumber",
					"type": "uint256"
				},
				{
					"internalType": "uint256",
					"name": "p2pNumber",
					"type": "uint256"
				}
			],
			"name": "seeP2PBet",
			"outputs": [
				{
					"internalType": "uint256",
					"name": "",
					"type": "uint256"
				},
				{
					"internalType": "address",
					"name": "",
					"type": "address"
				},
				{
					"internalType": "uint256",
					"name": "",
					"type": "uint256"
				},
				{
					"internalType": "uint256",
					"name": "",
					"type": "uint256"
				},
				{
					"internalType": "uint256",
					"name": "",
					"type": "uint256"
				},
				{
					"internalType": "uint256",
					"name": "",
					"type": "uint256"
				},
				{
					"internalType": "uint256",
					"name": "",
					"type": "uint256"
				},
				{
					"internalType": "bool",
					"name": "",
					"type": "bool"
				},
				{
					"internalType": "address[]",
					"name": "",
					"type": "address[]"
				}
			],
			"stateMutability": "view",
			"type": "function"
		},
		{
			"inputs": [
				{
					"internalType": "uint256",
					"name": "betNumber",
					"type": "uint256"
				}
			],
			"name": "seeP2PBets",
			"outputs": [
				{
					"components": [
						{
							"internalType": "uint256",
							"name": "ppbetNumber",
							"type": "uint256"
						},
						{
							"internalType": "address",
							"name": "creator",
							"type": "address"
						},
						{
							"internalType": "uint256",
							"name": "amountBet",
							"type": "uint256"
						},
						{
							"internalType": "uint256",
							"name": "cote",
							"type": "uint256"
						},
						{
							"internalType": "uint256",
							"name": "amountToEnter",
							"type": "uint256"
						},
						{
							"internalType": "uint256",
							"name": "betCorrelated",
							"type": "uint256"
						},
						{
							"internalType": "uint256",
							"name": "optionCreator",
							"type": "uint256"
						},
						{
							"internalType": "bool",
							"name": "friends",
							"type": "bool"
						},
						{
							"internalType": "address[]",
							"name": "authorized",
							"type": "address[]"
						}
					],
					"internalType": "struct MultiBetUSDTMultiOptions.p2pBet[]",
					"name": "",
					"type": "tuple[]"
				}
			],
			"stateMutability": "view",
			"type": "function"
		},
		{
			"inputs": [
				{
					"internalType": "uint256",
					"name": "_fees",
					"type": "uint256"
				}
			],
			"name": "setFees",
			"outputs": [],
			"stateMutability": "nonpayable",
			"type": "function"
		},
		{
			"inputs": [
				{
					"internalType": "uint256[]",
					"name": "data",
					"type": "uint256[]"
				}
			],
			"name": "sort",
			"outputs": [
				{
					"internalType": "uint256[]",
					"name": "",
					"type": "uint256[]"
				}
			],
			"stateMutability": "pure",
			"type": "function"
		},
		{
			"inputs": [
				{
					"internalType": "bytes4",
					"name": "interfaceId",
					"type": "bytes4"
				}
			],
			"name": "supportsInterface",
			"outputs": [
				{
					"internalType": "bool",
					"name": "",
					"type": "bool"
				}
			],
			"stateMutability": "view",
			"type": "function"
		},
		{
			"inputs": [
				{
					"internalType": "address",
					"name": "msgsender",
					"type": "address"
				}
			],
			"name": "toClaimTotal",
			"outputs": [
				{
					"internalType": "uint256",
					"name": "",
					"type": "uint256"
				}
			],
			"stateMutability": "view",
			"type": "function"
		}
	]
}